:10000000020F43008F828E83E0540100000070F8DD
:100010002278FFE4F6D8FD020FA1EC4D6011E8490B
:100020007017ED33EC3304600DE4FCFFFEFD22E9B4
:1000300033E8330470F80201CA12019558046009CC
:10004000E4CC248150062850090201D42840030240
:1000500001D1C0E0EB4A7044B98006D0E0FB020158
:10006000C0EF4E701CBD8008EBFFEAFEE9FD80EB9F
:10007000E98DF0A4FEE5F0020103E9CDF9EAFEEB1B
:10008000FFEF89F0A4FCE5F0CE89F0A42EFFE43563
:10009000F0CD89F0A42DFEE435F08067EF4E7005B9
:1000A000BD80D780C3EF8BF0A4ACF0EE8BF0A42C16
:1000B000FCE435F0F8EF8AF0A42CE5F038FCE433EA
:1000C000CB8DF0A42CFCE5F03BF8EE8AF0A42CFCE0
:1000D000E5F038F8E433CF89F0A42CFCE5F038CF14
:1000E0003400CE89F0A42FFFE5F03EFEE433C98D45
:1000F000F0A42EFEE5F039CD8AF0A42FFFE5F03E06
:10010000FEE43DFD33D0E0FB50070BBB000F0201C6
:10011000D4EC2CFCEF33FFEE33FEED33FD0201ACEB
:1001200075F020800E75F010800575F0087D007E5A
:10013000007F003392D530D5031206E0EC33401037
:10014000EF33FFEE33FEED33FDEC33FCD5F0ED2263
:10015000E5F0247EA2D513CC92E7CDCEFF22EDD2DE
:10016000E7CD33EC3392D524814006E4FFFEFDFC5D
:1001700022FCE4CFCECDCC24E0501174FF80EDC33F
:10018000CC13CCCD13CDCE13CECF13CF0470F03023
:10019000D5DE0206E0E9D2E7C933E833F892D5EDBF
:1001A000D2E7CD33EC33FC5002B2D522EC30E7106D
:1001B0000FBF000C0EBE00080DBD00040BEB601459
:1001C000A2D5EB13FCED92E7FD2274FFFCFDFEFFD0
:1001D00022E480F8A2D574FF13FC7D80E480EFF95F
:1001E00020E73624F950037907E4F42402FBE58282
:1001F000158270021583DBF6E024FB501BE96014C6
:10020000E4F0E582158270021583E004F0B40A0878
:10021000E4F0D9EE7401F00A22C2D522ED33EC33BA
:1002200092D5FA602AB4FF33EDC2E77BFF60067A0D
:10023000027941E4227A02794A20D5047A0279458A
:10024000224E614E002B494E46002D494E4600E499
:100250007A08F0A3DAFC7B00740722C083C082EC2A
:10026000C0E0EDC0E0EEC0E0EFC0E0EA75F010A441
:10027000CAABF075F04DA42BFBE435F0FCEA24107A
:10028000FAEB34C5FBEC34D9FCEDC2E7FF75F05650
:10029000A4F42411C5F0F434C58FF0A42AE5F03B92
:1002A000E43CF020E7141204E9D0E0FFD0E0FED0F7
:1002B000E0FDD0E0FC12041C8014F4041204E9D028
:1002C000E0FFD0E0FED0E0FDD0E0FC12001AD082CA
:1002D000D083E0FAEDD2E7CD33EC332482FBE4C3E4
:1002E000CF33CFCE33CECD33CD33DBF37B0775F0B9
:1002F0000A846004F0A31B0AE5F0F0A38FF0740AEF
:10030000A4FFACF08EF0740AA42CFEACF050010CEB
:100310008DF0740AA42CFDE435F0F0A3DBDE740745
:10032000220201CAE86480F8E933E833601104600E
:10033000F0ED33EC337009E8FCE9FDEAFEEBFF2257
:100340000460DED3EB9FEA9EE99DE8C2E78CF0C231
:10035000F795F0400CE8CCF8E9CDF9EACEFAEBCF0E
:10036000FB12019585D0F05804700320D5B3E80442
:1003700070075002B2D50201D492D5EC0460F7E4C4
:10038000CCC0E0C398F8603B94186008400DD0E002
:10039000FB0201ACE4FBFAC9FC8028E830E406E487
:1003A000C9FBE4CAFCE830E305E4C9CACBFCE85465
:1003B000076010F8C3E913F9EA13FAEB13FBEC1327
:1003C000FCD8F130F52FC3E49CFCEF9BFFEE9AFEC6
:1003D000ED99FDD0E0FBEF4E4D4C701222DB030295
:1003E00001D1EC2CFCEF33FFEE33FEED33FDED30AD
:1003F000E7EB0201ACEF2BFFEE3AFEED39FDD0E06A
:10040000FB50130BBB00030201D4ED13FDEE13FEF2
:10041000EF13FFEC13FC0201AC0201D4EC5D0460AD
:1004200005E8590470030201CA120195580460F6E8
:10043000EC4860F2EC7004FDFEFF22C860DB248112
:10044000C85009C398600250060201D19850CAF5FD
:1004500082E9294B4A7005AB820201C075F0007C2D
:100460001A7880C3EF9BEE9AED99400DC3EF9BFF86
:10047000EE9AFEED99FDE842F0DC23ACF0D0E0FF0F
:10048000D0E0FED0E0FDAB8220E7101BEB60BAECC1
:100490002CFCEF33FFEE33FEED33FD0201ACE8033D
:1004A000F830E705C0F075F000EF2FFFEE33FEEDFA
:1004B00033FD40B830E7C280AA3F800000412000F1
:1004C0000042C80000447A0000461C400047C35068
:1004D00000497424004B1896804CBEBC205A0E1B59
:1004E000CA6753C21C749DC5AEFB60065407601CEE
:1004F0002323120517EB5438600912050312051265
:1005000012001AECF8EDF9EEFAEFCB22EB1205121D
:1005100080F1543803241C9004B9FE93FC0EEE9332
:10052000FD0EEE930ECE93FF22BB010689828A83D5
:10053000E0225002E722BBFE02E32289828A83E4A2
:100540009322BB010CE58229F582E5833AF583E02D
:10055000225006E92582F8E622BBFE06E92582F84C
:10056000E222E58229F582E5833AF583E49322BB12
:10057000010689828A83F0225002F722BBFE01F332
:1005800022EF8DF0A4A8F0CF8CF0A428CE8DF0A49B
:100590002EFE22C5F0F8A3E028F0C5F0F8E582159C
:1005A0008270021583E038F022EF2BFFEE3AFEED69
:1005B00039FDEC38FC22E88FF0A4CC8BF0A42CFCA5
:1005C000E98EF0A42CFC8AF0EDA42CFCEA8EF0A4B9
:1005D000CDA8F08BF0A42DCC3825F0FDE98FF0A448
:1005E0002CCD35F0FCEB8EF0A4FEA9F0EB8FF0A43F
:1005F000CFC5F02ECD39FEE43CFCEAA42DCE35F07B
:10060000FDE43CFC2275F008758200EF2FFFEE330D
:10061000FECD33CDCC33CCC58233C5829BED9AEC75
:1006200099E58298400CF582EE9BFEED9AFDEC99DF
:10063000FC0FD5F0D6E4CEFBE4CDFAE4CCF9A882E9
:1006400022B800C1B90059BA002DEC8BF084CFCE8E
:10065000CDFCE5F0CBF97818EF2FFFEE33FEED334C
:10066000FDEC33FCEB33FB10D703994004EB99FB13
:100670000FD8E5E4F9FA227818EF2FFFEE33FEEDFC
:1006800033FDEC33FCC933C910D7059BE99A400709
:10069000EC9BFCE99AF90FD8E0E4C9FAE4CCFB2220
:1006A00075F010EF2FFFEE33FEED33FDCC33CCC8E9
:1006B00033C810D7079BEC9AE899400AED9BFDECF4
:1006C0009AFCE899F80FD5F0DAE4CDFBE4CCFAE433
:1006D000C8F922EF4BFFEE4AFEED49FDEC48FC2243
:1006E000C3E49FFFE49EFEE49DFDE49CFC22E860E1
:1006F0000FECC313FCED13FDEE13FEEF13FFD8F167
:1007000022E8600FEFC333FFEE33FEED33FDEC3331
:10071000FCD8F122BB010789828A8302074E50056B
:10072000E9F8020900BBFE05E9F802090C89828A92
:1007300083020918BB010789828A83020766500574
:10074000E9F8020928BBFE05E9F802093422E0FCB9
:10075000A3E0FDA3E0FEA3E0FF22E0F8A3E0F9A3FD
:10076000E0FAA3E0FB22ECF0A3EDF0A3EEF0A3EFA0
:10077000F022E0FBA3E0FAA3E0F922F8E0FBA3A358
:10078000E0F925F0F0E582158270021583E0FA3871
:10079000F022EBF0A3EAF0A3E9F022E493FB74016A
:1007A00093FA740293F922D083D082F8E493701202
:1007B000740193700DA3A393F8740193F582888359
:1007C000E4737402936860EFA3A3A380DFE51625AA
:1007D00082F582E5153583F583B5150485821622E9
:1007E00010AF06858216F51522858216F515D2AF53
:1007F00022EC8EF0A4CCC5F0CCCDF8EFA4CEC5F0A1
:100800002DFDE43CFCE8A42EC8C5F03DFDE43CFC15
:10081000EFA4FFE5F028FEE43DFDE43CFC22E709FF
:10082000F608DFFA8046E709F208DFFA803E8882A0
:100830008C83E709F0A3DFFA8032E309F608DFFAD8
:10084000806EE309F208DFFA806688828C83E30910
:10085000F0A3DFFA805A89828A83E0A3F608DFFAE0
:10086000804E89828A83E0A3F208DFFA804280D238
:1008700080FA80C680D4805580F28029801080A6BE
:1008800080EA809A80A880DA80E280CA8029888401
:100890008C8589828A83E493A30586F0A30586DF8D
:1008A000F5DEF3800B89828A83E493A3F608DFF9EF
:1008B000ECFAA9F0EDFB2288848C8589828A83E09A
:1008C000A30586F0A30586DFF6DEF480E389828A3D
:1008D00083E493A3F208DFF980D688F0EF60010E7D
:1008E0004E60CD88F0ED2402B4040050C3F582EBD5
:1008F0002402B4040050B9232345822390086E7368
:10090000E6FC08E6FD08E6FE08E6FF22E2FC08E257
:10091000FD08E2FE08E2FF22E493FC740193FD74FB
:100920000293FE740393FF22ECF608EDF608EEF650
:1009300008EFF622ECF208EDF208EEF208EFF222F0
:100940007B007A4679E8121701EF4405FD7B007AB7
:100950004679E812170D751400E514C3940B503A4C
:10096000AF14EF75F005A42441F582E43417F58344
:10097000AF82AE838E088F09AE08AF098F828E8357
:1009800012079BAE08AF098F828E83740393FC74A9
:100990000493FD1215A8051480BF751400E514C357
:1009A00094015078AF14EF75F008A42478F582E430
:1009B0003417F583AF82AE838E0A8F0BAE0AAF0B6E
:1009C0008F828E8312079B8B0C8A0D890EAE0AAF25
:1009D0000B8F828E83A3A3A312079B8B0F8A108990
:1009E00011AE0AAF0B8F828E83740693F5127407D3
:1009F00093F513AB0FAA10A911C003C002C001AB3D
:100A00000CAA0DA90E90010F120792D001D002D0AE
:100A100003AF13AE121213BF051480817B087A0056
:100A2000790012146E7B017A507903121701EF449A
:100A300002FD7B017A50790312170D7B017A507900
:100A400013121701EF4402FD7B017A50791312173C
:100A50000D9043A0E0FFEF4440FF9043A0EFF090E3
:100A600043C2E0FFEF4410FF9043C2EFF07B087AEF
:100A70000679BCC003C002C0017B007A5179129094
:100A8000010F120792D001D002D0037F087E00121E
:100A900013BF7B087A0679C4C003C002C0017B0083
:100AA0007A51794090010F120792D001D002D00301
:100AB0007F0A7E001213BF7B087A0679D0C003C07C
:100AC00002C0017B007A51795090010F120792D039
:100AD00001D002D0037F0A7E001213BF9044F47449
:100AE00001F0904322E0FFEF4408FF904322EFF033
:100AF0009046ECE0FFEFC394055006904689743AA7
:100B0000F090480074F1F0120CFF90480074B1F0BE
:100B10001213897B007A4379A0C003C002C0017B15
:100B2000007A4379B090010F120792D001D002D021
:100B3000037F0E7E001213BF9043B0E0FFEF54FD21
:100B4000FFEFF022C0E0C0F0C083C082C085C08447
:100B5000C086758600C093759300C0D075D000C064
:100B600000C001C002C003C004C005C006C0071217
:100B7000169C900108EFF0900108E0FFEF20E309D8
:100B8000900108E0FFEF30E105D200020CDCC2006A
:100B900012165D900106EEF0A3EFF0900106E0FE64
:100BA000A3E0FFEEFF7E007E00EF54DFFFEF4E601C
:100BB00003020CDC900106E0FEA3E0FF7E00EF5490
:100BC00007FFD3EF9405EE94004003020CC7900199
:100BD00007E0FFEF30E345900106E0FEA3E0FFEE03
:100BE000C4F854F0C868FEEFC4540F48FF7E00EF0D
:100BF000540FFFEF540FFF900106E0FCA3E0FD7CD3
:100C000000ED5407FD74E52DF58274013CF583E099
:100C1000FEEE54F0FEEE4FFFEFF08048900106E04C
:100C2000FEA3E0FFEEC4F854F0C868FEEFC4540F12
:100C300048FF7E00EF540FFFEF540FFFEFC454F056
:100C4000FF900106E0FCA3E0FD7C00ED5407FD747D
:100C5000E52DF58274013CF583E0FEEE540FFEEEC7
:100C60004FFFEFF09001E3E0FFEFB40129900106A0
:100C7000E0FEA3E0FF7E00EF5407FFEF4E701790F9
:100C800001E4E0FFEFD394014004C201802690010B
:100C9000E4E004F0801E900106E0FEA3E0FF7E0089
:100CA000EF5407FFD3EF9401EE94004007D2019078
:100CB00001E4E4F0900106E0FEA3E0FF7E00EF54C3
:100CC00007FF9001E3EFF0900106E0FEA3E0FFEEE6
:100CD000FF7E007E00EF30E503020B90D007D006C8
:100CE000D005D004D003D002D001D000D0D0D09312
:100CF000D086D084D085D082D083D0F0D0E0327B33
:100D0000007A4079807D197C001216F2904082743E
:100D100018F07B007A4079847D4D7C001216F290A9
:100D200040867418F07B007A4079887D387C011207
:100D300016F290408A7418F07B007A40798C7DBF5F
:100D40007C5D1216F290408E7418F090430074028D
:100D5000F09040007408F09042007403F07B0C7A2D
:100D60000179081217019046A1EFF07B007A4279D1
:100D7000227D087C001216F27B007A4279207D5198
:100D80007C121216F290010EE4F07F197E007D00B5
:100D90007C0090010A12076690010A12074ED3EFF9
:100DA0009400EE9400404E90010EE0FFEF6403606B
:100DB00044904225E0FFEF5401FF7E0090010EE0D9
:100DC000FEEE25E0FEEE4FFFEF5403FF90010EEF25
:100DD000F07FE07E017D007C0012140090010A1279
:100DE000074E7BFF7AFF79FF78FF1205A990010A71
:100DF00012076680A390010A12074EEF4E70057F1E
:100E0000031216B07B007A4079047D007C01121633
:100E1000F29040047407F0904006E4F090400874AB
:100E200048F0904004E4F09040017402F09043A236
:100E3000E0FFEF440FFF9043A2EFF022C0E0C08339
:100E4000C082C085C084C086758600C0937593003B
:100E5000C0D075D000C006C00790018FE4F0A2AFEB
:100E6000E433FF900190EFF0D2AF9044F474FDF0C2
:100E7000906462E0FF90018EEFF090018EE0FF90B1
:100E8000018DEFF090018EE0FFEF541EFF7E00EF2A
:100E90004E6016900002E0FF90018EE0FEEE541EC0
:100EA000FEEF4EFF900002EFF090018EE0FFEF307A
:100EB000E566906441E0FF90018DEFF090018DE0D8
:100EC000FF900104E0FE74052EF582E43400F58302
:100ED000EFF090018F7401F090018FE0FFEF603828
:100EE000900003E0FFEF60069000017401F09001B4
:100EF00004E004F0900104E0FFEFC394FF4005908C
:100F00000104E4F0900004E0FF900104E0FEEEB57F
:100F100007069000037401F090018EE0FFEF30E5CA
:100F200003020E70900190E0FFEF24FF92AFD00714
:100F3000D006D0D0D093D086D084D085D082D08334
:100F4000D0E03275930078007583467582E8E044FE
:100F500001F0009046ECE0F99046FAE0FAB903227D
:100F60005420B40012B8001AEA900FFFF0740190F8
:100F70000FFEF09046F6F0900FFEE06005900FFF38
:100F8000E0FA90480074C0F075812090000078006D
:100F90007910E4F0A3D8FCD9FAEA9001DEF002005F
:100FA0001175150F7516FD120940020FE802102D7C
:100FB000E493A3F8E493A34003F68001F208DFF47E
:100FC0008029E493A3F85407240CC8C333C4540FF6
:100FD0004420C8834004F456800146F6DFE4800BC9
:100FE000010204081020408090130AE47E019360FF
:100FF000BCA3FF543F30E509541FFEE493A36001F6
:101000000ECF54C025E060A840B8E493A3FAE4935F
:10101000A3F8E493A3C8C582C8CAC583CAF0A3C80D
:10102000C582C8CAC583CADFE9DEE780BE90010A6F
:101030007401F090010B7401F090010CE4F0A3E452
:10104000F0D2AF9044F474FDF07E147FC5121534D5
:101050001216331216C27FE87E037D007C00121147
:10106000FD12173C50FB121719120529FFEF13133D
:1010700013541FFFEF30E0EE9001F0E0FFEFB401FA
:10108000F7121719C003C002C0017B017A017972FF
:10109000A801AC02AD03D001D002D0037E007F06D0
:1010A0001208DA900173E0FFEF30E52490010AE0C6
:1010B000FFEF602290010BE0FFEF600790010BE46F
:1010C000F0800690010B7401F090010AE4F08006B4
:1010D00090010A7401F090010BE0FFEF600B7D00BE
:1010E0007C007F0412117D80097D1E7C007F04122C
:1010F000117D9001F0E4F002107822900178EFF079
:10110000900179ECF0A3EDF0900178E0FFEFD3943B
:101110001F5003D38001C340057F00121672900157
:1011200078E0FFEF541FFF7E00EF25E0FFEE33FE77
:10113000EF2400FFEE3444FEAA06A9077B01121635
:10114000E590017BEEF0A3EFF0900178E0FF7E02E6
:10115000EF8EF0A4FFAEF0EF2400FFEE3444FEAAC1
:1011600006A9077B01900179E0FEA3E0FFAD07AC83
:10117000061216F490017BE0FEA3E0FF22900178B6
:10118000EFF0900179ECF0A3EDF0900179E0FEA38F
:10119000E0FF7C007D1E120581C3744C9FFF741D0F
:1011A0009EFE90017BEEF0A3EFF0900178E0FFEF60
:1011B0004480FF90017EEFF090017BE0FEA3E0FF12
:1011C000EF7807CEA2E713CE13D8F8FFEF547FFFD6
:1011D00090017FEFF090017BE0FEA3E0FFEF547FF2
:1011E000FF900180EFF07B017A01797E7D0312127E
:1011F000C27F017E007D007C001211FD2290FFFC69
:101200001207CD12076685158385168212074ED305
:10121000EF9400EE9480402F9001DF12074E1214DD
:1012200000851583851682C083C08212074EEF2485
:1012300000FFEE3480FEED34FFFDEC34FFFCD08285
:10124000D08312076680BF9001D512074E851583A3
:1012500085168212075A1205B61214009000041265
:1012600007CD22900178EFF0900179EDF0900179AF
:10127000E0FFEFD394075003D38001C340057F0004
:10128000121672900178E0FFEFD3941F5003D380C1
:1012900001C340057F00121672900179E0FFEF5400
:1012A00007FF7E00EF75F020A4FFAEF0900178E01C
:1012B000FEEE541FFE74802EF582E43444F583EF75
:1012C000F02290018712079290018AEDF090018B35
:1012D000E4F0900105E0FFEF602F90018AE0FF90BD
:1012E000018BE0FEEEC39F502090018712077290A1
:1012F000018BE0FFE92FF9E43AFA120529FF1215F4
:101300008F90018BE004F080D1224101E400410183
:1013100005004100020041000400410104004100B9
:101320000300410001004101F1004401DA016E3681
:10133000004401D500005DC04101D9184401DF2EF1
:10134000E000004301EB0000004101F20000121632
:1013500087900178EFF0906491E0FFEF4420FFEF79
:10136000F0906492E0FFEF4410FFEFF09044C074FF
:1013700004F0906596E0FFEF4410FFEFF01215D9EE
:10138000900178E0FF1215C1227B0C7A0179CF120F
:10139000170190010AEFF090010AE0FFEF5407FFF8
:1013A00090586EEFF090010AE0FFEFC4540FFFEF8A
:1013B000540FFF90586FEFF09058767444F02275F8
:1013C0008600EF4E6027EF60010E75930090010FCD
:1013D000E0F595A3E0F585A3E0F5848B938A8389F6
:1013E00082E0A30586F0A31586DFF6DEF4E4F5932C
:1013F000F595229064877472F0906587742AF022C4
:10140000EC4D4E700D78FCEF24E950032840FD228E
:1014100000007BF178DA0000EF28FF78FFEE38FE5D
:10142000ED38FDEC38FC50E7EF2BFFEE38FEED38E1
:10143000FDEC38FC40F222050203047C0E7D3C7F6B
:10144000021210FB7D077F02121263900002E4F08B
:101450009064817472F09064827420F090642274BD
:1014600006F09064327447F0906586E4F022ACEAAE
:10147000ADA08B938A838982E0F96017A3E0F5EA37
:10148000A3E0F5A0A3E060F4FAA3E0F8A3E0F2DAA9
:10149000F8D9E98DA08CEAE4F59322121687900121
:1014A00078EFF0906497E0FFEF4420FFEFF0906555
:1014B00097E0FFEF4410FFEFF01215F0900178E095
:1014C000FF1215C122C0E0C083C082C085C084C0A5
:1014D00086758600C0937593009001F07401F0D07A
:1014E00093D086D084D085D082D083D0E0321216BB
:1014F00087900178EFF0906597E0FFEF4401FFEFF0
:10150000F0906597E0FFEF54FEFFEFF0900178E078
:10151000FF1215C122900178EEF0A3EFF012172709
:10152000900178E0FEA3E0FF1215537F0712160723
:1015300012172022900178EEF0A3EFF012173590E9
:101540000178E0FEA3E0FF1215717F0712161D124D
:10155000172E2290017AEEF0A3EFF07B027A447905
:101560000090017AE0FEA3E0FFAD07AC061216F48E
:101570002290017AEEF0A3EFF07B027A4479069094
:10158000017AE0FEA3E0FFAD07AC061216F422904C
:10159000018CEFF0906566E0FFEF20E2F790018CA0
:1015A000E0FF906446EFF022EC4D6011ED60010C1D
:1015B0008B938A838982E4F0A3DDFCDCFA759300C7
:1015C00022EF54016004D2AF8002C2AFEF5402FF99
:1015D0009044F4E054FD4FF0229043A2E0FFEF442A
:1015E00001FFEFF09043B2E0FFEF4401FFEFF02284
:1015F0009043A2E0FFEF4402FFEFF09043B2E0FF20
:10160000EF4402FFEFF02290017AEFF090017AE0D0
:10161000FFEFC43354E0FF904480EFF02290017A52
:10162000EFF090017AE0FFEFC43354E0FF90448381
:10163000EFF022900105E0FFEF700912143B9001DA
:10164000057401F012134E229001F1E0FFEF7009D2
:101650001213F39001F17401F012149B2212169CE4
:101660007E00EF7D00FC1216D37E00EC4EFEED4FA7
:10167000FF2290FFFF1207CDEFF09046EA7401F0D1
:101680009000011207CD229044F4E0F84402F0E803
:101690005402FF10AF012274014FFF22906567E0F2
:1016A000FFEF547FFF900109EFF0900109E0FF2266
:1016B00090010FEFF090010FE0FF90010FEFF0802D
:1016C000FE221216481214EE7E0B7F4412151512DC
:1016D000172022906547E0FF900109EFF090010983
:1016E000E0FF228B938A838982E0FFA3E0FE75935B
:1016F00000228B938A838982EDF0A3ECF07593002E
:10170000228B938A838982E0759300FF228B938AD0
:10171000838982EDF0759300227B017A0179E522BD
:101720009044C07401F0229044C87401F0229044A7
:10173000C07408F0229044C87408F022A20122323A
:1017400032005100001000512000200051600010B4
:101750000051C000100051F0001001000000800195
:1017600001000F0001140008000140000A00014CB4
:10177000000200015000002001008008063C0080AB
:00000001FF
