:100000000214A7008F828E83E0540100000070F874
:100010002278FFE4F6D8FD021505EC4D6011E849A1
:100020007017ED33EC3304600DE4FCFFFEFD22E9B4
:1000300033E8330470F802024312020E58046009D8
:10004000E4CC2481500628500902024D28400302C6
:10005000024AC0E0EB4A7044B98006D0E0FB0202DD
:1000600039EF4E701CBD8008EBFFEAFEE9FD80EB26
:10007000E98DF0A4FEE5F0020103E9CDF9EAFEEB1B
:10008000FFEF89F0A4FCE5F0CE89F0A42EFFE43563
:10009000F0CD89F0A42DFEE435F08067EF4E7005B9
:1000A000BD80D780C3EF8BF0A4ACF0EE8BF0A42C16
:1000B000FCE435F0F8EF8AF0A42CE5F038FCE433EA
:1000C000CB8DF0A42CFCE5F03BF8EE8AF0A42CFCE0
:1000D000E5F038F8E433CF89F0A42CFCE5F038CF14
:1000E0003400CE89F0A42FFFE5F03EFEE433C98D45
:1000F000F0A42EFEE5F039CD8AF0A42FFFE5F03E06
:10010000FEE43DFD33D0E0FB50070BBB000F0202C5
:100110004DEC2CFCEF33FFEE33FEED33FD020225F8
:1001200074F8CC6480CCC86480C8F58204604FC386
:10013000EB9FF5F0EA9E42F0E99D42F0E89C45F025
:10014000603C501DE5825FFFE582D313CB5BCBF4AF
:100150002B5582FB50280ABA002409B900200880D8
:100160001DE5825BFBE582D313CF5FCFF4C3132F72
:100170005582FF50090EBE00050DBD00010CC3EBFA
:100180009FF5F0EA9E42F0E99D42F0E89C45F06060
:1001900007CC4820E701B3EC2275F020800E75F003
:1001A00010800575F0087D007E007F003392D53009
:1001B000D503120759EC334010EF33FFEE33FEED59
:1001C00033FDEC33FCD5F0ED22E5F0247EA2D5130F
:1001D000CC92E7CDCEFF22EDD2E7CD33EC3392D5F2
:1001E00024814006E4FFFEFDFC22FCE4CFCECDCC12
:1001F00024E0501174FF80EDC3CC13CCCD13CDCED1
:1002000013CECF13CF0470F030D5DE020759E9D2F8
:10021000E7C933E833F892D5EDD2E7CD33EC33FCC0
:100220005002B2D522EC30E7100FBF000C0EBE001A
:10023000080DBD00040BEB6014A2D5EB13FCED928E
:10024000E7FD2274FFFCFDFEFF22E480F8A2D574D6
:10025000FF13FC7D80E480EFF920E73624F950039A
:100260007907E4F42402FBE582158270021583DB32
:10027000F6E024FB501BE96014E4F0E5821582707F
:10028000021583E004F0B40A08E4F0D9EE7401F03A
:100290000A22C2D522ED33EC3392D5FA602AB4FF9C
:1002A00033EDC2E77BFF60067A0279BAE4227A0274
:1002B00079C320D5047A0279BE224E614E002B49C3
:1002C0004E46002D494E4600E47A08F0A3DAFC7B46
:1002D00000740722C083C082ECC0E0EDC0E0EEC035
:1002E000E0EFC0E0EA75F010A4CAABF075F04DA4E1
:1002F0002BFBE435F0FCEA2410FAEB34C5FBEC34BC
:10030000D9FCEDC2E7FF75F056A4F42411C5F0F452
:1003100034C58FF0A42AE5F03BE43CF020E714124A
:100320000562D0E0FFD0E0FED0E0FDD0E0FC12049A
:10033000958014F404120562D0E0FFD0E0FED0E016
:10034000FDD0E0FC12001AD082D083E0FAEDD2E7B3
:10035000CD33EC332482FBE4C3CF33CFCE33CECDC9
:1003600033CD33DBF37B0775F00A846004F0A31B05
:100370000AE5F0F0A38FF0740AA4FFACF08EF074DD
:100380000AA42CFEACF050010C8DF0740AA42CFDD4
:10039000E435F0F0A3DBDE740722020243E8648058
:1003A000F8E933E83360110460F0ED33EC337009A1
:1003B000E8FCE9FDEAFEEBFF220460DED3EB9FEAF6
:1003C0009EE99DE8C2E78CF0C2F795F0400CE8CCBE
:1003D000F8E9CDF9EACEFAEBCFFB12020E85D0F0A8
:1003E0005804700320D5B3E80470075002B2D50258
:1003F000024D92D5EC0460F7E4CCC0E0C398F860FD
:100400003B94186008400DD0E0FB020225E4FBFAA3
:10041000C9FC8028E830E406E4C9FBE4CAFCE83003
:10042000E305E4C9CACBFCE854076010F8C3E9133C
:10043000F9EA13FAEB13FBEC13FCD8F130F52FC3F8
:10044000E49CFCEF9BFFEE9AFEED99FDD0E0FBEF04
:100450004E4D4C701222DB0302024AEC2CFCEF33AF
:10046000FFEE33FEED33FDED30E7EB020225EF2B1F
:10047000FFEE3AFEED39FDD0E0FB50130BBB00035D
:1004800002024DED13FDEE13FEEF13FFEC13FC0221
:10049000022502024DEC5D046005E8590470030278
:1004A000024312020E580460F6EC4860F2EC70044D
:1004B000FDFEFF22C860DB2481C85009C39860029A
:1004C000500602024A9850CAF582E9294B4A700543
:1004D000AB8202023975F0007C1A7880C3EF9BEE84
:1004E0009AED99400DC3EF9BFFEE9AFEED99FDE862
:1004F00042F0DC23ACF0D0E0FFD0E0FED0E0FDAB7A
:100500008220E7101BEB60BAEC2CFCEF33FFEE33DC
:10051000FEED33FD020225E803F830E705C0F07573
:10052000F000EF2FFFEE33FEED33FD40B830E7C2B1
:1005300080AA3F8000004120000042C80000447AA9
:100540000000461C400047C35000497424004B186B
:1005500096804CBEBC205A0E1BCA6753C21C749DA9
:10056000C5AEFB60065407601C2323120590EB54B4
:1005700038600912057C12058B12001AECF8EDF9AF
:10058000EEFAEFCB22EB12058B80F1543803241CDA
:10059000900532FE93FC0EEE93FD0EEE930ECE937D
:1005A000FF22BB010689828A83E0225002E722BB38
:1005B000FE02E32289828A83E49322BB010CE58256
:1005C00029F582E5833AF583E0225006E92582F891
:1005D000E622BBFE06E92582F8E222E58229F582C1
:1005E000E5833AF583E49322BB010689828A83F08E
:1005F000225002F722BBFE01F322EF8DF0A4A8F0F7
:10060000CF8CF0A428CE8DF0A42EFE22C5F0F8A346
:10061000E028F0C5F0F8E582158270021583E03815
:10062000F022EF2BFFEE3AFEED39FDEC38FC22E82C
:100630008FF0A4CC8BF0A42CFCE98EF0A42CFC8AC7
:10064000F0EDA42CFCEA8EF0A4CDA8F08BF0A42D44
:10065000CC3825F0FDE98FF0A42CCD35F0FCEB8EE5
:10066000F0A4FEA9F0EB8FF0A4CFC5F02ECD39FE9B
:10067000E43CFCEAA42DCE35F0FDE43CFC2275F010
:1006800008758200EF2FFFEE33FECD33CDCC33CC97
:10069000C58233C5829BED9AEC99E58298400CF5B2
:1006A00082EE9BFEED9AFDEC99FC0FD5F0D6E4CEE0
:1006B000FBE4CDFAE4CCF9A88222B800C1B9005914
:1006C000BA002DEC8BF084CFCECDFCE5F0CBF978E1
:1006D00018EF2FFFEE33FEED33FDEC33FCEB33FB75
:1006E00010D703994004EB99FB0FD8E5E4F9FA22FF
:1006F0007818EF2FFFEE33FEED33FDEC33FCC933FA
:10070000C910D7059BE99A4007EC9BFCE99AF90FC1
:10071000D8E0E4C9FAE4CCFB2275F010EF2FFFEE2D
:1007200033FEED33FDCC33CCC833C810D7079BEC78
:100730009AE899400AED9BFDEC9AFCE899F80FD5F0
:10074000F0DAE4CDFBE4CCFAE4C8F922EF4BFFEE9B
:100750004AFEED49FDEC48FC22C3E49FFFE49EFE07
:10076000E49DFDE49CFC22E8600FECC313FCED1358
:10077000FDEE13FEEF13FFD8F122E8600FEFC33355
:10078000FFEE33FEED33FDEC33FCD8F122BB010765
:1007900089828A830207C75005E9F8020979BBFEFE
:1007A00005E9F802098589828A83020991BB01075C
:1007B00089828A830207DF5005E9F80209A1BBFE9E
:1007C00005E9F80209AD22E0FCA3E0FDA3E0FEA3E9
:1007D000E0FF22E0F8A3E0F9A3E0FAA3E0FB22ECBB
:1007E000F0A3EDF0A3EEF0A3EFF022E0FBA3E0FA1C
:1007F000A3E0F922F8E0FBA3A3E0F925F0F0E582FD
:10080000158270021583E0FA38F022EBF0A3EAF0CB
:10081000A3E9F022E493FB740193FA740293F922A2
:10082000D083D082F8E4937012740193700DA3A367
:1008300093F8740193F5828883E47374029368607B
:10084000EFA3A3A380DFE5162582F582E5153583A6
:10085000F583B515048582162210AF06858216F53C
:100860001522858216F515D2AF22EC8EF0A4CCC5E8
:10087000F0CCCDF8EFA4CEC5F02DFDE43CFCE8A40F
:100880002EC8C5F03DFDE43CFCEFA4FFE5F028FEDA
:10089000E43DFDE43CFC22E709F608DFFA8046E788
:1008A00009F208DFFA803E88828C83E709F0A3DF33
:1008B000FA8032E309F608DFFA806EE309F208DF16
:1008C000FA806688828C83E309F0A3DFFA805A8974
:1008D000828A83E0A3F608DFFA804E89828A83E069
:1008E000A3F208DFFA804280D280FA80C680D480EA
:1008F0005580F28029801080A680EA809A80A880A6
:10090000DA80E280CA802988848C8589828A83E49F
:1009100093A30586F0A30586DFF5DEF3800B8982BD
:100920008A83E493A3F608DFF9ECFAA9F0EDFB2241
:1009300088848C8589828A83E0A30586F0A3058656
:10094000DFF6DEF480E389828A83E493A3F208DF92
:10095000F980D688F0EF60010E4E60CD88F0ED246E
:1009600002B4040050C3F582EB2402B4040050B971
:1009700023234582239008E773E6FC08E6FD08E69A
:10098000FE08E6FF22E2FC08E2FD08E2FE08E2FFC4
:1009900022E493FC740193FD740293FE740393FFAD
:1009A00022ECF608EDF608EEF608EFF622ECF20877
:1009B000EDF208EEF208EFF22290010AE4F0900165
:1009C0000BE4F090010C7401F090010D7401F090B3
:1009D000010EE4F090010F7401F09001107401F029
:1009E0009001117401F09001127401F090011374E0
:1009F00001F09001147401F09001157401F0900160
:100A000016E4F0A3E4F0900118E4F0A3E4F0D2AF10
:100A10009044F474FDF07E1B7F75121C2C121D4255
:100A2000121DE6121D577FE87E037D007C00121721
:100A300026121E6D50FB121E4A1205A2FFEF131361
:100A400013541FFFEF30E0EE7D7F7F0012188D7D85
:100A5000467F0212188D900264E0FFEFB401F71296
:100A60001E4AC003C002C0017B017A01797EA80141
:100A7000AC02AD03D001D002D0037E007F06120984
:100A80005390017FE0FFEF30E52D90010DE0FFEF87
:100A9000602B90010EE0FFEFB4020790010EE4F02E
:100AA000800E90010EE0FFEF700690010E7402F0D0
:100AB00090010DE4F0800690010D7401F090017F2B
:100AC000E0FFEF30E41D90010CE0FFEF601B9001B0
:100AD0000EE0FFEF700690010E7401F090010CE43F
:100AE000F0800690010C7401F090017FE0FFEF3080
:100AF000E251900111E0FFEF604F90010EE0FFEF37
:100B0000B4020890010E7403F0803190010EE0FFF2
:100B1000EFB4030890010E7402F0802090010EE003
:100B2000FFEFB4060890010E7407F0800F90010EDD
:100B3000E0FFEFB4090690010E7402F0900111E499
:100B4000F080069001117401F090017FE0FFEF301A
:100B5000E040900112E0FFEF603E90010EE0FFEFF9
:100B6000B4030890010E7404F0802090010EE0FFA1
:100B7000EFB4040890010E7403F0800F90010EE0B2
:100B8000FFEFB4070690010E7408F0900112E4F034
:100B900080069001127401F090017FE0FFEF30E3D6
:100BA0002F900113E0FFEF602D90010EE0FFEFB4F6
:100BB000040890010E7405F0800F90010EE0FFEF25
:100BC000B4080690010E7409F0900113E4F0800659
:100BD0009001137401F090017FE0FFEF30E11E906F
:100BE0000114E0FFEF601C90010EE0FFEFB405067A
:100BF00090010E7406F0900114E4F0800690011448
:100C00007401F090017FE0FFEF30E72D90010FE0DD
:100C1000FFEF602B90010EE0FFEF700890010E7463
:100C20000AF0800E90010EE0FFEFB40A0590010E6D
:100C3000E4F090010FE4F0800690010F7401F09051
:100C4000017FE0FFEF30E62F900110E0FFEF602D15
:100C500090010EE0FFEFB4020890010E740BF080DB
:100C60000F90010EE0FFEFB40B0690010E7402F03E
:100C7000900110E4F080069001107401F090010ED4
:100C8000E0FFEF700B121A6990010AE4F0020E9B6C
:100C900090010EE0FFEF6401704390010AE0FFEF66
:100CA00070171219D290010A7401F07F1E7E007D28
:100CB000007C00121726020E9B121A3B7F2C7E012D
:100CC0007D007C001217261219A47F207E037D0070
:100CD0007C0012172690010EE4F0020E9B90010E8C
:100CE000E0FFEFB4022A1219A490010BE0FFEF64B9
:100CF000016003020E9B7F327E007D007C00121794
:100D0000267D7F7F0112188D90010BE4F0020E9B6F
:100D100090010EE0FFEFB4031990010B7401F07D18
:100D20001E7F0112188D7D4B7C007F011216A602DA
:100D30000E9B90010EE0FFEFB4041E7D047C007F4B
:100D4000021216A67D007C007F031216A67DC47CCD
:100D5000FF7F041216A6020E9B90010EE0FFEFB477
:100D600005137D647F0012188D7D877C007F001243
:100D700016A6020E9B90010EE0FFEF640670407D08
:100D8000287F0112188D7D057C007F011216A67D3B
:100D9000D37CFF7F021216A67D057C007F0312160E
:100DA000A67D007C007F041216A67FC87E007D0011
:100DB0007C001217267D7F7F0112188D020E9B90FA
:100DC000010EE0FFEFB407137D1E7F0112188D7D29
:100DD0009C7CFF7F011216A6020E9B90010EE0FF85
:100DE000EFB4081E7D007C007F021216A67D007CF9
:100DF000007F031216A67D1E7C007F041216A60239
:100E00000E9B90010EE0FFEFB4090C7DBA7CFF7FD2
:100E1000001216A6020E9B90010EE0FFEF640A700E
:100E200043121BC5121E4A1205A2FFEFC41313136F
:100E30005401FFEF30E0ED121A97121E4A1205A27C
:100E4000FFEFC4135407FFEF30E0EF121AC5121E74
:100E50004A1205A2FFEFC413135403FFEF20E03B37
:100E600080EC803790010EE0FFEF640B702D7DBAAF
:100E70007CFF7F001216A67DD37CFF7F011216A691
:100E80007DD37CFF7F021216A67D057C007F0312B6
:100E900016A67D2D7C007F041216A6900264E4F055
:100EA000020A56227B007A4679E8121E32EF440588
:100EB000FD7B007A4679E8121E3E751400E514C3E6
:100EC000940B503AAF14EF75F005A42472F582E448
:100ED000341EF583AF82AE838E088F09AE08AF094A
:100EE0008F828E83120814AE08AF098F828E8374AE
:100EF0000393FC740493FD121CA0051480BF7514A9
:100F000000E514C394015078AF14EF75F008A424E1
:100F1000A9F582E4341EF583AF82AE838E0A8F0B6F
:100F2000AE0AAF0B8F828E831208148B0C8A0D8948
:100F30000EAE0AAF0B8F828E83A3A3A31208148B6D
:100F40000F8A108911AE0AAF0B8F828E83740693BD
:100F5000F512740793F513AB0FAA10A911C003C0C3
:100F600002C001AB0CAA0DA90E90010F12080BD004
:100F700001D002D003AF13AE1212193D05148081C7
:100F80007B087A007900121AF37B017A50790312F8
:100F90001E32EF4402FD7B017A507903121E3E7B24
:100FA000017A507913121E32EF4402FD7B017A5010
:100FB0007913121E3E9043A0E0FFEF4440FF9043A0
:100FC000A0EFF09043C2E0FFEF4410FF9043C2EF68
:100FD000F07B087A0679BCC003C002C0017B007AAE
:100FE00051791290010F12080BD001D002D0037F6B
:100FF000087E0012193D7B087A0679C4C003C0023E
:10100000C0017B007A51794090010F12080BD0018A
:10101000D002D0037F0A7E0012193D7B087A067940
:10102000D0C003C002C0017B007A51795090010FFB
:1010300012080BD001D002D0037F0A7E0012193DA6
:101040009044F47401F0904322E0FFEF4408FF90D5
:101050004322EFF09046ECE0FFEFC394055006907A
:101060004689743AF090480074F1F0121263904887
:101070000074B1F01219077B007A4379A0C003C055
:1010800002C0017B007A4379B090010F12080BD0A7
:1010900001D002D0037F0E7E0012193D9043B0E0D4
:1010A000FFEF54FDFFEFF022C0E0C0F0C083C0822C
:1010B000C085C084C086758600C093759300C0D07B
:1010C00075D000C000C001C002C003C004C005C08C
:1010D00006C007121DC0900108EFF0900108E0FF64
:1010E000EF20E309900108E0FFEF30E105D20002B4
:1010F0001240C200121D81900106EEF0A3EFF090A5
:101100000106E0FEA3E0FFEEFF7E007E00EF54DF6D
:10111000FFEF4E6003021240900106E0FEA3E0FFE5
:101120007E00EF5407FFD3EF9405EE9400400302D6
:10113000122B900107E0FFEF30E345900106E0FE3F
:10114000A3E0FFEEC4F854F0C868FEEFC4540F48A3
:10115000FF7E00EF540FFFEF540FFF900106E0FCFD
:10116000A3E0FD7C00ED5407FD745A2DF582740256
:101170003CF583E0FEEE54F0FEEE4FFFEFF08048CA
:10118000900106E0FEA3E0FFEEC4F854F0C868FE4C
:10119000EFC4540F48FF7E00EF540FFFEF540FFFD2
:1011A000EFC454F0FF900106E0FCA3E0FD7C00EDED
:1011B0005407FD745A2DF58274023CF583E0FEEE6F
:1011C000540FFEEE4FFFEFF0900258E0FFEFB40136
:1011D00029900106E0FEA3E0FF7E00EF5407FFEF39
:1011E0004E7017900259E0FFEFD394014004C20102
:1011F0008026900259E004F0801E900106E0FEA3D4
:10120000E0FF7E00EF5407FFD3EF9401EE9400401F
:1012100007D201900259E4F0900106E0FEA3E0FF3E
:101220007E00EF5407FF900258EFF0900106E0FEB9
:10123000A3E0FFEEFF7E007E00EF30E5030210F436
:10124000D007D006D005D004D003D002D001D00002
:10125000D0D0D093D086D084D085D082D083D0F027
:10126000D0E0327B007A4079807D197C00121E1616
:101270009040827418F07B007A4079847D4D7C0028
:10128000121E169040867418F07B007A4079887D93
:10129000387C01121E1690408A7418F07B007A4048
:1012A000798C7D2F7C75121E1690408E7419F090EB
:1012B00043007402F09040007408F0904200740300
:1012C000F07B0C7A017908121E329046A1EFF07B78
:1012D000007A4279227D087C00121E167B007A4239
:1012E00079207D517C12121E1690010EE4F07F19B8
:1012F0007E007D007C0090010A1207DF90010A1237
:1013000007C7D3EF9400EE9400404E90010EE0FF2B
:10131000EF64036044904225E0FFEF5401FF7E003C
:1013200090010EE0FEEE25E0FEEE4FFFEF5403FFCE
:1013300090010EEFF07FE07E017D007C00121A002C
:1013400090010A1207C77BFF7AFF79FF78FF120628
:101350002290010A1207DF80A390010A1207C7EF4B
:101360004E70057F03121DD47B007A4079047D0006
:101370007C01121E169040047407F0904006E4F0C1
:101380009040087448F0904004E4F09040017402EA
:10139000F09043A2E0FFEF440FFF9043A2EFF02252
:1013A000C0E0C083C082C085C084C086758600C08E
:1013B00093759300C0D075D000C006C00790019B04
:1013C000E4F0A2AFE433FF90019CEFF0D2AF904481
:1013D000F474FDF0906462E0FF90019AEFF09001E8
:1013E0009AE0FF900199EFF090019AE0FFEF541E10
:1013F000FF7E00EF4E6016900002E0FF90019AE041
:10140000FEEE541EFEEF4EFF900002EFF090019AA8
:10141000E0FFEF30E566906441E0FF900199EFF066
:10142000900199E0FF900104E0FE74052EF582E43E
:101430003400F583EFF090019B7401F090019BE084
:10144000FFEF6038900003E0FFEF6006900001744A
:1014500001F0900104E004F0900104E0FFEFC39478
:10146000FF4005900104E4F0900004E0FF900104C7
:10147000E0FEEEB507069000037401F090019AE0DB
:10148000FFEF30E5030213D490019CE0FFEF24FF4F
:1014900092AFD007D006D0D0D093D086D084D0855C
:1014A000D082D083D0E03275930078007583467582
:1014B00082E8E04401F0009046ECE0F99046FAE062
:1014C000FAB903225420B40012B8001AEA900FFFB0
:1014D000F07401900FFEF09046F6F0900FFEE06081
:1014E00005900FFFE0FA90480074C0F075812090DD
:1014F000000078007910E4F0A3D8FCD9FAEA900251
:1015000053F002001175150F7516FD120EA4021589
:101510004C0209B9E493A3F8E493A34003F68001D5
:10152000F208DFF48029E493A3F85407240CC8C31D
:1015300033C4540F4420C8834004F456800146F657
:10154000DFE4800B01020408102040809017EBE4D8
:101550007E019360BCA3FF543F30E509541FFEE4B5
:1015600093A360010ECF54C025E060A840B8E49377
:10157000A3FAE493A3F8E493A3C8C582C8CAC583B9
:10158000CAF0A3C8C582C8CAC583CADFE9DEE7803E
:10159000BEC0E0C083C082C085C084C0867586009E
:1015A000C093759300C0D075D000C006C007A2AF2D
:1015B000E433FF90019DEFF0D2AF9044F474FDF05E
:1015C000900204E0FF90019FE0FEEE6F60379064B0
:1015D00064E0FFEF20E22E90019FE0FFEFC39464F0
:1015E000400590019FE4F090019FE0FF74A02FF56B
:1015F00082E43401F583E0FF906444EFF090019FB2
:10160000E004F080BB90019DE0FFEF24FF92AFD09B
:1016100007D006D0D0D093D086D084D085D082D0C9
:1016200083D0E032900184EFF0900185ECF0A3EDDF
:10163000F0900184E0FFEFD3941F5003D38001C3E7
:1016400040057F00121DAB900184E0FFEF541FFFA7
:101650007E00EF25E0FFEE33FEEF2400FFEE344482
:10166000FEAA06A9077B01121E09900187EEF0A3CE
:10167000EFF0900184E0FF7E02EF8EF0A4FFAEF069
:10168000EF2400FFEE3444FEAA06A9077B01900177
:1016900085E0FEA3E0FFAD07AC06121E189001879F
:1016A000E0FEA3E0FF22900184EFF0900185ECF0D2
:1016B000A3EDF0900185E0FEA3E0FF7C007D1E120B
:1016C00005FAC3744C9FFF741D9EFE900187EEF0D7
:1016D000A3EFF0900184E0FFEF4480FF90018AEFD8
:1016E000F0900187E0FEA3E0FFEF7807CEA2E713BA
:1016F000CE13D8F8FFEF547FFF90018BEFF09001ED
:1017000087E0FEA3E0FFEF547FFF90018CEFF07BBA
:10171000017A01798A7D031218457F017E007D00E0
:101720007C001217262290FFFC1208461207DF8564
:1017300015838516821207C7D3EF9400EE9480407C
:101740002F9002541207C7121A008515838516823E
:10175000C083C0821207C7EF2400FFEE3480FEED85
:1017600034FFFDEC34FFFCD082D0831207DF80BF52
:1017700090024A1207C78515838516821207D31275
:10178000062F121A0090000412084622900184EFDE
:10179000F0900185EDF0900185E0FFEFD3940750C4
:1017A00003D38001C340057F00121DAB900184E08C
:1017B000FFEFD3941F5003D38001C340057F001275
:1017C0001DAB900185E0FFEF5407FF7E00EF75F041
:1017D00020A4FFAEF0900184E0FEEE541FFE748062
:1017E0002EF582E43444F583EFF0224202600000DB
:1017F000420262000041025900410105004100021D
:1018000000410004004101040041000300410001C7
:10181000004102050041019F004102040041026AAB
:101820000044024F016E360044024A00005DC04190
:10183000024E184402542EE00000430265000000EE
:1018400041026B000090019312080B900196EDF09D
:10185000900197E4F0900105E0FFEF602F90019672
:10186000E0FF900197E0FEEEC39F5020900193129D
:1018700007EB900197E0FFE92FF9E43AFA1205A28D
:10188000FF121C87900197E004F080D12290018420
:10189000EFF0900185EDF0900184E0FFEF44C0FF90
:1018A000900186EFF09001877402F0900185E0FFCF
:1018B000900188EFF07B017A0179867D031218454B
:1018C0007F017E007D007C0012172622121D96905B
:1018D0000184EFF0906491E0FFEF4420FFEFF0907F
:1018E0006492E0FFEF4410FFEFF09044C07404F006
:1018F000906596E0FFEF4410FFEFF0121CD19001CD
:1019000084E0FF121CB9227B0C7A0179CF121E32BF
:1019100090010AEFF090010AE0FFEF5407FF9058A2
:101920006EEFF090010AE0FFEFC4540FFFEF540F89
:10193000FF90586FEFF09058767444F0227586004F
:10194000EF4E6027EF60010E75930090010FE0F5F8
:1019500095A3E0F585A3E0F5848B938A838982E0E3
:10196000A30586F0A31586DFF6DEF4E4F593F5957E
:10197000227C137DA07F021216247D077F0212179E
:101980008C900002E4F09064817472F09064827430
:1019900020F09064227406F09064327447F09065F1
:1019A00086E4F0227DBA7CFF7F001216A67D057CBE
:1019B000007F011216A67DD37CFF7F021216A67D42
:1019C000057C007F031216A67D007C007F041216A2
:1019D000A6227DBA7CFF7F001216A67DD37CFF7FF6
:1019E000011216A67DA67CFF7F021216A67D057C3D
:1019F000007F031216A67D2D7C007F041216A622FE
:101A0000EC4D4E700D78FCEF24E950032840FD2288
:101A100000007BF178DA0000EF28FF78FFEE38FE57
:101A2000ED38FDEC38FC50E7EF2BFFEE38FEED38DB
:101A3000FDEC38FC40F222050203047DBA7CFF7FF6
:101A4000001216A67DC47CFF7F011216A67D007CC5
:101A5000007F021216A67D057C007F031216A67D6C
:101A6000F17CFF7F041216A6227DBA7CFF7F001254
:101A700016A67D057C007F011216A67D9C7CFF7F4B
:101A8000021216A67D057C007F031216A67D007C3F
:101A9000007F041216A6227DBA7CFF7F001216A6D4
:101AA0007DE27CFF7F011216A67DD37CFF7F0212B0
:101AB00016A67DDD7CFF7F031216A67D2D7C007FA0
:101AC000041216A6227DBA7CFF7F001216A67DB5F1
:101AD0007CFF7F011216A67D007C007F021216A6F5
:101AE0007DD37CFF7F031216A67DD87CFF7F041276
:101AF00016A622ACEAADA08B938A838982E0F960B6
:101B000017A3E0F5EAA3E0F5A0A3E060F4FAA3E0F0
:101B1000F8A3E0F2DAF8D9E98DA08CEAE4F5932293
:101B2000121D96900184EFF0906494E0FFEF441052
:101B3000FFEFF09044D87402F09044C07402F012A9
:101B40001CE8900184E0FF121CB922121D9690013E
:101B500084EFF0906497E0FFEF4420FFEFF0906592
:101B600097E0FFEF4410FFEFF0121CFF900184E0BC
:101B7000FF121CB922C0E0C083C082C085C084C0EF
:101B800086758600C0937593009002647401F0D04E
:101B900093D086D084D085D082D083D0E032121DFD
:101BA00096900184EFF0906597E0FFEF4401FFEF1E
:101BB000F0906597E0FFEF54FEFFEFF0900184E0B6
:101BC000FF121CB9227DD37CFF7F001216A67DBABE
:101BD0007CFF7F021216A67D377C007F031216A6BB
:101BE0007D467C007F041216A6227C157D917F0124
:101BF0001216247D077F0112178C9064237406F05F
:101C00009064337447F09064847402F022900184ED
:101C1000EEF0A3EFF0121E58900184E0FEA3E0FF67
:101C2000121C4B7F07121D16121E5122900184EECA
:101C3000F0A3EFF0121E66900184E0FEA3E0FF1215
:101C40001C697F07121D2C121E5F22900186EEF088
:101C5000A3EFF07B027A447900900186E0FEA3E0D6
:101C6000FFAD07AC06121E1822900186EEF0A3EF1E
:101C7000F07B027A447906900186E0FEA3E0FFAD96
:101C800007AC06121E1822900198EFF0906566E0EE
:101C9000FFEF20E2F7900198E0FF906446EFF0221A
:101CA000EC4D6011ED60010C8B938A838982E4F026
:101CB000A3DDFCDCFA75930022EF54016004D2AF7F
:101CC0008002C2AFEF5402FF9044F4E054FD4FF0A5
:101CD000229043A2E0FFEF4401FFEFF09043B2E017
:101CE000FFEF4401FFEFF0229043A2E0FFEF440436
:101CF000FFEFF09043B2E0FFEF4404FFEFF02290DB
:101D000043A2E0FFEF4402FFEFF09043B2E0FFEFA9
:101D10004402FFEFF022900186EFF0900186E0FF91
:101D2000EFC43354E0FF904480EFF022900186EF3F
:101D3000F0900186E0FFEFC43354E0FF904483EF5E
:101D4000F022900105E0FFEF700912197190010572
:101D50007401F01218CC22900205E0FFEF70091216
:101D60001BEA9002057401F0121B202290026AE027
:101D7000FFEF7009121E2590026A7401F0121B4BCE
:101D800022121DC07E00EF7D00FC121DF77E00ECCC
:101D90004EFEED4FFF229044F4E0F84402F0E85488
:101DA00002FF10AF012274014FFF2290FFFF1208C3
:101DB00046EFF09046EA7401F090000112084622C6
:101DC000906567E0FFEF547FFF900109EFF090010D
:101DD00009E0FF2290010FEFF090010FE0FF90016A
:101DE0000FEFF080FE22121D6C121B9E7E107FA84A
:101DF000121C0D121E5122906547E0FF900109EF61
:101E0000F0900109E0FF228B938A838982E0FFA38F
:101E1000E0FE759300228B938A838982EDF0A3EC18
:101E2000F0759300229064877472F0906587742A2D
:101E3000F0228B938A838982E0759300FF228B9333
:101E40008A838982EDF0759300227B017A02795AA8
:101E5000229044C07401F0229044C87401F0229092
:101E600044C07408F0229044C87408F022A20122F1
:101E7000323200510000100051200020005160005B
:101E8000100051C000100051F0001001000000804F
:101E90000101000F0001140008000140000A0001C8
:101EA0004C000200015000002001008008063C00A8
:011EB00080B1
:00000001FF
