:10000000021136008F828E83E0540100000070F8E8
:100010002278FFE4F6D8FD021194EC4D6011E84916
:100020007017ED33EC3304600DE4FCFFFEFD22E9B4
:1000300033E8330470F802024312020E58046009D8
:10004000E4CC2481500628500902024D28400302C6
:10005000024AC0E0EB4A7044B98006D0E0FB0202DD
:1000600039EF4E701CBD8008EBFFEAFEE9FD80EB26
:10007000E98DF0A4FEE5F0020103E9CDF9EAFEEB1B
:10008000FFEF89F0A4FCE5F0CE89F0A42EFFE43563
:10009000F0CD89F0A42DFEE435F08067EF4E7005B9
:1000A000BD80D780C3EF8BF0A4ACF0EE8BF0A42C16
:1000B000FCE435F0F8EF8AF0A42CE5F038FCE433EA
:1000C000CB8DF0A42CFCE5F03BF8EE8AF0A42CFCE0
:1000D000E5F038F8E433CF89F0A42CFCE5F038CF14
:1000E0003400CE89F0A42FFFE5F03EFEE433C98D45
:1000F000F0A42EFEE5F039CD8AF0A42FFFE5F03E06
:10010000FEE43DFD33D0E0FB50070BBB000F0202C5
:100110004DEC2CFCEF33FFEE33FEED33FD020225F8
:1001200074F8CC6480CCC86480C8F58204604FC386
:10013000EB9FF5F0EA9E42F0E99D42F0E89C45F025
:10014000603C501DE5825FFFE582D313CB5BCBF4AF
:100150002B5582FB50280ABA002409B900200880D8
:100160001DE5825BFBE582D313CF5FCFF4C3132F72
:100170005582FF50090EBE00050DBD00010CC3EBFA
:100180009FF5F0EA9E42F0E99D42F0E89C45F06060
:1001900007CC4820E701B3EC2275F020800E75F003
:1001A00010800575F0087D007E007F003392D53009
:1001B000D503120759EC334010EF33FFEE33FEED59
:1001C00033FDEC33FCD5F0ED22E5F0247EA2D5130F
:1001D000CC92E7CDCEFF22EDD2E7CD33EC3392D5F2
:1001E00024814006E4FFFEFDFC22FCE4CFCECDCC12
:1001F00024E0501174FF80EDC3CC13CCCD13CDCED1
:1002000013CECF13CF0470F030D5DE020759E9D2F8
:10021000E7C933E833F892D5EDD2E7CD33EC33FCC0
:100220005002B2D522EC30E7100FBF000C0EBE001A
:10023000080DBD00040BEB6014A2D5EB13FCED928E
:10024000E7FD2274FFFCFDFEFF22E480F8A2D574D6
:10025000FF13FC7D80E480EFF920E73624F950039A
:100260007907E4F42402FBE582158270021583DB32
:10027000F6E024FB501BE96014E4F0E5821582707F
:10028000021583E004F0B40A08E4F0D9EE7401F03A
:100290000A22C2D522ED33EC3392D5FA602AB4FF9C
:1002A00033EDC2E77BFF60067A0279BAE4227A0274
:1002B00079C320D5047A0279BE224E614E002B49C3
:1002C0004E46002D494E4600E47A08F0A3DAFC7B46
:1002D00000740722C083C082ECC0E0EDC0E0EEC035
:1002E000E0EFC0E0EA75F010A4CAABF075F04DA4E1
:1002F0002BFBE435F0FCEA2410FAEB34C5FBEC34BC
:10030000D9FCEDC2E7FF75F056A4F42411C5F0F452
:1003100034C58FF0A42AE5F03BE43CF020E714124A
:100320000562D0E0FFD0E0FED0E0FDD0E0FC12049A
:10033000958014F404120562D0E0FFD0E0FED0E016
:10034000FDD0E0FC12001AD082D083E0FAEDD2E7B3
:10035000CD33EC332482FBE4C3CF33CFCE33CECDC9
:1003600033CD33DBF37B0775F00A846004F0A31B05
:100370000AE5F0F0A38FF0740AA4FFACF08EF074DD
:100380000AA42CFEACF050010C8DF0740AA42CFDD4
:10039000E435F0F0A3DBDE740722020243E8648058
:1003A000F8E933E83360110460F0ED33EC337009A1
:1003B000E8FCE9FDEAFEEBFF220460DED3EB9FEAF6
:1003C0009EE99DE8C2E78CF0C2F795F0400CE8CCBE
:1003D000F8E9CDF9EACEFAEBCFFB12020E85D0F0A8
:1003E0005804700320D5B3E80470075002B2D50258
:1003F000024D92D5EC0460F7E4CCC0E0C398F860FD
:100400003B94186008400DD0E0FB020225E4FBFAA3
:10041000C9FC8028E830E406E4C9FBE4CAFCE83003
:10042000E305E4C9CACBFCE854076010F8C3E9133C
:10043000F9EA13FAEB13FBEC13FCD8F130F52FC3F8
:10044000E49CFCEF9BFFEE9AFEED99FDD0E0FBEF04
:100450004E4D4C701222DB0302024AEC2CFCEF33AF
:10046000FFEE33FEED33FDED30E7EB020225EF2B1F
:10047000FFEE3AFEED39FDD0E0FB50130BBB00035D
:1004800002024DED13FDEE13FEEF13FFEC13FC0221
:10049000022502024DEC5D046005E8590470030278
:1004A000024312020E580460F6EC4860F2EC70044D
:1004B000FDFEFF22C860DB2481C85009C39860029A
:1004C000500602024A9850CAF582E9294B4A700543
:1004D000AB8202023975F0007C1A7880C3EF9BEE84
:1004E0009AED99400DC3EF9BFFEE9AFEED99FDE862
:1004F00042F0DC23ACF0D0E0FFD0E0FED0E0FDAB7A
:100500008220E7101BEB60BAEC2CFCEF33FFEE33DC
:10051000FEED33FD020225E803F830E705C0F07573
:10052000F000EF2FFFEE33FEED33FD40B830E7C2B1
:1005300080AA3F8000004120000042C80000447AA9
:100540000000461C400047C35000497424004B186B
:1005500096804CBEBC205A0E1BCA6753C21C749DA9
:10056000C5AEFB60065407601C2323120590EB54B4
:1005700038600912057C12058B12001AECF8EDF9AF
:10058000EEFAEFCB22EB12058B80F1543803241CDA
:10059000900532FE93FC0EEE93FD0EEE930ECE937D
:1005A000FF22BB010689828A83E0225002E722BB38
:1005B000FE02E32289828A83E49322BB010CE58256
:1005C00029F582E5833AF583E0225006E92582F891
:1005D000E622BBFE06E92582F8E222E58229F582C1
:1005E000E5833AF583E49322BB010689828A83F08E
:1005F000225002F722BBFE01F322EF8DF0A4A8F0F7
:10060000CF8CF0A428CE8DF0A42EFE22C5F0F8A346
:10061000E028F0C5F0F8E582158270021583E03815
:10062000F022EF2BFFEE3AFEED39FDEC38FC22E82C
:100630008FF0A4CC8BF0A42CFCE98EF0A42CFC8AC7
:10064000F0EDA42CFCEA8EF0A4CDA8F08BF0A42D44
:10065000CC3825F0FDE98FF0A42CCD35F0FCEB8EE5
:10066000F0A4FEA9F0EB8FF0A4CFC5F02ECD39FE9B
:10067000E43CFCEAA42DCE35F0FDE43CFC2275F010
:1006800008758200EF2FFFEE33FECD33CDCC33CC97
:10069000C58233C5829BED9AEC99E58298400CF5B2
:1006A00082EE9BFEED9AFDEC99FC0FD5F0D6E4CEE0
:1006B000FBE4CDFAE4CCF9A88222B800C1B9005914
:1006C000BA002DEC8BF084CFCECDFCE5F0CBF978E1
:1006D00018EF2FFFEE33FEED33FDEC33FCEB33FB75
:1006E00010D703994004EB99FB0FD8E5E4F9FA22FF
:1006F0007818EF2FFFEE33FEED33FDEC33FCC933FA
:10070000C910D7059BE99A4007EC9BFCE99AF90FC1
:10071000D8E0E4C9FAE4CCFB2275F010EF2FFFEE2D
:1007200033FEED33FDCC33CCC833C810D7079BEC78
:100730009AE899400AED9BFDEC9AFCE899F80FD5F0
:10074000F0DAE4CDFBE4CCFAE4C8F922EF4BFFEE9B
:100750004AFEED49FDEC48FC22C3E49FFFE49EFE07
:10076000E49DFDE49CFC22E8600FECC313FCED1358
:10077000FDEE13FEEF13FFD8F122E8600FEFC33355
:10078000FFEE33FEED33FDEC33FCD8F122BB010765
:1007900089828A830207C75005E9F8020979BBFEFE
:1007A00005E9F802098589828A83020991BB01075C
:1007B00089828A830207DF5005E9F80209A1BBFE9E
:1007C00005E9F80209AD22E0FCA3E0FDA3E0FEA3E9
:1007D000E0FF22E0F8A3E0F9A3E0FAA3E0FB22ECBB
:1007E000F0A3EDF0A3EEF0A3EFF022E0FBA3E0FA1C
:1007F000A3E0F922F8E0FBA3A3E0F925F0F0E582FD
:10080000158270021583E0FA38F022EBF0A3EAF0CB
:10081000A3E9F022E493FB740193FA740293F922A2
:10082000D083D082F8E4937012740193700DA3A367
:1008300093F8740193F5828883E47374029368607B
:10084000EFA3A3A380DFE5162582F582E5153583A6
:10085000F583B515048582162210AF06858216F53C
:100860001522858216F515D2AF22EC8EF0A4CCC5E8
:10087000F0CCCDF8EFA4CEC5F02DFDE43CFCE8A40F
:100880002EC8C5F03DFDE43CFCEFA4FFE5F028FEDA
:10089000E43DFDE43CFC22E709F608DFFA8046E788
:1008A00009F208DFFA803E88828C83E709F0A3DF33
:1008B000FA8032E309F608DFFA806EE309F208DF16
:1008C000FA806688828C83E309F0A3DFFA805A8974
:1008D000828A83E0A3F608DFFA804E89828A83E069
:1008E000A3F208DFFA804280D280FA80C680D480EA
:1008F0005580F28029801080A680EA809A80A880A6
:10090000DA80E280CA802988848C8589828A83E49F
:1009100093A30586F0A30586DFF5DEF3800B8982BD
:100920008A83E493A3F608DFF9ECFAA9F0EDFB2241
:1009300088848C8589828A83E0A30586F0A3058656
:10094000DFF6DEF480E389828A83E493A3F208DF92
:10095000F980D688F0EF60010E4E60CD88F0ED246E
:1009600002B4040050C3F582EB2402B4040050B971
:1009700023234582239008E773E6FC08E6FD08E69A
:10098000FE08E6FF22E2FC08E2FD08E2FE08E2FFC4
:1009900022E493FC740193FD740293FE740393FFAD
:1009A00022ECF608EDF608EEF608EFF622ECF20877
:1009B000EDF208EEF208EFF2227B007A4679E812B7
:1009C00015F4EF4405FD7B007A4679E81219DF75CE
:1009D0001400E514C3940B503AAF14EF75F005A45E
:1009E0002413F582E4341AF583AF82AE838E088F28
:1009F00009AE08AF098F828E83120814AE08AF09C2
:100A00008F828E83740393FC740493FD12184D053A
:100A10001480BF751400E514C394015078AF14EF2F
:100A200075F008A4244AF582E4341AF583AF82AE47
:100A3000838E0A8F0BAE0AAF0B8F828E831208143F
:100A40008B0C8A0D890EAE0AAF0B8F828E83A3A307
:100A5000A31208148B0F8A108911AE0AAF0B8F8274
:100A60008E83740693F512740793F513AB0FAA10D7
:100A7000A911C003C002C001AB0CAA0DA90E9001C0
:100A80000F12080BD001D002D003AF13AE12121513
:100A90008D051480817B087A0079001216C57B01D0
:100AA0007A5079031215F4EF4402FD7B017A5079F4
:100AB000031219DF7B017A5079131215F4EF440207
:100AC000FD7B017A5079131219DF9043A0E0FFEF0C
:100AD0004440FF9043A0EFF09043C2E0FFEF44108A
:100AE000FF9043C2EFF07B087A0679BCC003C002D6
:100AF000C0017B007A51791290010F12080BD001CE
:100B0000D002D0037F087E0012158D7B087A06790B
:100B1000C4C003C002C0017B007A51794090010F2C
:100B200012080BD001D002D0037F0A7E0012158D6F
:100B30007B087A0679D0C003C002C0017B007A51DD
:100B4000795090010F12080BD001D002D0037F0A18
:100B50007E0012158D9044F47401F0904322E0FF62
:100B6000EF4408FF904322EFF09046ECE0FFEFC324
:100B700094055006904689743AF090480074F1F05C
:100B8000120EF290480074B1F01215577B007A43B0
:100B900079A0C003C002C0017B007A4379B0900104
:100BA0000F12080BD001D002D0037F0E7E00121569
:100BB0008D9043B0E0FFEF54FDFFEFF022C0E0C0A6
:100BC000F0C083C082C085C084C086758600C09393
:100BD000759300C0D075D000C000C001C002C00332
:100BE000C004C005C006C00712196D900108EFF0DF
:100BF000900108E0FFEF20E309900108E0FFEF30EB
:100C0000E105D200020D55C20012192E900106EE28
:100C1000F0A3EFF0900106E0FEA3E0FFEEFF7E0000
:100C20007E00EF54DFFFEF4E6003020D559001068A
:100C3000E0FEA3E0FF7E00EF5407FFD3EF9405EE44
:100C400094004003020D40900107E0FFEF30E345C0
:100C5000900106E0FEA3E0FFEEC4F854F0C868FE81
:100C6000EFC4540F48FF7E00EF540FFFEF540FFF07
:100C7000900106E0FCA3E0FD7C00ED5407FD7453F9
:100C80002DF58274023CF583E0FEEE54F0FEEE4F4B
:100C9000FFEFF08048900106E0FEA3E0FFEEC4F80D
:100CA00054F0C868FEEFC4540F48FF7E00EF540FA5
:100CB000FFEF540FFFEFC454F0FF900106E0FCA3D8
:100CC000E0FD7C00ED5407FD74532DF58274023C69
:100CD000F583E0FEEE540FFEEE4FFFEFF090025171
:100CE000E0FFEFB40129900106E0FEA3E0FF7E00E3
:100CF000EF5407FFEF4E7017900252E0FFEFD394CE
:100D0000014004C2018026900252E004F0801E904F
:100D10000106E0FEA3E0FF7E00EF5407FFD3EF944F
:100D200001EE94004007D201900252E4F0900106D7
:100D3000E0FEA3E0FF7E00EF5407FF900251EFF0CA
:100D4000900106E0FEA3E0FFEEFF7E007E00EF30A4
:100D5000E503020C09D007D006D005D004D003D09B
:100D600002D001D000D0D0D093D086D084D085D00E
:100D700082D083D0F0D0E03290010AE4F090010BF1
:100D80007401F090010C7401F090010D7401F09069
:100D9000010E7401F090010FE4F0A3E4F090011152
:100DA000E4F0A3E4F0D2AF9044F474FDF07E177F3A
:100DB000471217D91218EF1219931219047FE87EFF
:100DC000037D007C001213B5121A0E50FB1219EBB2
:100DD0001205A2FFEF131313541FFFEF30E0EE9044
:100DE000025DE0FFEFB401F71219EBC003C002C0CF
:100DF000017B017A017977A801AC02AD03D001D063
:100E000002D0037E007F06120953900178E0FFEFC5
:100E100030E52490010CE0FFEF602290010DE0FF2F
:100E2000EF600790010DE4F0800690010D7401F071
:100E300090010CE4F0800690010C7401F0900178B0
:100E4000E0FFEF30E42490010BE0FFEF602290011F
:100E50000EE0FFEF600790010EE4F0800690010EB7
:100E60007401F090010BE4F0800690010B7401F026
:100E700090010EE0FFEF703E7D007C007F001213BA
:100E8000357D197C007F011213357D927CFF7F0236
:100E90001213357DF67CFF7F031213357DF67CFF40
:100EA0007F041213357F507E007D007C001213B545
:100EB00090010E7401F090010DE0FFEF600A121630
:100EC0009790010AE4F0802190010AE0FFEF70168C
:100ED00012163B90010A7401F07F1E7E007D007C9B
:100EE000001213B5800312166990025DE4F0020D42
:100EF000DF227B007A4079807D197C001219C39033
:100F000040827418F07B007A4079847D4D7C001219
:100F100019C39040867418F07B007A4079887D3838
:100F20007C011219C390408A7418F07B007A4079D2
:100F30008C7D2F7C751219C390408E7419F09043EC
:100F4000007402F09040007408F09042007403F0C6
:100F50007B0C7A0179081215F49046A1EFF07B0022
:100F60007A4279227D087C001219C37B007A42798B
:100F7000207D517C121219C390010EE4F07F197E7E
:100F8000007D007C0090010A1207DF90010A120721
:100F9000C7D3EF9400EE9400404E90010EE0FFEFB7
:100FA00064036044904225E0FFEF5401FF7E00900F
:100FB000010EE0FEEE25E0FEEE4FFFEF5403FF9042
:100FC000010EEFF07FE07E017D007C0012160090A4
:100FD000010A1207C77BFF7AFF79FF78FF1206220A
:100FE00090010A1207DF80A390010A1207C7EF4E93
:100FF00070057F031219817B007A4079047D007CA3
:10100000011219C39040047407F0904006E4F09078
:1010100040087448F0904004E4F09040017402F0FD
:101020009043A2E0FFEF440FFF9043A2EFF022C0F5
:10103000E0C083C082C085C084C086758600C0932E
:10104000759300C0D075D000C006C007900194E42D
:10105000F0A2AFE433FF900195EFF0D2AF9044F4EB
:1010600074FDF0906462E0FF900193EFF0900193C3
:10107000E0FF900192EFF0900193E0FFEF541EFF2C
:101080007E00EF4E6016900002E0FF900193E0FEBC
:10109000EE541EFEEF4EFF900002EFF0900193E041
:1010A000FFEF30E566906441E0FF900192EFF09031
:1010B0000192E0FF900104E0FE74052EF582E43415
:1010C00000F583EFF09001947401F0900194E0FF3B
:1010D000EF6038900003E0FFEF60069000017401BC
:1010E000F0900104E004F0900104E0FFEFC394FFEE
:1010F0004005900104E4F0900004E0FF900104E05A
:10110000FEEEB507069000037401F0900193E0FF36
:10111000EF30E503021063900195E0FFEF24FF92AA
:10112000AFD007D006D0D0D093D086D084D085D091
:1011300082D083D0E0327593007800758346758243
:10114000E8E04401F0009046ECE0F99046FAE0FA5D
:10115000B903225420B40012B8001AEA900FFFF02D
:101160007401900FFEF09046F6F0900FFEE06005DF
:10117000900FFFE0FA90480074C0F0758120900055
:101180000078007910E4F0A3D8FCD9FAEA90024C78
:10119000F002001175150F7516FD1209B90211DB69
:1011A000020D78E493A3F8E493A34003F68001F2E0
:1011B00008DFF48029E493A3F85407240CC8C33350
:1011C000C4540F4420C8834004F456800146F6DF1F
:1011D000E4800B010204081020408090147AE47E21
:1011E000019360BCA3FF543F30E509541FFEE49314
:1011F000A360010ECF54C025E060A840B8E493A3DB
:10120000FAE493A3F8E493A3C8C582C8CAC583CA05
:10121000F0A3C8C582C8CAC583CADFE9DEE780BEBD
:10122000C0E0C083C082C085C084C086758600C00F
:1012300093759300C0D075D000C006C007A2AFE47C
:1012400033FF900196EFF0D2AF9044F474FDF0902C
:1012500001FDE0FF900198E0FEEE6F60379064645E
:10126000E0FFEF20E22E900198E0FFEFC39464408E
:1012700005900198E4F0900198E0FF74992FF582B1
:10128000E43401F583E0FF906444EFF0900198E0CE
:1012900004F080BB900196E0FFEF24FF92AFD007EF
:1012A000D006D0D0D093D086D084D085D082D083C1
:1012B000D0E03290017DEFF090017EECF0A3EDF0F4
:1012C00090017DE0FFEFD3941F5003D38001C34012
:1012D000057F0012194390017DE0FFEF541FFF7E50
:1012E00000EF25E0FFEE33FEEF2400FFEE3444FE76
:1012F000AA06A9077B011219B6900180EEF0A3EFB0
:10130000F090017DE0FF7E02EF8EF0A4FFAEF0EFE3
:101310002400FFEE3444FEAA06A9077B0190017E5B
:10132000E0FEA3E0FFAD07AC061219C5900180E016
:10133000FEA3E0FF2290017DEFF090017EECF0A390
:10134000EDF090017EE0FEA3E0FF7C007D1E120523
:10135000FAC3744C9FFF741D9EFE900180EEF0A3B3
:10136000EFF090017DE0FFEF4480FF900183EFF00C
:10137000900180E0FEA3E0FFEF7807CEA2E713CE56
:1013800013D8F8FFEF547FFF900184EFF0900180B5
:10139000E0FEA3E0FFEF547FFF900185EFF07B01BB
:1013A0007A0179837D031214D47F017E007D007C55
:1013B000001213B52290FFFC1208461207DF8515B4
:1013C000838516821207C7D3EF9400EE9480402FD6
:1013D00090024D1207C7121600851583851682C02C
:1013E00083C0821207C7EF2400FFEE3480FEED3485
:1013F000FFFDEC34FFFCD082D0831207DF80BF906A
:1014000002431207C78515838516821207D3120679
:101410002F1216009000041208462290017DEFF072
:1014200090017EEDF090017EE0FFEFD39407500332
:10143000D38001C340057F0012194390017DE0FF76
:10144000EFD3941F5003D38001C340057F001219CE
:101450004390017EE0FFEF5407FF7E00EF75F02020
:10146000A4FFAEF090017DE0FEEE541FFE74802ECE
:10147000F582E43444F583EFF02242025900004241
:10148000025B0000410252004101050041000200E0
:10149000410004004101040041000300410001003B
:1014A0004101FE00410198004101FD00410263003D
:1014B000440248016E360044024300005DC0410210
:1014C000471844024D2EE0000043025E0000004138
:1014D0000264000090018C12080B90018FEDF090D7
:1014E0000190E4F0900105E0FFEF602F90018FE0A4
:1014F000FF900190E0FEEEC39F502090018C1207F8
:10150000EB900190E0FFE92FF9E43AFA1205A2FF0F
:10151000121834900190E004F080D12212195890F2
:10152000017DEFF0906491E0FFEF4420FFEFF09039
:101530006492E0FFEF4410FFEFF09044C07404F0B9
:10154000906596E0FFEF4410FFEFF012187E9001D7
:101550007DE0FF121866227B0C7A0179CF1215F418
:1015600090010AEFF090010AE0FFEF5407FF905856
:101570006EEFF090010AE0FFEFC4540FFFEF540F3D
:10158000FF90586FEFF09058767444F02275860003
:10159000EF4E6027EF60010E75930090010FE0F5AC
:1015A00095A3E0F585A3E0F5848B938A838982E097
:1015B000A30586F0A31586DFF6DEF4E4F593F59532
:1015C000227C107D2F7F021212B37D077F0212143E
:1015D0001B900002E4F09064817472F09064827455
:1015E00020F09064227406F09064327447F09065A5
:1015F00086E4F0228B938A838982E0759300FF2230
:10160000EC4D4E700D78FCEF24E950032840FD228C
:1016100000007BF178DA0000EF28FF78FFEE38FE5B
:10162000ED38FDEC38FC50E7EF2BFFEE38FEED38DF
:10163000FDEC38FC40F222050203047D007C007FB3
:10164000001213357DE77CFF7F011213357DA67CE8
:10165000FF7F021213357DF67CFF7F031213357D69
:101660002D7C007F04121335227D007C007F001248
:1016700013357DC47CFF7F011213357D007C007F14
:10168000021213357DF67CFF7F031213357DF17C4A
:10169000FF7F04121335227D007C007F001213357A
:1016A0007D197C007F011213357D927CFF7F021231
:1016B00013357DF67CFF7F031213357D007C007FA0
:1016C0000412133522ACEAADA08B938A838982E0A1
:1016D000F96017A3E0F5EAA3E0F5A0A3E060F4FA4F
:1016E000A3E0F8A3E0F2DAF8D9E98DA08CEAE4F5FA
:1016F000932212195890017DEFF0906494E0FFEF6F
:101700004410FFEFF09044D87402F09044C074028B
:10171000F012189590017DE0FF12186622121958F8
:1017200090017DEFF0906497E0FFEF4420FFEFF031
:10173000906597E0FFEF4410FFEFF01218AC9001B6
:101740007DE0FF12186622C0E0C083C082C085C061
:1017500084C086758600C09375930090025D740105
:10176000F0D093D086D084D085D082D083D0E032A0
:1017700012195890017DEFF0906597E0FFEF44015A
:10178000FFEFF0906597E0FFEF54FEFFEFF0900160
:101790007DE0FF121866227C127D207F011212B3B9
:1017A0007D077F0112141B9064237406F09064334C
:1017B0007447F09064847402F02290017DEEF0A3EF
:1017C000EFF01219F990017DE0FEA3E0FF1217F887
:1017D0007F071218C31219F22290017DEEF0A3EFD9
:1017E000F0121A0790017DE0FEA3E0FF1218167FA9
:1017F000071218D9121A002290017FEEF0A3EFF021
:101800007B027A44790090017FE0FEA3E0FFAD0700
:10181000AC061219C52290017FEEF0A3EFF07B0217
:101820007A44790690017FE0FEA3E0FFAD07AC06A5
:101830001219C522900191EFF0906566E0FFEF204C
:10184000E2F7900191E0FF906446EFF022EC4D60EA
:1018500011ED60010C8B938A838982E4F0A3DDFC97
:10186000DCFA75930022EF54016004D2AF8002C20B
:10187000AFEF5402FF9044F4E054FD4FF022904348
:10188000A2E0FFEF4401FFEFF09043B2E0FFEF442E
:1018900001FFEFF0229043A2E0FFEF4404FFEFF0DE
:1018A0009043B2E0FFEF4404FFEFF0229043A2E048
:1018B000FFEF4402FFEFF09043B2E0FFEF4402FF7E
:1018C000EFF02290017FEFF090017FE0FFEFC43353
:1018D00054E0FF904480EFF02290017FEFF0900100
:1018E0007FE0FFEFC43354E0FF904483EFF0229099
:1018F0000105E0FFEF70091215C19001057401F0B8
:1019000012151C229001FEE0FFEF7009121797904C
:1019100001FE7401F01216F222900263E0FFEF70F4
:10192000091219D29002637401F012171D221219C4
:101930006D7E00EF7D00FC1219A47E00EC4EFEEDE2
:101940004FFF2290FFFF120846EFF09046EA740125
:10195000F0900001120846229044F4E0F84402F0AE
:10196000E85402FF10AF012274014FFF2290656717
:10197000E0FFEF547FFF900109EFF0900109E0FFD5
:101980002290010FEFF090010FE0FF90010FEFF0B8
:1019900080FE221219191217707E0B7FBD1217BA22
:1019A0001219F222906547E0FF900109EFF09001D3
:1019B00009E0FF228B938A838982E0FFA3E0FE7512
:1019C0009300228B938A838982EDF0A3ECF07593C8
:1019D00000229064877472F0906587742AF0228BDD
:1019E000938A838982EDF0759300227B017A0279D4
:1019F00053229044C07401F0229044C87401F02234
:101A00009044C07408F0229044C87408F022A201E7
:101A1000223232005100001000512000200051609D
:101A200000100051C000100051F000100100000033
:101A3000800101000F0001140008000140000A00AD
:101A4000014C000200015000002001008008063C0B
:021A5000008014
:00000001FF
