:10000000020F30008F828E83E0540100000070F8F0
:100010002278FFE4F6D8FD020F8EEC4D6011E8491E
:100020007017ED33EC3304600DE4FCFFFEFD22E9B4
:1000300033E8330470F80201CA12019558046009CC
:10004000E4CC248150062850090201D42840030240
:1000500001D1C0E0EB4A7044B98006D0E0FB020158
:10006000C0EF4E701CBD8008EBFFEAFEE9FD80EB9F
:10007000E98DF0A4FEE5F0020103E9CDF9EAFEEB1B
:10008000FFEF89F0A4FCE5F0CE89F0A42EFFE43563
:10009000F0CD89F0A42DFEE435F08067EF4E7005B9
:1000A000BD80D780C3EF8BF0A4ACF0EE8BF0A42C16
:1000B000FCE435F0F8EF8AF0A42CE5F038FCE433EA
:1000C000CB8DF0A42CFCE5F03BF8EE8AF0A42CFCE0
:1000D000E5F038F8E433CF89F0A42CFCE5F038CF14
:1000E0003400CE89F0A42FFFE5F03EFEE433C98D45
:1000F000F0A42EFEE5F039CD8AF0A42FFFE5F03E06
:10010000FEE43DFD33D0E0FB50070BBB000F0201C6
:10011000D4EC2CFCEF33FFEE33FEED33FD0201ACEB
:1001200075F020800E75F010800575F0087D007E5A
:10013000007F003392D530D5031206E0EC33401037
:10014000EF33FFEE33FEED33FDEC33FCD5F0ED2263
:10015000E5F0247EA2D513CC92E7CDCEFF22EDD2DE
:10016000E7CD33EC3392D524814006E4FFFEFDFC5D
:1001700022FCE4CFCECDCC24E0501174FF80EDC33F
:10018000CC13CCCD13CDCE13CECF13CF0470F03023
:10019000D5DE0206E0E9D2E7C933E833F892D5EDBF
:1001A000D2E7CD33EC33FC5002B2D522EC30E7106D
:1001B0000FBF000C0EBE00080DBD00040BEB601459
:1001C000A2D5EB13FCED92E7FD2274FFFCFDFEFFD0
:1001D00022E480F8A2D574FF13FC7D80E480EFF95F
:1001E00020E73624F950037907E4F42402FBE58282
:1001F000158270021583DBF6E024FB501BE96014C6
:10020000E4F0E582158270021583E004F0B40A0878
:10021000E4F0D9EE7401F00A22C2D522ED33EC33BA
:1002200092D5FA602AB4FF33EDC2E77BFF60067A0D
:10023000027941E4227A02794A20D5047A0279458A
:10024000224E614E002B494E46002D494E4600E499
:100250007A08F0A3DAFC7B00740722C083C082EC2A
:10026000C0E0EDC0E0EEC0E0EFC0E0EA75F010A441
:10027000CAABF075F04DA42BFBE435F0FCEA24107A
:10028000FAEB34C5FBEC34D9FCEDC2E7FF75F05650
:10029000A4F42411C5F0F434C58FF0A42AE5F03B92
:1002A000E43CF020E7141204E9D0E0FFD0E0FED0F7
:1002B000E0FDD0E0FC12041C8014F4041204E9D028
:1002C000E0FFD0E0FED0E0FDD0E0FC12001AD082CA
:1002D000D083E0FAEDD2E7CD33EC332482FBE4C3E4
:1002E000CF33CFCE33CECD33CD33DBF37B0775F0B9
:1002F0000A846004F0A31B0AE5F0F0A38FF0740AEF
:10030000A4FFACF08EF0740AA42CFEACF050010CEB
:100310008DF0740AA42CFDE435F0F0A3DBDE740745
:10032000220201CAE86480F8E933E833601104600E
:10033000F0ED33EC337009E8FCE9FDEAFEEBFF2257
:100340000460DED3EB9FEA9EE99DE8C2E78CF0C231
:10035000F795F0400CE8CCF8E9CDF9EACEFAEBCF0E
:10036000FB12019585D0F05804700320D5B3E80442
:1003700070075002B2D50201D492D5EC0460F7E4C4
:10038000CCC0E0C398F8603B94186008400DD0E002
:10039000FB0201ACE4FBFAC9FC8028E830E406E487
:1003A000C9FBE4CAFCE830E305E4C9CACBFCE85465
:1003B000076010F8C3E913F9EA13FAEB13FBEC1327
:1003C000FCD8F130F52FC3E49CFCEF9BFFEE9AFEC6
:1003D000ED99FDD0E0FBEF4E4D4C701222DB030295
:1003E00001D1EC2CFCEF33FFEE33FEED33FDED30AD
:1003F000E7EB0201ACEF2BFFEE3AFEED39FDD0E06A
:10040000FB50130BBB00030201D4ED13FDEE13FEF2
:10041000EF13FFEC13FC0201AC0201D4EC5D0460AD
:1004200005E8590470030201CA120195580460F6E8
:10043000EC4860F2EC7004FDFEFF22C860DB248112
:10044000C85009C398600250060201D19850CAF5FD
:1004500082E9294B4A7005AB820201C075F0007C2D
:100460001A7880C3EF9BEE9AED99400DC3EF9BFF86
:10047000EE9AFEED99FDE842F0DC23ACF0D0E0FF0F
:10048000D0E0FED0E0FDAB8220E7101BEB60BAECC1
:100490002CFCEF33FFEE33FEED33FD0201ACE8033D
:1004A000F830E705C0F075F000EF2FFFEE33FEEDFA
:1004B00033FD40B830E7C280AA3F800000412000F1
:1004C0000042C80000447A0000461C400047C35068
:1004D00000497424004B1896804CBEBC205A0E1B59
:1004E000CA6753C21C749DC5AEFB60065407601CEE
:1004F0002323120517EB5438600912050312051265
:1005000012001AECF8EDF9EEFAEFCB22EB1205121D
:1005100080F1543803241C9004B9FE93FC0EEE9332
:10052000FD0EEE930ECE93FF22BB010689828A83D5
:10053000E0225002E722BBFE02E32289828A83E4A2
:100540009322BB010CE58229F582E5833AF583E02D
:10055000225006E92582F8E622BBFE06E92582F84C
:10056000E222E58229F582E5833AF583E49322BB12
:10057000010689828A83F0225002F722BBFE01F332
:1005800022EF8DF0A4A8F0CF8CF0A428CE8DF0A49B
:100590002EFE22C5F0F8A3E028F0C5F0F8E582159C
:1005A0008270021583E038F022EF2BFFEE3AFEED69
:1005B00039FDEC38FC22E88FF0A4CC8BF0A42CFCA5
:1005C000E98EF0A42CFC8AF0EDA42CFCEA8EF0A4B9
:1005D000CDA8F08BF0A42DCC3825F0FDE98FF0A448
:1005E0002CCD35F0FCEB8EF0A4FEA9F0EB8FF0A43F
:1005F000CFC5F02ECD39FEE43CFCEAA42DCE35F07B
:10060000FDE43CFC2275F008758200EF2FFFEE330D
:10061000FECD33CDCC33CCC58233C5829BED9AEC75
:1006200099E58298400CF582EE9BFEED9AFDEC99DF
:10063000FC0FD5F0D6E4CEFBE4CDFAE4CCF9A882E9
:1006400022B800C1B90059BA002DEC8BF084CFCE8E
:10065000CDFCE5F0CBF97818EF2FFFEE33FEED334C
:10066000FDEC33FCEB33FB10D703994004EB99FB13
:100670000FD8E5E4F9FA227818EF2FFFEE33FEEDFC
:1006800033FDEC33FCC933C910D7059BE99A400709
:10069000EC9BFCE99AF90FD8E0E4C9FAE4CCFB2220
:1006A00075F010EF2FFFEE33FEED33FDCC33CCC8E9
:1006B00033C810D7079BEC9AE899400AED9BFDECF4
:1006C0009AFCE899F80FD5F0DAE4CDFBE4CCFAE433
:1006D000C8F922EF4BFFEE4AFEED49FDEC48FC2243
:1006E000C3E49FFFE49EFEE49DFDE49CFC22E860E1
:1006F0000FECC313FCED13FDEE13FEEF13FFD8F167
:1007000022E8600FEFC333FFEE33FEED33FDEC3331
:10071000FCD8F122BB010789828A8302074E50056B
:10072000E9F8020900BBFE05E9F802090C89828A92
:1007300083020918BB010789828A83020766500574
:10074000E9F8020928BBFE05E9F802093422E0FCB9
:10075000A3E0FDA3E0FEA3E0FF22E0F8A3E0F9A3FD
:10076000E0FAA3E0FB22ECF0A3EDF0A3EEF0A3EFA0
:10077000F022E0FBA3E0FAA3E0F922F8E0FBA3A358
:10078000E0F925F0F0E582158270021583E0FA3871
:10079000F022EBF0A3EAF0A3E9F022E493FB74016A
:1007A00093FA740293F922D083D082F8E493701202
:1007B000740193700DA3A393F8740193F582888359
:1007C000E4737402936860EFA3A3A380DFE51625AA
:1007D00082F582E5153583F583B5150485821622E9
:1007E00010AF06858216F51522858216F515D2AF53
:1007F00022EC8EF0A4CCC5F0CCCDF8EFA4CEC5F0A1
:100800002DFDE43CFCE8A42EC8C5F03DFDE43CFC15
:10081000EFA4FFE5F028FEE43DFDE43CFC22E709FF
:10082000F608DFFA8046E709F208DFFA803E8882A0
:100830008C83E709F0A3DFFA8032E309F608DFFAD8
:10084000806EE309F208DFFA806688828C83E30910
:10085000F0A3DFFA805A89828A83E0A3F608DFFAE0
:10086000804E89828A83E0A3F208DFFA804280D238
:1008700080FA80C680D4805580F28029801080A6BE
:1008800080EA809A80A880DA80E280CA8029888401
:100890008C8589828A83E493A30586F0A30586DF8D
:1008A000F5DEF3800B89828A83E493A3F608DFF9EF
:1008B000ECFAA9F0EDFB2288848C8589828A83E09A
:1008C000A30586F0A30586DFF6DEF480E389828A3D
:1008D00083E493A3F208DFF980D688F0EF60010E7D
:1008E0004E60CD88F0ED2402B4040050C3F582EBD5
:1008F0002402B4040050B9232345822390086E7368
:10090000E6FC08E6FD08E6FE08E6FF22E2FC08E257
:10091000FD08E2FE08E2FF22E493FC740193FD74FB
:100920000293FE740393FF22ECF608EDF608EEF650
:1009300008EFF622ECF208EDF208EEF208EFF222F0
:100940007B007A4679E81217AEEF4405FD7B007A0A
:100950004679E81217BA751400E514C3940B503A9F
:10096000AF14EF75F005A424DCF582E43417F583A9
:10097000AF82AE838E088F09AE08AF098F828E8357
:1009800012079BAE08AF098F828E83740393FC74A9
:100990000493FD121632051480BF751400E514C3CC
:1009A00094015078AF14EF75F008A42413F582E495
:1009B0003418F583AF82AE838E0A8F0BAE0AAF0B6D
:1009C0008F828E8312079B8B0C8A0D890EAE0AAF25
:1009D0000B8F828E83A3A3A312079B8B0F8A108990
:1009E00011AE0AAF0B8F828E83740693F5127407D3
:1009F00093F513AB0FAA10A911C003C002C001AB3D
:100A00000CAA0DA90E90010F120792D001D002D0AE
:100A100003AF13AE12121440051480817B087A00D4
:100A2000790012153B7B017A5079031217AEEF441F
:100A300002FD7B017A5079031217BA7B017A507953
:100A4000131217AEEF4402FD7B017A50791312178F
:100A5000BA9043A0E0FFEF4440FF9043A0EFF09036
:100A600043C2E0FFEF4410FF9043C2EFF07B087AEF
:100A70000679BCC003C002C0017B007A5179129094
:100A8000010F120792D001D002D0037F087E00121E
:100A900014407B087A0679C4C003C002C0017B0001
:100AA0007A51794090010F120792D001D002D00301
:100AB0007F0A7E001214407B087A0679D0C003C0FA
:100AC00002C0017B007A51795090010F120792D039
:100AD00001D002D0037F0A7E001214409044F474C7
:100AE00001F0904322E0FFEF4408FF904322EFF033
:100AF0009046ECE0FFEFC394055006904689743AA7
:100B0000F090480074F1F0120CFF90480074B1F0BE
:100B100012140A7B007A4379A0C003C002C0017B93
:100B2000007A4379B090010F120792D001D002D021
:100B3000037F0E7E001214409043B0E0FFEF54FD9F
:100B4000FFEFF022C0E0C0F0C083C082C085C08447
:100B5000C086758600C093759300C0D075D000C064
:100B600000C001C002C003C004C005C006C0071217
:100B7000173C900108EFF0900108E0FFEF20E30937
:100B8000900108E0FFEF30E105D200020CDCC2006A
:100B90001216FD900106EEF0A3EFF0900106E0FEC4
:100BA000A3E0FFEEFF7E007E00EF54DFFFEF4E601C
:100BB00003020CDC900106E0FEA3E0FF7E00EF5490
:100BC00007FFD3EF9405EE94004003020CC7900199
:100BD00007E0FFEF30E345900106E0FEA3E0FFEE03
:100BE000C4F854F0C868FEEFC4540F48FF7E00EF0D
:100BF000540FFFEF540FFF900106E0FCA3E0FD7CD3
:100C000000ED5407FD744E2DF58274023CF583E02F
:100C1000FEEE54F0FEEE4FFFEFF08048900106E04C
:100C2000FEA3E0FFEEC4F854F0C868FEEFC4540F12
:100C300048FF7E00EF540FFFEF540FFFEFC454F056
:100C4000FF900106E0FCA3E0FD7C00ED5407FD747D
:100C50004E2DF58274023CF583E0FEEE540FFEEE5D
:100C60004FFFEFF090024CE0FFEFB4012990010636
:100C7000E0FEA3E0FF7E00EF5407FFEF4E701790F9
:100C8000024DE0FFEFD394014004C20180269002A0
:100C90004DE004F0801E900106E0FEA3E0FF7E0020
:100CA000EF5407FFD3EF9401EE94004007D2019078
:100CB000024DE4F0900106E0FEA3E0FF7E00EF5459
:100CC00007FF90024CEFF0900106E0FEA3E0FFEE7C
:100CD000FF7E007E00EF30E503020B90D007D006C8
:100CE000D005D004D003D002D001D000D0D0D09312
:100CF000D086D084D085D082D083D0F0D0E0327B33
:100D0000007A4079807D197C00121792904082749D
:100D100018F07B007A4079847D4D7C001217929008
:100D200040867418F07B007A4079887D387C011207
:100D3000179290408A7418F09043007402F090402B
:100D4000007408F09042007403F07B0C7A0179087B
:100D50001217AE9046A1EFF07B007A4279227D080F
:100D60007C001217927B007A4279207D517C12120E
:100D7000179290010EE4F07F197E007D007C0090B8
:100D8000010A12076690010A12074ED3EF9400EE93
:100D90009400404E90010EE0FFEF640360449042E7
:100DA00025E0FFEF5401FF7E0090010EE0FEEE25EE
:100DB000E0FEEE4FFFEF5403FF90010EEFF07FE0F7
:100DC0007E017D007C0012150090010A12074E7B07
:100DD000FF7AFF79FF78FF1205A990010A120766D2
:100DE00080A390010A12074EEF4E70057F03121781
:100DF000507B007A4079047D007C0112179290406C
:100E0000047407F0904006E4F09040087448F090B5
:100E10004004E4F09040017402F09043A2E0FFEF40
:100E20004407FF9043A2EFF022C0E0C083C082C01D
:100E300085C084C086758600C093759300C0D07548
:100E4000D000C006C00790018FE4F0A2AFE433FFEA
:100E5000900190EFF0D2AF9044F474FDF090646292
:100E6000E0FF90018EEFF090018EE0FF90018DEF9A
:100E7000F090018EE0FFEF541EFF7E00EF4E6016F3
:100E8000900002E0FF90018EE0FEEE541EFEEF4E59
:100E9000FF900002EFF090018EE0FFEF30E56690EA
:100EA0006441E0FF90018DEFF090018DE0FF900133
:100EB00004E0FE74052EF582E43400F583EFF09033
:100EC000018F7401F090018FE0FFEF603890000314
:100ED000E0FFEF60069000017401F0900104E0046F
:100EE000F0900104E0FFEFC394FF4005900104E49B
:100EF000F0900004E0FF900104E0FEEEB5070690DC
:100F000000037401F090018EE0FFEF30E503020E64
:100F10005D900190E0FFEF24FF92AFD007D006D0A4
:100F2000D0D093D086D084D085D082D083D0E03208
:100F300075930078007583467582E8E04401F000FF
:100F40009046ECE0F99046FAE0FAB903225420B456
:100F50000012B8001AEA900FFFF07401900FFEF033
:100F60009046F6F0900FFEE06005900FFFE0FA90DB
:100F7000480074C0F075812090000078007910E47A
:100F8000F0A3D8FCD9FAEA900247F00200117515D7
:100F90000F7516FD120940020FD502101AE493A333
:100FA000F8E493A34003F68001F208DFF48029E41B
:100FB00093A3F85407240CC8C333C4540F4420C867
:100FC000834004F456800146F6DFE4800B010204FE
:100FD0000810204080901337E47E019360BCA3FF8B
:100FE000543F30E509541FFEE493A360010ECF5433
:100FF000C025E060A840B8E493A3FAE493A3F8E422
:1010000093A3C8C582C8CAC583CAF0A3C8C582C88D
:10101000CAC583CADFE9DEE780BE90010A7401F029
:1010200090010B7401F090010CE4F0A3E4F0D2AF56
:101030009044F474FDF01216BE1217621216D37F9C
:10104000E87E037D007C001212721217C6C003C036
:1010500002C0017B017A017972A801AC02AD03D014
:1010600001D002D0037E007F061208DA900173E0FF
:10107000FFEF30E52A90010AE0FFEF601C90010BC2
:10108000E0FFEF600790010BE4F0800690010B7425
:1010900001F090010AE4F0800690010A7401F090DA
:1010A000010BE0FFEF60051214A7809E7D007C001D
:1010B0007F001211F27DE27CFF7F011211F27DECC4
:1010C0007CFF7F021211F27DF67CFF7F031211F28A
:1010D0007DE27CFF7F041211F202104A22C0E0C0C0
:1010E00083C082C085C084C086758600C093759316
:1010F00000C0D075D000C006C007A2AFE433FF9097
:101100000191EFF0D2AF9044F474FDF09001F8E05B
:10111000FF900193E0FEEE6F6037906465E0FFEFB3
:1011200020E22E900193E0FFEFC39464400590010C
:1011300093E4F0900193E0FF74942FF582E434017E
:10114000F583E0FF906446EFF0900193E004F080B7
:10115000BB900191E0FFEF24FF92AFD007D006D003
:10116000D0D093D086D084D085D082D083D0E032C6
:10117000900178EFF0900179ECF0A3EDF090017818
:10118000E0FFEFD3941F5003D38001C340057F00DD
:10119000121712900178E0FFEF541FFF7E00EF2539
:1011A000E0FFEE33FEEF2400FFEE3444FEAA06A972
:1011B000077B0112178590017BEEF0A3EFF0900101
:1011C00078E0FF7E02EF8EF0A4FFAEF0EF2400FF88
:1011D000EE3444FEAA06A9077B01900179E0FEA344
:1011E000E0FFAD07AC0612179490017BE0FEA3E090
:1011F000FF22900178EFF0900179ECF0A3EDF090F0
:101200000179E0FEA3E0FF7C007D1E120581C3741E
:101210004C9FFF741D9EFE90017BEEF0A3EFF090BB
:101220000178E0FFEF4480FF90017EEFF090017BBA
:10123000E0FEA3E0FFEF7807CEA2E713CE13D8F8C5
:10124000FFEF547FFF90017FEFF090017BE0FEA362
:10125000E0FFEF547FFF900180EFF07B017A01798E
:101260007E7D031213877F017E007D007C001212B9
:10127000722290FFFC1207CD120766851583851632
:101280008212074ED3EF9400EE9480402F900248D4
:1012900012074E121500851583851682C083C08201
:1012A00012074EEF2400FFEE3480FEED34FFFDEC1C
:1012B00034FFFCD082D08312076680BF90023E12BA
:1012C000074E85158385168212075A1205B6121528
:1012D000009000041207CD22900178EFF090017980
:1012E000EDF0900179E0FFEFD394075003D3800134
:1012F000C340057F00121712900178E0FFEFD394EE
:101300001F5003D38001C340057F001217129001C4
:1013100079E0FFEF5407FF7E00EF75F020A4FFAEE9
:10132000F0900178E0FEEE541FFE74802EF582E40A
:101330003444F583EFF02241024D004101050041A4
:10134000000200410004004101040041000300418B
:101350000001004101F900410193004101F8004101
:10136000025900440243016E360044023E00005D13
:10137000C0410242184402482EE0000043025400DB
:10138000000041025A000090018712079290018AE2
:10139000EDF090018BE4F0900105E0FFEF602F90FD
:1013A000018AE0FF90018BE0FEEEC39F5020900188
:1013B0008712077290018BE0FFE92FF9E43AFA12E5
:1013C0000529FF12161990018BE004F080D122123A
:1013D0001727900178EFF0906491E0FFEF4420FF31
:1013E000EFF0906492E0FFEF4410FFEFF09044C004
:1013F0007404F0906494E0FFEF4410FFEFF01216D5
:1014000063900178E0FF12164B227B0C7A0179CFB2
:101410001217AE90010AEFF090010AE0FFEF5407B7
:10142000FF90586EEFF090010AE0FFEFC4540FFFF9
:10143000EF540FFF90586FEFF09058767444F022FD
:10144000758600EF4E6027EF60010E7593009001E6
:101450000FE0F595A3E0F585A3E0F5848B938A83EF
:101460008982E0A30586F0A31586DFF6DEF4E4F5B5
:1014700093F595227C0E7D297F021211707D077FE6
:10148000021212D8900002E4F09064817472F0901D
:1014900064827420F09064237406F090643374477F
:1014A000F0906484E4F0227D007C007F001211F251
:1014B0007D1E7C007F011211F27DEC7CFF7F021209
:1014C00011F27DF67CFF7F031211F27D007C007F1C
:1014D000041211F222121727900178EFF090649510
:1014E000E0FFEF4410FFEFF09044D87402F0904416
:1014F000C07402F012167A900178E0FF12164B22A7
:10150000EC4D4E700D78FCEF24E950032840FD228D
:1015100000007BF178DA0000EF28FF78FFEE38FE5C
:10152000ED38FDEC38FC50E7EF2BFFEE38FEED38E0
:10153000FDEC38FC40F22205020304ACEAADA08BBE
:10154000938A838982E0F96017A3E0F5EAA3E0F5C6
:10155000A0A3E060F4FAA3E0F8A3E0F2DAF8D9E996
:101560008DA08CEAE4F59322121727900178EFF012
:10157000906496E0FFEF4420FFEFF0906497E0FF67
:10158000EF4410FFEFF0121691900178E0FF121671
:101590004B22121727900178EFF0906597E0FFEF4C
:1015A0004401FFEFF0906597E0FFEF54FEFFEFF08E
:1015B000900178E0FF12164B227C107DDD7F011236
:1015C00011707D077F011212D89064257406F09087
:1015D00064357447F09064857402F022900178EECF
:1015E000F0A3EFF01217D4900178E0FEA3E0FF1211
:1015F00015FB7F071216A81217CD2290017AEEF084
:10160000A3EFF07B027A44790090017AE0FEA3E038
:10161000FFAD07AC061217942290018CEFF0906496
:1016200064E0FFEF20E2F790018CE0FF906444EF6C
:10163000F022EC4D6011ED60010C8B938A8389825E
:10164000E4F0A3DDFCDCFA75930022EF54016004A2
:10165000D2AF8002C2AFEF5402FF9044F4E054FDD9
:101660004FF0229043A2E0FFEF4401FFEFF09043E0
:10167000B2E0FFEF4401FFEFF0229043A2E0FFEF62
:101680004404FFEFF09043B2E0FFEF4404FFEFF0BB
:10169000229043A2E0FFEF4402FFEFF09043B2E05C
:1016A000FFEF4402FFEFF02290017AEFF090017A11
:1016B000E0FFEFC43354E0FF904480EFF02290014C
:1016C00005E0FFEF70091214749001057401F01227
:1016D00013CF229001F9E0FFEF70091215B99001C4
:1016E000F97401F01214D522900259E0FFEF70094D
:1016F0001217A19002597401F01215682212173CBA
:101700007E00EF7D00FC1217737E00EC4EFEED4F65
:10171000FF2290FFFF1207CDEFF09046EA7401F030
:101720009000011207CD229044F4E0F84402F0E862
:101730005402FF10AF012274014FFF22906467E052
:10174000FFEF547FFF900109EFF0900109E0FF22C5
:1017500090010FEFF090010FE0FF90010FEFF0808C
:10176000FE221216E81215927E0B7F441215DC122F
:1017700017CD22906547E0FF900109EFF090010935
:10178000E0FF228B938A838982E0FFA3E0FE7593BA
:1017900000228B938A838982EDF0A3ECF07593008D
:1017A000229064867472F0906487742AF0228B937E
:1017B0008A838982E0759300FF228B938A838982D2
:1017C000EDF0759300227B017A02794E229044C09D
:1017D0007401F0229044C87401F0223200510000DC
:1017E00010005120002000516000100051C0001076
:1017F0000051F0001001000000800101000F000105
:10180000140008000140000A00014C0002000150D1
:0B18100000002001008008063C008062
:00000001FF
