:1000000002175D008F828E83E0540100000070F8BB
:100010002278FFE4F6D8FD0217BBEC4D6011E849E9
:100020007017ED33EC3304600DE4FCFFFEFD22E9B4
:1000300033E8330470F802024312020E58046009D8
:10004000E4CC2481500628500902024D28400302C6
:10005000024AC0E0EB4A7044B98006D0E0FB0202DD
:1000600039EF4E701CBD8008EBFFEAFEE9FD80EB26
:10007000E98DF0A4FEE5F0020103E9CDF9EAFEEB1B
:10008000FFEF89F0A4FCE5F0CE89F0A42EFFE43563
:10009000F0CD89F0A42DFEE435F08067EF4E7005B9
:1000A000BD80D780C3EF8BF0A4ACF0EE8BF0A42C16
:1000B000FCE435F0F8EF8AF0A42CE5F038FCE433EA
:1000C000CB8DF0A42CFCE5F03BF8EE8AF0A42CFCE0
:1000D000E5F038F8E433CF89F0A42CFCE5F038CF14
:1000E0003400CE89F0A42FFFE5F03EFEE433C98D45
:1000F000F0A42EFEE5F039CD8AF0A42FFFE5F03E06
:10010000FEE43DFD33D0E0FB50070BBB000F0202C5
:100110004DEC2CFCEF33FFEE33FEED33FD020225F8
:1001200074F8CC6480CCC86480C8F58204604FC386
:10013000EB9FF5F0EA9E42F0E99D42F0E89C45F025
:10014000603C501DE5825FFFE582D313CB5BCBF4AF
:100150002B5582FB50280ABA002409B900200880D8
:100160001DE5825BFBE582D313CF5FCFF4C3132F72
:100170005582FF50090EBE00050DBD00010CC3EBFA
:100180009FF5F0EA9E42F0E99D42F0E89C45F06060
:1001900007CC4820E701B3EC2275F020800E75F003
:1001A00010800575F0087D007E007F003392D53009
:1001B000D503120759EC334010EF33FFEE33FEED59
:1001C00033FDEC33FCD5F0ED22E5F0247EA2D5130F
:1001D000CC92E7CDCEFF22EDD2E7CD33EC3392D5F2
:1001E00024814006E4FFFEFDFC22FCE4CFCECDCC12
:1001F00024E0501174FF80EDC3CC13CCCD13CDCED1
:1002000013CECF13CF0470F030D5DE020759E9D2F8
:10021000E7C933E833F892D5EDD2E7CD33EC33FCC0
:100220005002B2D522EC30E7100FBF000C0EBE001A
:10023000080DBD00040BEB6014A2D5EB13FCED928E
:10024000E7FD2274FFFCFDFEFF22E480F8A2D574D6
:10025000FF13FC7D80E480EFF920E73624F950039A
:100260007907E4F42402FBE582158270021583DB32
:10027000F6E024FB501BE96014E4F0E5821582707F
:10028000021583E004F0B40A08E4F0D9EE7401F03A
:100290000A22C2D522ED33EC3392D5FA602AB4FF9C
:1002A00033EDC2E77BFF60067A0279BAE4227A0274
:1002B00079C320D5047A0279BE224E614E002B49C3
:1002C0004E46002D494E4600E47A08F0A3DAFC7B46
:1002D00000740722C083C082ECC0E0EDC0E0EEC035
:1002E000E0EFC0E0EA75F010A4CAABF075F04DA4E1
:1002F0002BFBE435F0FCEA2410FAEB34C5FBEC34BC
:10030000D9FCEDC2E7FF75F056A4F42411C5F0F452
:1003100034C58FF0A42AE5F03BE43CF020E714124A
:100320000562D0E0FFD0E0FED0E0FDD0E0FC12049A
:10033000958014F404120562D0E0FFD0E0FED0E016
:10034000FDD0E0FC12001AD082D083E0FAEDD2E7B3
:10035000CD33EC332482FBE4C3CF33CFCE33CECDC9
:1003600033CD33DBF37B0775F00A846004F0A31B05
:100370000AE5F0F0A38FF0740AA4FFACF08EF074DD
:100380000AA42CFEACF050010C8DF0740AA42CFDD4
:10039000E435F0F0A3DBDE740722020243E8648058
:1003A000F8E933E83360110460F0ED33EC337009A1
:1003B000E8FCE9FDEAFEEBFF220460DED3EB9FEAF6
:1003C0009EE99DE8C2E78CF0C2F795F0400CE8CCBE
:1003D000F8E9CDF9EACEFAEBCFFB12020E85D0F0A8
:1003E0005804700320D5B3E80470075002B2D50258
:1003F000024D92D5EC0460F7E4CCC0E0C398F860FD
:100400003B94186008400DD0E0FB020225E4FBFAA3
:10041000C9FC8028E830E406E4C9FBE4CAFCE83003
:10042000E305E4C9CACBFCE854076010F8C3E9133C
:10043000F9EA13FAEB13FBEC13FCD8F130F52FC3F8
:10044000E49CFCEF9BFFEE9AFEED99FDD0E0FBEF04
:100450004E4D4C701222DB0302024AEC2CFCEF33AF
:10046000FFEE33FEED33FDED30E7EB020225EF2B1F
:10047000FFEE3AFEED39FDD0E0FB50130BBB00035D
:1004800002024DED13FDEE13FEEF13FFEC13FC0221
:10049000022502024DEC5D046005E8590470030278
:1004A000024312020E580460F6EC4860F2EC70044D
:1004B000FDFEFF22C860DB2481C85009C39860029A
:1004C000500602024A9850CAF582E9294B4A700543
:1004D000AB8202023975F0007C1A7880C3EF9BEE84
:1004E0009AED99400DC3EF9BFFEE9AFEED99FDE862
:1004F00042F0DC23ACF0D0E0FFD0E0FED0E0FDAB7A
:100500008220E7101BEB60BAEC2CFCEF33FFEE33DC
:10051000FEED33FD020225E803F830E705C0F07573
:10052000F000EF2FFFEE33FEED33FD40B830E7C2B1
:1005300080AA3F8000004120000042C80000447AA9
:100540000000461C400047C35000497424004B186B
:1005500096804CBEBC205A0E1BCA6753C21C749DA9
:10056000C5AEFB60065407601C2323120590EB54B4
:1005700038600912057C12058B12001AECF8EDF9AF
:10058000EEFAEFCB22EB12058B80F1543803241CDA
:10059000900532FE93FC0EEE93FD0EEE930ECE937D
:1005A000FF22BB010689828A83E0225002E722BB38
:1005B000FE02E32289828A83E49322BB010CE58256
:1005C00029F582E5833AF583E0225006E92582F891
:1005D000E622BBFE06E92582F8E222E58229F582C1
:1005E000E5833AF583E49322BB010689828A83F08E
:1005F000225002F722BBFE01F322EF8DF0A4A8F0F7
:10060000CF8CF0A428CE8DF0A42EFE22C5F0F8A346
:10061000E028F0C5F0F8E582158270021583E03815
:10062000F022EF2BFFEE3AFEED39FDEC38FC22E82C
:100630008FF0A4CC8BF0A42CFCE98EF0A42CFC8AC7
:10064000F0EDA42CFCEA8EF0A4CDA8F08BF0A42D44
:10065000CC3825F0FDE98FF0A42CCD35F0FCEB8EE5
:10066000F0A4FEA9F0EB8FF0A4CFC5F02ECD39FE9B
:10067000E43CFCEAA42DCE35F0FDE43CFC2275F010
:1006800008758200EF2FFFEE33FECD33CDCC33CC97
:10069000C58233C5829BED9AEC99E58298400CF5B2
:1006A00082EE9BFEED9AFDEC99FC0FD5F0D6E4CEE0
:1006B000FBE4CDFAE4CCF9A88222B800C1B9005914
:1006C000BA002DEC8BF084CFCECDFCE5F0CBF978E1
:1006D00018EF2FFFEE33FEED33FDEC33FCEB33FB75
:1006E00010D703994004EB99FB0FD8E5E4F9FA22FF
:1006F0007818EF2FFFEE33FEED33FDEC33FCC933FA
:10070000C910D7059BE99A4007EC9BFCE99AF90FC1
:10071000D8E0E4C9FAE4CCFB2275F010EF2FFFEE2D
:1007200033FEED33FDCC33CCC833C810D7079BEC78
:100730009AE899400AED9BFDEC9AFCE899F80FD5F0
:10074000F0DAE4CDFBE4CCFAE4C8F922EF4BFFEE9B
:100750004AFEED49FDEC48FC22C3E49FFFE49EFE07
:10076000E49DFDE49CFC22E8600FECC313FCED1358
:10077000FDEE13FEEF13FFD8F122E8600FEFC33355
:10078000FFEE33FEED33FDEC33FCD8F122BB010765
:1007900089828A830207C75005E9F8020979BBFEFE
:1007A00005E9F802098589828A83020991BB01075C
:1007B00089828A830207DF5005E9F80209A1BBFE9E
:1007C00005E9F80209AD22E0FCA3E0FDA3E0FEA3E9
:1007D000E0FF22E0F8A3E0F9A3E0FAA3E0FB22ECBB
:1007E000F0A3EDF0A3EEF0A3EFF022E0FBA3E0FA1C
:1007F000A3E0F922F8E0FBA3A3E0F925F0F0E582FD
:10080000158270021583E0FA38F022EBF0A3EAF0CB
:10081000A3E9F022E493FB740193FA740293F922A2
:10082000D083D082F8E4937012740193700DA3A367
:1008300093F8740193F5828883E47374029368607B
:10084000EFA3A3A380DFE5162582F582E5153583A6
:10085000F583B515048582162210AF06858216F53C
:100860001522858216F515D2AF22EC8EF0A4CCC5E8
:10087000F0CCCDF8EFA4CEC5F02DFDE43CFCE8A40F
:100880002EC8C5F03DFDE43CFCEFA4FFE5F028FEDA
:10089000E43DFDE43CFC22E709F608DFFA8046E788
:1008A00009F208DFFA803E88828C83E709F0A3DF33
:1008B000FA8032E309F608DFFA806EE309F208DF16
:1008C000FA806688828C83E309F0A3DFFA805A8974
:1008D000828A83E0A3F608DFFA804E89828A83E069
:1008E000A3F208DFFA804280D280FA80C680D480EA
:1008F0005580F28029801080A680EA809A80A880A6
:10090000DA80E280CA802988848C8589828A83E49F
:1009100093A30586F0A30586DFF5DEF3800B8982BD
:100920008A83E493A3F608DFF9ECFAA9F0EDFB2241
:1009300088848C8589828A83E0A30586F0A3058656
:10094000DFF6DEF480E389828A83E493A3F208DF92
:10095000F980D688F0EF60010E4E60CD88F0ED246E
:1009600002B4040050C3F582EB2402B4040050B971
:1009700023234582239008E773E6FC08E6FD08E69A
:10098000FE08E6FF22E2FC08E2FD08E2FE08E2FFC4
:1009900022E493FC740193FD740293FE740393FFAD
:1009A00022ECF608EDF608EEF608EFF622ECF20877
:1009B000EDF208EEF208EFF22290010AE4F0900165
:1009C0000BE4F090010C7401F090010D7401F090B3
:1009D000010EE4F090010F7401F09001107401F029
:1009E0009001117401F09001127401F090011374E0
:1009F00001F09001147401F09001157401F0900160
:100A0000167401F09001177401F09001187401F050
:100A10009001197401F090011AE4F0A3E4F0900140
:100A20001CE4F0A3E4F0D2AF9044F474FDF07E2017
:100A30007F2F1220E61221FC1222A01222117FE841
:100A40007E037D007C00121B74121F7D50FB12225E
:100A5000F71205A2FFEF131313541FFFEF30E0EE60
:100A6000900296E0FFEFB401F71222F7C003C00234
:100A7000C0017B017A017982A801AC02AD03D001EB
:100A8000D002D0037E007F06120953900183E0FF5D
:100A9000EF30E03D900112E0FFEF603B90010EE08F
:100AA000FFEFB4020790010EE4F0801E90010EE00B
:100AB000FFEF700890010E7402F0800E90010EE0BE
:100AC000FFEFB4060590010EE4F0900112E4F0800F
:100AD000069001127401F0900183E0FFEF30E439D9
:100AE00090010CE0FFEF603790010EE0FFEF640132
:100AF000600990010EE0FFEFB40B0890010E740C3A
:100B0000F0800F90010EE0FFEFB4120690010E741A
:100B10000CF090010CE4F0800690010C7401F09050
:100B20000183E0FFEF30E240900111E0FFEF603E13
:100B300090010EE0FFEFB4020890010E7403F08004
:100B40002090010EE0FFEFB4030890010E7402F054
:100B5000800F90010EE0FFEFB4060690010E7407BF
:100B6000F0900111E4F080069001117401F0900101
:100B700083E0FFEF30E348900114E0FFEF60639003
:100B8000010EE0FFEF600990010EE0FFEFB40208F4
:100B900090010E7401F0802090010EE0FFEFB4048C
:100BA0000890010E7405F0800F90010EE0FFEFB485
:100BB000080690010E7409F0900114E4F08023906F
:100BC00001147401F090010EE0FFEFB401059001F3
:100BD0000EE4F090010EE0FFEFB40B0690010E74EE
:100BE00002F0900183E0FFEF30E12E900115E0FF6D
:100BF000EF603A90010EE0FFEF700890010E740A6A
:100C0000F0800F90010EE0FFEFB4050690010E7426
:100C100006F0900115E4F080149001157401F09035
:100C2000010EE0FFEFB40A0590010EE4F09001839D
:100C3000E0FFEF30E75090010FE0FFEF604E9001D2
:100C40000EE0FFEFB40A0890010E740DF0803090B2
:100C5000010EE0FFEF700890010E740EF0802090FE
:100C6000010EE0FFEFB4010890010E740FF0800F49
:100C700090010EE0FFEFB4120690010E740FF09099
:100C8000010FE4F0800690010F7401F0900183E001
:100C9000FFEF30E52F90010DE0FFEF602D90010E8A
:100CA000E0FFEFB4010890010E7410F0800F900186
:100CB0000EE0FFEFB4120690010E7410F090010DDB
:100CC000E4F0800690010D7401F0900182E0FFEFE6
:100CD00030E63F900117E0FFEF604B90010EE0FF20
:100CE000EFB4030890010E7404F0801F90010EE031
:100CF000FFEFB4070890010E7408F0800E90010E0B
:100D0000E0FFEF700690010E7411F0900117E4F00F
:100D100080149001177401F090010EE0FFEFB41100
:100D20000590010EE4F0900182E0FFEF30E12F909A
:100D30000113E0FFEF602D90010EE0FFEFB4040817
:100D400090010E7405F0800F90010EE0FFEFB408E3
:100D50000690010E7409F0900113E4F080069001F2
:100D6000137401F0900182E0FFEF30E41D90011652
:100D7000E0FFEF602990010EE0FFEF700690010E9A
:100D80007412F0900116E4F080149001167401F0D2
:100D900090010EE0FFEFB4120590010EE4F0900117
:100DA00083E0FFEF30E61D900110E0FFEF60299037
:100DB000010EE0FFEF700690010E7413F090010D2C
:100DC000E4F0801490010D7401F090010EE0FFEF4B
:100DD000B4130590010EE4F0900182E0FFEF30E0E3
:100DE0001B7F001218477F011218477F0212184715
:100DF0007F031218477F0412184780E590010EE028
:100E0000FFEF700B121EC590010AE4F00211519021
:100E1000010EE0FFEFB40106121E690211519001AC
:100E20000EE0FFEFB40C24121E977F2C7E017D0094
:100E30007C00121B74121E3B7F207E037D007C0011
:100E4000121B7490010EE4F002115190010EE0FFAC
:100E5000EFB4022A121E3B90010BE0FFEF64016029
:100E6000030211517F327E007D007C00121B747DD5
:100E70007F7F01121CDB90010BE4F0021151900105
:100E80000EE0FFEFB4031990010B7401F07D327F87
:100E900001121CDB7D517C007F01121AF4021151FA
:100EA00090010EE0FFEFB4041E7D047C007F02126F
:100EB0001AF47D007C007F03121AF47DB07CFF7F62
:100EC00004121AF402115190010EE0FFEFB4052450
:100ED0007D647F00121CDB7D877C007F00121AF48A
:100EE0007FE87E037D007C00121B7490010E740667
:100EF000F002115190010EE0FFEF640670407D2872
:100F00007F01121CDB7D057C007F01121AF47DD36A
:100F10007CFF7F02121AF47D057C007F03121AF415
:100F20007D007C007F04121AF47FC87E007D007C67
:100F300000121B747D7F7F01121CDB021151900196
:100F40000EE0FFEFB407137D1E7F01121CDB7D9ABC
:100F50007CFF7F01121AF402115190010EE0FFEFA5
:100F6000B4081E7D007C007F02121AF47D007C0014
:100F70007F03121AF47D327C007F04121AF40211EE
:100F80005190010EE0FFEFB4091C7DBA7CFF7F0099
:100F9000121AF47FE87E037D007C00121B7490011E
:100FA0000EE4F002115190010EE0FFEFB40A0612B8
:100FB000207F02115190010EE0FFEFB40D24121EAC
:100FC000F37F647E007D007C00121B74121F217F62
:100FD000587E027D007C00121B7490010EE4F0022A
:100FE000115190010EE0FFEFB40B06121F4F0211DA
:100FF0005190010EE0FFEFB40E24121EF37F647EC9
:10100000007D007C00121B74121F217FBC7E027DBC
:10101000007C00121B7490010EE4F002115190014B
:101020000EE0FFEF640F704E7DBA7CFF7F00121A56
:10103000F47DC47CFF7F01121AF47D007C007F02E6
:10104000121AF47DDD7CFF7F03121AF47DF17CFF20
:101050007F04121AF47F907E017D007C00121B74C5
:10106000121E3B7F207E037D007C00121B749001CA
:101070000EE4F002115190010EE0FFEF6410704E8B
:101080007DBA7CFF7F00121AF47DC47CFF7F0112C1
:101090001AF47D007C007F02121AF47D237C007F0D
:1010A00003121AF47DF17CFF7F04121AF47F907E04
:1010B000017D007C00121B74121E3B7F207E037D8D
:1010C000007C00121B7490010EE4F002115190019B
:1010D0000EE0FFEFB4110B7DD37CFF7F04121AF4F6
:1010E000806F90010EE0FFEFB4120B7D507C007F0B
:1010F00004121AF4805B90010EE0FFEF6413702F6E
:101100007DB57CFF7F00121AF47D517C007F0112B7
:101110001AF47D9C7CFF7F02121AF47D067C007F0E
:1011200003121AF47D5F7C007F04121AF48022906F
:10113000010EE0FFEFB414197F001218477F01126F
:1011400018477F021218477F031218477F041218AE
:1011500047900296E4F0020A60227B007A4679E822
:101160001222DFEF4405FD7B007A4679E81222EB7C
:10117000751400E514C3940B503AAF14EF75F005E5
:10118000A4241BF582E43423F583AF82AE838E085A
:101190008F09AE08AF098F828E83120814AE08AF94
:1011A000098F828E83740393FC740493FD12215A79
:1011B000051480BF751400E514C394015078AF1472
:1011C000EF75F008A42452F582E43423F583AF824E
:1011D000AE838E0A8F0BAE0AAF0B8F828E831208FE
:1011E000148B0C8A0D890EAE0AAF0B8F828E83A3EF
:1011F000A3A31208148B0F8A108911AE0AAF0B8FAC
:10120000828E83740693F512740793F513AB0FAABD
:1012100010A911C003C002C001AB0CAA0DA90E9009
:10122000010F12080BD001D002D003AF13AE12127F
:101230001D8B051480817B087A007900121FAD7B1D
:10124000017A5079031222DFEF4402FD7B017A50CC
:1012500079031222EB7B017A5079131222DFEF44DB
:1012600002FD7B017A5079131222EB9043A0E0FF3C
:10127000EF4440FF9043A0EFF09043C2E0FFEF4403
:1012800010FF9043C2EFF07B087A0679BCC003C020
:1012900002C0017B007A51791290010F12080BD025
:1012A00001D002D0037F087E00121D8B7B087A06D6
:1012B00079C4C003C002C0017B007A51794090011B
:1012C0000F12080BD001D002D0037F0A7E00121D3E
:1012D0008B7B087A0679D0C003C002C0017B007AFC
:1012E00051795090010F12080BD001D002D0037F2A
:1012F0000A7E00121D8B9044F47401F0904322E0AA
:10130000FFEF4408FF904322EFF09046ECE0FFEF40
:10131000C394055006904689743AF090480074F1E1
:10132000F012151990480074B1F0121D557B007A27
:101330004379A0C003C002C0017B007A4379B0901A
:10134000010F12080BD001D002D0037F0E7E0012D5
:101350001D8B9043B0E0FFEF54FDFFEFF022C0E0A3
:10136000C0F0C083C082C085C084C086758600C0BE
:1013700093759300C0D075D000C000C001C002C0FA
:1013800003C004C005C006C00712227A900108EF0E
:10139000F0900108E0FFEF20E309900108E0FFEF83
:1013A00030E105D2000214F6C20012223B90010681
:1013B000EEF0A3EFF0900106E0FEA3E0FFEEFF7E6B
:1013C000007E00EF54DFFFEF4E60030214F6900141
:1013D00006E0FEA3E0FF7E00EF5407FFD3EF940585
:1013E000EE940040030214E1900107E0FFEF30E3C8
:1013F00045900106E0FEA3E0FFEEC4F854F0C86893
:10140000FEEFC4540F48FF7E00EF540FFFEF540F60
:10141000FF900106E0FCA3E0FD7C00ED5407FD74A5
:101420008C2DF58274023CF583E0FEEE54F0FEEE66
:101430004FFFEFF08048900106E0FEA3E0FFEEC40E
:10144000F854F0C868FEEFC4540F48FF7E00EF5414
:101450000FFFEF540FFFEFC454F0FF900106E0FCC4
:10146000A3E0FD7C00ED5407FD748C2DF582740221
:101470003CF583E0FEEE540FFEEE4FFFEFF09002DE
:101480008AE0FFEFB40129900106E0FEA3E0FF7EB1
:1014900000EF5407FFEF4E701790028BE0FFEFD381
:1014A00094014004C201802690028BE004F0801E6B
:1014B000900106E0FEA3E0FF7E00EF5407FFD3EFAC
:1014C0009401EE94004007D20190028BE4F0900169
:1014D00006E0FEA3E0FF7E00EF5407FF90028AEFD4
:1014E000F0900106E0FEA3E0FFEEFF7E007E00EF3D
:1014F00030E5030213AAD007D006D005D004D003EC
:10150000D002D001D000D0D0D093D086D084D08566
:10151000D082D083D0F0D0E0327B007A4079807DD9
:10152000197C001222D09040827418F07B007A401F
:1015300079847D4D7C001222D09040867418F07B17
:10154000007A4079887D387C011222D090408A74DC
:1015500018F07B007A40798C7D2F7C751222D09018
:10156000408E7419F09043007402F09040007408AB
:10157000F09042007403F07B0C7A0179081222DFAC
:101580009046A1EFF07B007A4279227D087C001220
:1015900022D07B007A4279207D517C121222D09099
:1015A000010EE4F07F197E007D007C0090010A129C
:1015B00007DF90010A1207C7D3EF9400EE940040B2
:1015C0004E90010EE0FFEF64036044904225E0FF7F
:1015D000EF5401FF7E0090010EE0FEEE25E0FEEEEE
:1015E0004FFFEF5403FF90010EEFF07FE07E017D8F
:1015F000007C00121E0090010A1207C77BFF7AFFD1
:1016000079FF78FF12062290010A1207DF80A3906B
:10161000010A1207C7EF4E70057F0312228E7B006E
:101620007A4079047D007C011222D0904004740736
:10163000F0904006E4F09040087448F0904004E4D4
:10164000F09040017402F09043A2E0FFEF440FFFDE
:101650009043A2EFF022C0E0C083C082C085C08466
:10166000C086758600C093759300C0D075D000C049
:1016700006C0079001CDE4F0A2AFE433FF9001CEA5
:10168000EFF0D2AF9044F474FDF0906462E0FF900C
:1016900001CCEFF09001CCE0FF9001CBEFF0900196
:1016A000CCE0FFEF541EFF7E00EF4E60169000026C
:1016B000E0FF9001CCE0FEEE541EFEEF4EFF9000E6
:1016C00002EFF09001CCE0FFEF30E566906441E07E
:1016D000FF9001CBEFF09001CBE0FF900104E0FE22
:1016E00074052EF582E43400F583EFF09001CD749B
:1016F00001F09001CDE0FFEF6038900003E0FFEFD4
:1017000060069000017401F0900104E004F0900183
:1017100004E0FFEFC394FF4005900104E4F0900063
:1017200004E0FF900104E0FEEEB5070690000374AC
:1017300001F09001CCE0FFEF30E50302168A900142
:10174000CEE0FFEF24FF92AFD007D006D0D0D093E9
:10175000D086D084D085D082D083D0E032759300FB
:1017600078007583467582E8E04401F0009046EC0D
:10177000E0F99046FAE0FAB903225420B40012B816
:10178000001AEA900FFFF07401900FFEF09046F6F9
:10179000F0900FFEE06005900FFFE0FA90480074B3
:1017A000C0F075812090000078007910E4F0A3D893
:1017B000FCD9FAEA900285F002001175150F751632
:1017C000FD12115A0218020209B9E493A3F8E49336
:1017D000A34003F68001F208DFF48029E493A3F824
:1017E0005407240CC8C333C4540F4420C883400496
:1017F000F456800146F6DFE4800B01020408102055
:101800004080901C39E47E019360BCA3FF543F30BC
:10181000E509541FFEE493A360010ECF54C025E0F8
:1018200060A840B8E493A3FAE493A3F8E493A3C8B0
:10183000C582C8CAC583CAF0A3C8C582C8CAC58341
:10184000CADFE9DEE780BE900188EFF0900188E012
:10185000FFEF4480FF900194EFF0900195E4F09049
:101860000196E4F07B017A0179947D03121C937F49
:10187000F47E01121F80900193E4F0900193E0FF49
:10188000EFC39406501C121928900193E0FE749740
:101890002EF582E43401F583EFF0900193E004F03B
:1018A00080D990019BE0FF7E00EF75F080A4FFAE31
:1018B000F0EE543FFEEF5480FF90018DEEF0A3EF69
:1018C000F090019CE0FF7E007E00EF547FFF9001CE
:1018D0008FEEF0A3EFF090018FE0FEA3E0FF900108
:1018E0008DE0FCA3E0FDEC4EFEED4FFF900191EE8C
:1018F000F0A3EFF0900191E0FEA3E0FFC3744C9FD2
:10190000FD741D9EFCEC12019E7B807A887908781C
:101910003D12001A1201D7900191EEF0A3EFF09062
:101920000191E0FEA3E0FF229001C5E4F09044C8DD
:101930007404F0900004E0FF9001C7EFF090010400
:10194000E0FF9001C8EFF0900003E0FFEF700E9011
:1019500001C8E0FF9001C7E0FEEE6F60459001C74F
:10196000E0FF74052FF582E43400F583E0FF900179
:10197000C5EFF09001C7E004F09001C7E0FFEFC3AE
:1019800094FF40059001C7E4F09001C7E0FF90008C
:1019900004EFF0900003E0FFEF6038900003E4F004
:1019A0008031906462E0FF9001C6EFF09001C6E0E4
:1019B000FFEF30E51E906441E0FF9001C5EFF0902D
:1019C00001C6E0FFEF541EFF7E00EF4E6005900160
:1019D000C5E4F09044C07404F09001C5E0FF22C05B
:1019E000E0C083C082C085C084C086758600C09375
:1019F000759300C0D075D000C006C007A2AFE43315
:101A0000FF9001CFEFF0D2AF9044F474FDF090025C
:101A100036E0FF9001D1E0FEEE6F6037906464E045
:101A2000FFEF20E22E9001D1E0FFEFC39464400568
:101A30009001D1E4F09001D1E0FF74D22FF582E45F
:101A40003401F583E0FF906444EFF09001D1E004AD
:101A5000F080BB9001CFE0FFEF24FF92AFD007D022
:101A600006D0D0D093D086D084D085D082D083D0F9
:101A7000E032900188EFF0900189ECF0A3EDF09056
:101A80000188E0FFEFD3941F5003D38001C34005CA
:101A90007F00122265900188E0FFEF541FFF7E0057
:101AA000EF25E0FFEE33FEEF2400FFEE3444FEAA04
:101AB00006A9077B011222C390018BEEF0A3EFF081
:101AC000900188E0FF7E02EF8EF0A4FFAEF0EF24DD
:101AD00000FFEE3444FEAA06A9077B01900189E0CD
:101AE000FEA3E0FFAD07AC061222D290018BE0FE10
:101AF000A3E0FF22900188EFF0900189ECF0A3EDC4
:101B0000F0900189E0FEA3E0FF7C007D1E1205FA43
:101B1000C3744C9FFF741D9EFE90018BEEF0A3EFEB
:101B2000F0900188E0FFEF4480FF90018EEFF0908D
:101B3000018BE0FEA3E0FFEF7807CEA2E713CE1300
:101B4000D8F8FFEF547FFF90018FEFF090018BE00A
:101B5000FEA3E0FFEF547FFF900190EFF07B017A4E
:101B600001798E7D03121C937F017E007D007C0035
:101B7000121B742290FFFC1208461207DF851583A2
:101B80008516821207C7D3EF9400EE9480402F9001
:101B900002861207C7121E00851583851682C08330
:101BA000C0821207C7EF2400FFEE3480FEED34FF41
:101BB000FDEC34FFFCD082D0831207DF80BF90029F
:101BC0007C1207C78515838516821207D312062F4C
:101BD000121E0090000412084622900188EFF09037
:101BE0000189EDF0900189E0FFEFD394075003D312
:101BF0008001C340057F00122265900188E0FFEF5D
:101C0000D3941F5003D38001C340057F0012226587
:101C1000900189E0FFEF5407FF7E00EF75F020A4EC
:101C2000FFAEF0900188E0FEEE541FFE74802EF5AA
:101C300082E43444F583EFF0224202920000420233
:101C400094000041028B0041010500410002004167
:101C50000004004101040041000300410001004173
:101C60000237004101D1004102360041029C00448C
:101C70000281016E360044027C00005DC04102809A
:101C8000184402862EE00000430297000000410243
:101C90009D00009001C512080B9001C8EDF0900165
:101CA000C9E4F0900105E0FFEF602F9001C8E0FF6C
:101CB0009001C9E0FEEEC39F50209001C51207EBD2
:101CC0009001C9E0FFE92FF9E43AFA1205A2FF12E8
:101CD00021419001C9E004F080D122900188EFF009
:101CE000900189EDF0900188E0FFEF44C0FF900182
:101CF0008AEFF090018B7402F0900189E0FF90016F
:101D00008CEFF07B017A01798A7D03121C937F01AD
:101D10007E007D007C00121B7422122250900188EC
:101D2000EFF0906491E0FFEF4420FFEFF0906492B9
:101D3000E0FFEF4410FFEFF09044C07404F09065B2
:101D400096E0FFEF4410FFEFF012218B900188E046
:101D5000FF122173227B0C7A0179CF1222DF9001CE
:101D60000AEFF090010AE0FFEF5407FF90586EEF82
:101D7000F090010AE0FFEFC4540FFFEF540FFF9003
:101D8000586FEFF09058767444F022758600EF4E4D
:101D90006027EF60010E75930090010FE0F595A3A9
:101DA000E0F585A3E0F5848B938A838982E0A3051F
:101DB00086F0A31586DFF6DEF4E4F593F595227C34
:101DC000167D567F02121A727D077F02121BDA906F
:101DD0000002E4F09064817472F09064827420F0E8
:101DE0009064227406F09064327447F0906586E443
:101DF000F0229064877472F0906587742AF0223222
:101E0000EC4D4E700D78FCEF24E950032840FD2284
:101E100000007BF178DA0000EF28FF78FFEE38FE53
:101E2000ED38FDEC38FC50E7EF2BFFEE38FEED38D7
:101E3000FDEC38FC40F222050203047DBA7CFF7FF2
:101E400000121AF47D057C007F01121AF47DD37C08
:101E5000FF7F02121AF47D057C007F03121AF47DC5
:101E6000007C007F04121AF4227DBA7CFF7F0012EE
:101E70001AF47DD37CFF7F01121AF47DA67CFF7FCC
:101E800002121AF47D057C007F03121AF47D2D7C6A
:101E9000007F04121AF4227DBA7CFF7F00121AF42C
:101EA0007DC47CFF7F01121AF47D007C007F02124A
:101EB0001AF47D057C007F03121AF47DF17CFF7F0C
:101EC00004121AF4227DBA7CFF7F00121AF47D05F9
:101ED0007C007F01121AF47D9C7CFF7F02121AF4B1
:101EE0007D057C007F03121AF47D007C007F0412C4
:101EF0001AF4227DBA7CFF7F00121AF47DE27CFF87
:101F00007F01121AF47DD37CFF7F02121AF47DDD6B
:101F10007CFF7F03121AF47D2D7C007F04121AF4DB
:101F2000227DBA7CFF7F00121AF47DB57CFF7F0111
:101F3000121AF47D007C007F02121AF47DD37CFF1C
:101F40007F03121AF47DD87CFF7F04121AF4227DDD
:101F5000BA7CFF7F00121AF47DD37CFF7F01121A36
:101F6000F47DD37CFF7F02121AF47D057C007F0391
:101F7000121AF47D2D7C007F04121AF422A2012291
:101F8000EEFA900280E0F88FF0A4FFAEF0E88AF05D
:101F9000A42EFEE5F03400FDEF24C9FF78FFEE38F3
:101FA000FEED38FDE438FC5003021E0022ACEAAD21
:101FB000A08B938A838982E0F96017A3E0F5EAA3F6
:101FC000E0F5A0A3E060F4FAA3E0F8A3E0F2DAF809
:101FD000D9E98DA08CEAE4F5932212225090018871
:101FE000EFF0906494E0FFEF4410FFEFF09044D8DE
:101FF0007402F09044C07402F01221A2900188E0B3
:10200000FF12217322122250900188EFF090649702
:10201000E0FFEF4420FFEFF0906597E0FFEF441002
:10202000FFEFF01221B9900188E0FF12217322C066
:10203000E0C083C082C085C084C086758600C0931E
:102040007593009002967401F0D093D086D084D01E
:1020500085D082D083D0E032122250900188EFF0F8
:10206000906597E0FFEF4401FFEFF0906597E0FF88
:10207000EF54FEFFEFF0900188E0FF122173227D04
:10208000D37CFF7F00121AF47DBA7CFF7F02121A04
:10209000F47D377C007F03121AF47D467C007F04B8
:1020A000121AF4227C197DDF7F01121A727D077FDC
:1020B00001121BDA9064237406F09064337447F0C5
:1020C0009064847402F022900188EEF0A3EFF01285
:1020D0002305900188E0FEA3E0FF1221057F07128F
:1020E00021D01222FE22900188EEF0A3EFF01223FD
:1020F00013900188E0FEA3E0FF1221237F07122145
:10210000E612230C2290018AEEF0A3EFF07B027A14
:1021100044790090018AE0FEA3E0FFAD07AC06120F
:1021200022D22290018AEEF0A3EFF07B027A44796A
:102130000690018AE0FEA3E0FFAD07AC061222D2B2
:10214000229001CAEFF0906566E0FFEF20E2F79081
:1021500001CAE0FF906446EFF022EC4D6011ED60A3
:10216000010C8B938A838982E4F0A3DDFCDCFA7591
:10217000930022EF54016004D2AF8002C2AFEF544B
:1021800002FF9044F4E054FD4FF0229043A2E0FFA0
:10219000EF4401FFEFF09043B2E0FFEF4401FFEFA7
:1021A000F0229043A2E0FFEF4404FFEFF09043B22F
:1021B000E0FFEF4404FFEFF0229043A2E0FFEF4482
:1021C00002FFEFF09043B2E0FFEF4402FFEFF02296
:1021D00090018AEFF090018AE0FFEFC43354E0FFF2
:1021E000904480EFF02290018AEFF090018AE0FFA6
:1021F000EFC43354E0FF904483EFF022900105E0F8
:10220000FFEF7009121DBF9001057401F0121D1A35
:1022100022900237E0FFEF70091220A49002377479
:1022200001F0121FDA2290029CE0FFEF7009121DEC
:10223000F290029C7401F01220052212227A7E0094
:10224000EF7D00FC1222B17E00EC4EFEED4FFF222E
:102250009044F4E0F84402F0E85402FF10AF012289
:1022600074014FFF2290FFFF120846EFF09046EAFC
:102270007401F090000112084622906567E0FFEFBC
:10228000547FFF900109EFF0900109E0FF229001D7
:102290000FEFF090010FE0FF90010FEFF080FE22B2
:1022A0001222261220587E137F5E1220C71222FEB1
:1022B00022906547E0FF900109EFF0900109E0FFEF
:1022C000228B938A838982E0FFA3E0FE759300222C
:1022D0008B938A838982EDF0A3ECF0759300228BB7
:1022E000938A838982E0759300FF228B938A838986
:1022F00082EDF0759300227B017A02798C22904462
:10230000C07401F0229044C87401F0229044C0745B
:1023100008F0229044C87408F022320051000010E6
:10232000005120002000516000100051C00010003A
:1023300051F0001001000000800101000F000114A5
:102340000008000140000A00014C0002000150009A
:0A235000002001008008063C008018
:00000001FF
