:10000000020EDA008F828E83E0540100000070F847
:100010002278FFE4F6D8FD020F38EC4D6011E84974
:100020007017ED33EC3304600DE4FCFFFEFD22E9B4
:1000300033E8330470F802024312020E58046009D8
:10004000E4CC2481500628500902024D28400302C6
:10005000024AC0E0EB4A7044B98006D0E0FB0202DD
:1000600039EF4E701CBD8008EBFFEAFEE9FD80EB26
:10007000E98DF0A4FEE5F0020103E9CDF9EAFEEB1B
:10008000FFEF89F0A4FCE5F0CE89F0A42EFFE43563
:10009000F0CD89F0A42DFEE435F08067EF4E7005B9
:1000A000BD80D780C3EF8BF0A4ACF0EE8BF0A42C16
:1000B000FCE435F0F8EF8AF0A42CE5F038FCE433EA
:1000C000CB8DF0A42CFCE5F03BF8EE8AF0A42CFCE0
:1000D000E5F038F8E433CF89F0A42CFCE5F038CF14
:1000E0003400CE89F0A42FFFE5F03EFEE433C98D45
:1000F000F0A42EFEE5F039CD8AF0A42FFFE5F03E06
:10010000FEE43DFD33D0E0FB50070BBB000F0202C5
:100110004DEC2CFCEF33FFEE33FEED33FD020225F8
:1001200074F8CC6480CCC86480C8F58204604FC386
:10013000EB9FF5F0EA9E42F0E99D42F0E89C45F025
:10014000603C501DE5825FFFE582D313CB5BCBF4AF
:100150002B5582FB50280ABA002409B900200880D8
:100160001DE5825BFBE582D313CF5FCFF4C3132F72
:100170005582FF50090EBE00050DBD00010CC3EBFA
:100180009FF5F0EA9E42F0E99D42F0E89C45F06060
:1001900007CC4820E701B3EC2275F020800E75F003
:1001A00010800575F0087D007E007F003392D53009
:1001B000D503120759EC334010EF33FFEE33FEED59
:1001C00033FDEC33FCD5F0ED22E5F0247EA2D5130F
:1001D000CC92E7CDCEFF22EDD2E7CD33EC3392D5F2
:1001E00024814006E4FFFEFDFC22FCE4CFCECDCC12
:1001F00024E0501174FF80EDC3CC13CCCD13CDCED1
:1002000013CECF13CF0470F030D5DE020759E9D2F8
:10021000E7C933E833F892D5EDD2E7CD33EC33FCC0
:100220005002B2D522EC30E7100FBF000C0EBE001A
:10023000080DBD00040BEB6014A2D5EB13FCED928E
:10024000E7FD2274FFFCFDFEFF22E480F8A2D574D6
:10025000FF13FC7D80E480EFF920E73624F950039A
:100260007907E4F42402FBE582158270021583DB32
:10027000F6E024FB501BE96014E4F0E5821582707F
:10028000021583E004F0B40A08E4F0D9EE7401F03A
:100290000A22C2D522ED33EC3392D5FA602AB4FF9C
:1002A00033EDC2E77BFF60067A0279BAE4227A0274
:1002B00079C320D5047A0279BE224E614E002B49C3
:1002C0004E46002D494E4600E47A08F0A3DAFC7B46
:1002D00000740722C083C082ECC0E0EDC0E0EEC035
:1002E000E0EFC0E0EA75F010A4CAABF075F04DA4E1
:1002F0002BFBE435F0FCEA2410FAEB34C5FBEC34BC
:10030000D9FCEDC2E7FF75F056A4F42411C5F0F452
:1003100034C58FF0A42AE5F03BE43CF020E714124A
:100320000562D0E0FFD0E0FED0E0FDD0E0FC12049A
:10033000958014F404120562D0E0FFD0E0FED0E016
:10034000FDD0E0FC12001AD082D083E0FAEDD2E7B3
:10035000CD33EC332482FBE4C3CF33CFCE33CECDC9
:1003600033CD33DBF37B0775F00A846004F0A31B05
:100370000AE5F0F0A38FF0740AA4FFACF08EF074DD
:100380000AA42CFEACF050010C8DF0740AA42CFDD4
:10039000E435F0F0A3DBDE740722020243E8648058
:1003A000F8E933E83360110460F0ED33EC337009A1
:1003B000E8FCE9FDEAFEEBFF220460DED3EB9FEAF6
:1003C0009EE99DE8C2E78CF0C2F795F0400CE8CCBE
:1003D000F8E9CDF9EACEFAEBCFFB12020E85D0F0A8
:1003E0005804700320D5B3E80470075002B2D50258
:1003F000024D92D5EC0460F7E4CCC0E0C398F860FD
:100400003B94186008400DD0E0FB020225E4FBFAA3
:10041000C9FC8028E830E406E4C9FBE4CAFCE83003
:10042000E305E4C9CACBFCE854076010F8C3E9133C
:10043000F9EA13FAEB13FBEC13FCD8F130F52FC3F8
:10044000E49CFCEF9BFFEE9AFEED99FDD0E0FBEF04
:100450004E4D4C701222DB0302024AEC2CFCEF33AF
:10046000FFEE33FEED33FDED30E7EB020225EF2B1F
:10047000FFEE3AFEED39FDD0E0FB50130BBB00035D
:1004800002024DED13FDEE13FEEF13FFEC13FC0221
:10049000022502024DEC5D046005E8590470030278
:1004A000024312020E580460F6EC4860F2EC70044D
:1004B000FDFEFF22C860DB2481C85009C39860029A
:1004C000500602024A9850CAF582E9294B4A700543
:1004D000AB8202023975F0007C1A7880C3EF9BEE84
:1004E0009AED99400DC3EF9BFFEE9AFEED99FDE862
:1004F00042F0DC23ACF0D0E0FFD0E0FED0E0FDAB7A
:100500008220E7101BEB60BAEC2CFCEF33FFEE33DC
:10051000FEED33FD020225E803F830E705C0F07573
:10052000F000EF2FFFEE33FEED33FD40B830E7C2B1
:1005300080AA3F8000004120000042C80000447AA9
:100540000000461C400047C35000497424004B186B
:1005500096804CBEBC205A0E1BCA6753C21C749DA9
:10056000C5AEFB60065407601C2323120590EB54B4
:1005700038600912057C12058B12001AECF8EDF9AF
:10058000EEFAEFCB22EB12058B80F1543803241CDA
:10059000900532FE93FC0EEE93FD0EEE930ECE937D
:1005A000FF22BB010689828A83E0225002E722BB38
:1005B000FE02E32289828A83E49322BB010CE58256
:1005C00029F582E5833AF583E0225006E92582F891
:1005D000E622BBFE06E92582F8E222E58229F582C1
:1005E000E5833AF583E49322BB010689828A83F08E
:1005F000225002F722BBFE01F322EF8DF0A4A8F0F7
:10060000CF8CF0A428CE8DF0A42EFE22C5F0F8A346
:10061000E028F0C5F0F8E582158270021583E03815
:10062000F022EF2BFFEE3AFEED39FDEC38FC22E82C
:100630008FF0A4CC8BF0A42CFCE98EF0A42CFC8AC7
:10064000F0EDA42CFCEA8EF0A4CDA8F08BF0A42D44
:10065000CC3825F0FDE98FF0A42CCD35F0FCEB8EE5
:10066000F0A4FEA9F0EB8FF0A4CFC5F02ECD39FE9B
:10067000E43CFCEAA42DCE35F0FDE43CFC2275F010
:1006800008758200EF2FFFEE33FECD33CDCC33CC97
:10069000C58233C5829BED9AEC99E58298400CF5B2
:1006A00082EE9BFEED9AFDEC99FC0FD5F0D6E4CEE0
:1006B000FBE4CDFAE4CCF9A88222B800C1B9005914
:1006C000BA002DEC8BF084CFCECDFCE5F0CBF978E1
:1006D00018EF2FFFEE33FEED33FDEC33FCEB33FB75
:1006E00010D703994004EB99FB0FD8E5E4F9FA22FF
:1006F0007818EF2FFFEE33FEED33FDEC33FCC933FA
:10070000C910D7059BE99A4007EC9BFCE99AF90FC1
:10071000D8E0E4C9FAE4CCFB2275F010EF2FFFEE2D
:1007200033FEED33FDCC33CCC833C810D7079BEC78
:100730009AE899400AED9BFDEC9AFCE899F80FD5F0
:10074000F0DAE4CDFBE4CCFAE4C8F922EF4BFFEE9B
:100750004AFEED49FDEC48FC22C3E49FFFE49EFE07
:10076000E49DFDE49CFC22E8600FECC313FCED1358
:10077000FDEE13FEEF13FFD8F122E8600FEFC33355
:10078000FFEE33FEED33FDEC33FCD8F122BB010765
:1007900089828A830207C75005E9F8020897BBFEE1
:1007A00005E9F80208A389828A830208AFBB010722
:1007B00089828A830207DF5005E9F80208BFBBFE81
:1007C00005E9F80208CB22E0FCA3E0FDA3E0FEA3CC
:1007D000E0FF22E0F8A3E0F9A3E0FAA3E0FB22ECBB
:1007E000F0A3EDF0A3EEF0A3EFF022E0FBA3E0FA1C
:1007F000A3E0F922F8E0FBA3A3E0F925F0F0E582FD
:10080000158270021583E0FA38F022EBF0A3EAF0CB
:10081000A3E9F022E493FB740193FA740293F922A2
:10082000D083D082F8E4937012740193700DA3A367
:1008300093F8740193F5828883E47374029368607B
:10084000EFA3A3A380DFE5162582F582E5153583A6
:10085000F583B515048582162210AF06858216F53C
:100860001522858216F515D2AF22EC8EF0A4CCC5E8
:10087000F0CCCDF8EFA4CEC5F02DFDE43CFCE8A40F
:100880002EC8C5F03DFDE43CFCEFA4FFE5F028FEDA
:10089000E43DFDE43CFC22E6FC08E6FD08E6FE083B
:1008A000E6FF22E2FC08E2FD08E2FE08E2FF22E4A5
:1008B00093FC740193FD740293FE740393FF22EC86
:1008C000F608EDF608EEF608EFF622ECF208EDF287
:1008D00008EEF208EFF2227B007A4679E8121691D0
:1008E000EF4405FD7B007A4679E812169D751400E9
:1008F000E514C3940B503AAF14EF75F005A424C26D
:10090000F582E43416F583AF82AE838E088F09AE8C
:1009100008AF098F828E83120814AE08AF098F8248
:100920008E83740393FC740493FD121541051480A7
:10093000BF751400E514C394015078AF14EF75F03F
:1009400008A424F9F582E43416F583AF82AE838ED1
:100950000A8F0BAE0AAF0B8F828E831208148B0C9A
:100960008A0D890EAE0AAF0B8F828E83A3A3A312CA
:1009700008148B0F8A108911AE0AAF0B8F828E83F9
:10098000740693F512740793F513AB0FAA10A9110F
:10099000C003C002C001AB0CAA0DA90E90010F123A
:1009A000080BD001D002D003AF13AE1212137105A1
:1009B0001480817B087A0079001214627B017A50DE
:1009C0007903121691EF4402FD7B017A50790312EC
:1009D000169D7B017A507913121691EF4402FD7B2C
:1009E000017A50791312169D9043A0E0FFEF444026
:1009F000FF9043A0EFF09043C2E0FFEF4410FF9060
:100A000043C2EFF07B087A0679BCC003C002C00184
:100A10007B007A51791290010F12080BD001D0029D
:100A2000D0037F087E001213717B087A0679C4C058
:100A300003C002C0017B007A51794090010F120877
:100A40000BD001D002D0037F0A7E001213717B0805
:100A50007A0679D0C003C002C0017B007A51795078
:100A600090010F12080BD001D002D0037F0A7E0044
:100A70001213719044F47401F0904322E0FFEF44AC
:100A800008FF904322EFF09046ECE0FFEFC394059F
:100A90005006904689743AF090480074F1F0120CB8
:100AA0009690480074B1F012133B7B007A4379A012
:100AB000C003C002C0017B007A4379B090010F12DD
:100AC000080BD001D002D0037F0E7E00121371906C
:100AD00043B0E0FFEF54FDFFEFF022C0E0C0F0C0F4
:100AE00083C082C085C084C086758600C09375931C
:100AF00000C0D075D000C000C001C002C003C00457
:100B0000C005C006C00712161F900108EFF0900143
:100B100008E0FFEF20E309900108E0FFEF30E10576
:100B2000D200020C73C2001215E0900106EEF0A391
:100B3000EFF0900106E0FEA3E0FFEEFF7E007E00F6
:100B4000EF54DFFFEF4E6003020C73900106E0FEEE
:100B5000A3E0FF7E00EF5407FFD3EF9405EE94006F
:100B60004003020C5E900107E0FFEF30E345900187
:100B700006E0FEA3E0FFEEC4F854F0C868FEEFC440
:100B8000540F48FF7E00EF540FFFEF540FFF90010A
:100B900006E0FCA3E0FD7C00ED5407FD74E72DF5B5
:100BA0008274013CF583E0FEEE54F0FEEE4FFFEF61
:100BB000F08048900106E0FEA3E0FFEEC4F854F098
:100BC000C868FEEFC4540F48FF7E00EF540FFFEFDC
:100BD000540FFFEFC454F0FF900106E0FCA3E0FDCA
:100BE0007C00ED5407FD74E72DF58274013CF5831C
:100BF000E0FEEE540FFEEE4FFFEFF09001E5E0FF58
:100C0000EFB40129900106E0FEA3E0FF7E00EF545F
:100C100007FFEF4E70179001E6E0FFEFD39401401D
:100C200004C20180269001E6E004F0801E900106D7
:100C3000E0FEA3E0FF7E00EF5407FFD3EF9401EE48
:100C400094004007D2019001E6E4F0900106E0FE36
:100C5000A3E0FF7E00EF5407FF9001E5EFF0900165
:100C600006E0FEA3E0FFEEFF7E007E00EF30E5032E
:100C7000020B27D007D006D005D004D003D002D075
:100C800001D000D0D0D093D086D084D085D082D06F
:100C900083D0F0D0E0327B007A4079807D197C00EF
:100CA0001216759040827418F07B007A4079847D2A
:100CB0004D7C001216759040867418F07B007A40C7
:100CC00079887D387C0112167590408A7418F07B03
:100CD000007A40798C7D2F7C7512167590408E7449
:100CE00019F09043007402F09040007408F09042B4
:100CF000007403F07B0C7A0179081216919046A1DA
:100D0000EFF07B007A4279227D087C001216757B19
:100D1000007A4279207D517C1212167590010EE402
:100D2000F07F197E007D007C0090010A1207DF90A1
:100D3000010A1207C7D3EF9400EE9400404E9001D1
:100D40000EE0FFEF64036044904225E0FFEF5401A2
:100D5000FF7E0090010EE0FEEE25E0FEEE4FFFEF7D
:100D60005403FF90010EEFF07FE07E017D007C00D8
:100D700012130090010A1207C77BFF7AFF79FF78F0
:100D8000FF12062290010A1207DF80A390010A12C7
:100D900007C7EF4E70057F031216337B007A407948
:100DA000047D007C011216759040047407F0904099
:100DB00006E4F09040087448F0904004E4F090405D
:100DC000017402F09043A2E0FFEF440FFF9043A2B2
:100DD000EFF022C0E0C083C082C085C084C08675A9
:100DE0008600C093759300C0D075D000C006C007C0
:100DF000900191E4F0A2AFE433FF900192EFF0D2C2
:100E0000AF9044F474FDF0906462E0FF900190EFC5
:100E1000F0900190E0FF90018FEFF0900190E0FFE3
:100E2000EF541EFF7E00EF4E6016900002E0FF9030
:100E30000190E0FEEE541EFEEF4EFF900002EFF038
:100E4000900190E0FFEF30E566906441E0FF900193
:100E50008FEFF090018FE0FF900104E0FE74052E0B
:100E6000F582E43400F583EFF09001917401F09085
:100E70000191E0FFEF6038900003E0FFEF60069023
:100E800000017401F0900104E004F0900104E0FF1F
:100E9000EFC394FF4005900104E4F0900004E0FFEC
:100EA000900104E0FEEEB507069000037401F09097
:100EB0000190E0FFEF30E503020E07900192E0FFA2
:100EC000EF24FF92AFD007D006D0D0D093D086D0F9
:100ED00084D085D082D083D0E032759300780075BD
:100EE00083467582E8E04401F0009046ECE0F9901A
:100EF00046FAE0FAB903225420B40012B8001AEA04
:100F0000900FFFF07401900FFEF09046F6F0900FF6
:100F1000FEE06005900FFFE0FA90480074C0F075A5
:100F2000812090000078007910E4F0A3D8FCD9FA71
:100F3000EA9001E0F002001175150F7516FD120818
:100F4000D7020F7F020FC4E493A3F8E493A34003F6
:100F5000F68001F208DFF48029E493A3F854072413
:100F60000CC8C333C4540F4420C8834004F45680D3
:100F70000146F6DFE4800B01020408102040809057
:100F80001211E47E019360BCA3FF543F30E5095485
:100F90001FFEE493A360010ECF54C025E060A8407B
:100FA000B8E493A3FAE493A3F8E493A3C8C582C872
:100FB000CAC583CAF0A3C8C582C8CAC583CADFE947
:100FC000DEE780BE90010A7401F090010B7401F01D
:100FD00090010CE4F0A3E4F090010EE4F0A3E4F03F
:100FE000D2AF9044F474FDF01215B61216457FE8A6
:100FF0007E037D007C0012114C1216BE50FB1214B1
:10100000341216A91205A2FFEF131313541FFFEF9A
:1010100030E0EEE47E007F00227F017F0090010B34
:10102000EFF090010AE4F0800690010A7401F0905C
:10103000010BE0FFEF600512143480061213D81282
:1010400014069001F1E4F080CA2290017AEFF0904A
:10105000017BECF0A3EDF090017AE0FFEFD3941F59
:101060005003D38001C340057F001215F590017A2B
:10107000E0FFEF541FFF7E00EF25E0FFEE33FEEFB1
:101080002400FFEE3444FEAA06A9077B011216686D
:1010900090017DEEF0A3EFF090017AE0FF7E02EF89
:1010A0008EF0A4FFAEF0EF2400FFEE3444FEAA065B
:1010B000A9077B0190017BE0FEA3E0FFAD07AC0632
:1010C00012167790017DE0FEA3E0FF2290017AEFF7
:1010D000F090017BECF0A3EDF090017BE0FEA3E04B
:1010E000FF7C007D1E1205FAC3744C9FFF741D9E89
:1010F000FE90017DEEF0A3EFF090017AE0FFEF4467
:1011000080FF900180EFF090017DE0FEA3E0FFEF13
:101110007807CEA2E713CE13D8F8FFEF547FFF90E5
:101120000181EFF090017DE0FEA3E0FFEF547FFF2F
:10113000900182EFF07B017A0179807D0312125FCA
:101140007F017E007D007C0012114C2290FFFC127A
:1011500008461207DF8515838516821207C7D3EF6D
:101160009400EE9480402F9001E11207C712130003
:10117000851583851682C083C0821207C7EF2400BD
:10118000FFEE3480FEED34FFFDEC34FFFCD082D066
:10119000831207DF80BF9001D71207C785158385AB
:1011A00016821207D312062F1213009000041208A1
:1011B000462290017AEFF090017BEDF090017BE008
:1011C000FFEFD394075003D38001C340057F001283
:1011D00015F590017AE0FFEFD3941F5003D38001FF
:1011E000C340057F001215F590017BE0FFEF540727
:1011F000FF7E00EF75F020A4FFAEF090017AE0FED4
:10120000EE541FFE74802EF582E43444F583EFF033
:10121000224201ED00004201EF00004101E60041E1
:1012200001050041000200410004004101040041A9
:10123000000300410001004101F7004401DC016EA0
:1012400036004401D700005DC04101DB184401E1D4
:101250002EE000004301F20000004101F800009080
:10126000018912080B90018CEDF090018DE4F09053
:101270000105E0FFEF602F90018CE0FF90018DE011
:10128000FEEEC39F50209001891207EB90018DE084
:10129000FFE92FF9E43AFA1205A2FF12152890018E
:1012A0008DE004F080D12212160A90017AEFF090BE
:1012B0006491E0FFEF4420FFEFF0906492E0FFEFD5
:1012C0004410FFEFF09044C07404F0906596E0FF86
:1012D000EF4410FFEFF012157290017AE0FF121543
:1012E0005A2290017CEEF0A3EFF07B027A44790061
:1012F00090017CE0FEA3E0FFAD07AC06121677225A
:10130000EC4D4E700D78FCEF24E950032840FD228F
:1013100000007BF178DA0000EF28FF78FFEE38FE5E
:10132000ED38FDEC38FC50E7EF2BFFEE38FEED38E2
:10133000FDEC38FC40F222050203047B0C7A0179B3
:10134000CF12169190010AEFF090010AE0FFEF54DE
:1013500007FF90586EEFF090010AE0FFEFC4540FC2
:10136000FFEF540FFF90586FEFF09058767444F0F1
:1013700022758600EF4E6027EF60010E7593009096
:10138000010FE0F595A3E0F585A3E0F5848B938A42
:10139000838982E0A30586F0A31586DFF6DEF4E4F8
:1013A000F593F595227C0D7DD37F0212104A7D07BF
:1013B0007F021211B2900002E4F09064817472F026
:1013C0009064827420F09064227406F09064327409
:1013D00047F0906586E4F0227D007C007F001210CB
:1013E000CC7DF17CFF7F011210CC7DA67CFF7F02BB
:1013F0001210CC7DF67CFF7F031210CC7D147C0094
:101400007F041210CC227D007C007F001210CC7D66
:10141000C47CFF7F011210CC7D007C007F02121083
:10142000CC7DF67CFF7F031210CC7DF17CFF7F0426
:101430001210CC227D007C007F001210CC7D197C24
:10144000007F011210CC7D927CFF7F021210CC7DB8
:10145000F67CFF7F031210CC7D007C007F0412100D
:10146000CC22ACEAADA08B938A838982E0F9601725
:10147000A3E0F5EAA3E0F5A0A3E060F4FAA3E0F8A6
:10148000A3E0F2DAF8D9E98DA08CEAE4F593221210
:10149000160A90017AEFF0906497E0FFEF4420FF86
:1014A000EFF0906597E0FFEF4410FFEFF012158921
:1014B00090017AE0FF12155A22C0E0C083C082C0BA
:1014C00085C084C086758600C0937593009001F135
:1014D0007401F0D093D086D084D085D082D083D0D0
:1014E000E03212160A90017AEFF0906597E0FFEF74
:1014F0004401FFEFF0906597E0FFEF54FEFFEFF03F
:1015000090017AE0FF12155A2290017AEEF0A3EFD3
:10151000F01216B790017AE0FEA3E0FF1212E27F0C
:10152000071215A01216B02290018EEFF09065669A
:10153000E0FFEF20E2F790018EE0FF906446EFF0CD
:1015400022EC4D6011ED60010C8B938A838982E45B
:10155000F0A3DDFCDCFA75930022EF54016004D2A5
:10156000AF8002C2AFEF5402FF9044F4E054FD4F4D
:10157000F0229043A2E0FFEF4401FFEFF09043B26E
:10158000E0FFEF4401FFEFF0229043A2E0FFEF44C1
:1015900002FFEFF09043B2E0FFEF4402FFEFF022D2
:1015A00090017CEFF090017CE0FFEFC43354E0FF4A
:1015B000904480EFF022900105E0FFEF70091213D4
:1015C000A59001057401F01212A7229001F7E0FF27
:1015D000EF70091216849001F77401F012148F2233
:1015E00012161F7E00EF7D00FC1216567E00EC4E98
:1015F000FEED4FFF2290FFFF120846EFF09046EA03
:101600007401F0900001120846229044F4E0F8447E
:1016100002F0E85402FF10AF012274014FFF229044
:101620006567E0FFEF547FFF900109EFF09001093B
:10163000E0FF2290010FEFF090010FE0FF90010F0B
:10164000EFF080FE221215CB1214E27E0A7FDB122D
:1016500015091216B022906547E0FF900109EFF0DE
:10166000900109E0FF228B938A838982E0FFA3E047
:10167000FE759300228B938A838982EDF0A3ECF0B0
:10168000759300229064877472F0906587742AF0D5
:10169000228B938A838982E0759300FF228B938A41
:1016A000838982EDF0759300227B017A0179E7222C
:1016B0009044C07401F0229044C87401F022A20149
:1016C0002232005100001000512000200051600023
:1016D000100051C000100051F00010010000008007
:1016E0000101000F0001140008000140000A000180
:1016F0004C000200015000002001008008063C0060
:011700008068
:00000001FF
