:10000000021390008F828E83E0540100000070F88C
:100010002278FFE4F6D8FD0213EEEC4D6011E849BA
:100020007017ED33EC3304600DE4FCFFFEFD22E9B4
:1000300033E8330470F802024312020E58046009D8
:10004000E4CC2481500628500902024D28400302C6
:10005000024AC0E0EB4A7044B98006D0E0FB0202DD
:1000600039EF4E701CBD8008EBFFEAFEE9FD80EB26
:10007000E98DF0A4FEE5F0020103E9CDF9EAFEEB1B
:10008000FFEF89F0A4FCE5F0CE89F0A42EFFE43563
:10009000F0CD89F0A42DFEE435F08067EF4E7005B9
:1000A000BD80D780C3EF8BF0A4ACF0EE8BF0A42C16
:1000B000FCE435F0F8EF8AF0A42CE5F038FCE433EA
:1000C000CB8DF0A42CFCE5F03BF8EE8AF0A42CFCE0
:1000D000E5F038F8E433CF89F0A42CFCE5F038CF14
:1000E0003400CE89F0A42FFFE5F03EFEE433C98D45
:1000F000F0A42EFEE5F039CD8AF0A42FFFE5F03E06
:10010000FEE43DFD33D0E0FB50070BBB000F0202C5
:100110004DEC2CFCEF33FFEE33FEED33FD020225F8
:1001200074F8CC6480CCC86480C8F58204604FC386
:10013000EB9FF5F0EA9E42F0E99D42F0E89C45F025
:10014000603C501DE5825FFFE582D313CB5BCBF4AF
:100150002B5582FB50280ABA002409B900200880D8
:100160001DE5825BFBE582D313CF5FCFF4C3132F72
:100170005582FF50090EBE00050DBD00010CC3EBFA
:100180009FF5F0EA9E42F0E99D42F0E89C45F06060
:1001900007CC4820E701B3EC2275F020800E75F003
:1001A00010800575F0087D007E007F003392D53009
:1001B000D503120759EC334010EF33FFEE33FEED59
:1001C00033FDEC33FCD5F0ED22E5F0247EA2D5130F
:1001D000CC92E7CDCEFF22EDD2E7CD33EC3392D5F2
:1001E00024814006E4FFFEFDFC22FCE4CFCECDCC12
:1001F00024E0501174FF80EDC3CC13CCCD13CDCED1
:1002000013CECF13CF0470F030D5DE020759E9D2F8
:10021000E7C933E833F892D5EDD2E7CD33EC33FCC0
:100220005002B2D522EC30E7100FBF000C0EBE001A
:10023000080DBD00040BEB6014A2D5EB13FCED928E
:10024000E7FD2274FFFCFDFEFF22E480F8A2D574D6
:10025000FF13FC7D80E480EFF920E73624F950039A
:100260007907E4F42402FBE582158270021583DB32
:10027000F6E024FB501BE96014E4F0E5821582707F
:10028000021583E004F0B40A08E4F0D9EE7401F03A
:100290000A22C2D522ED33EC3392D5FA602AB4FF9C
:1002A00033EDC2E77BFF60067A0279BAE4227A0274
:1002B00079C320D5047A0279BE224E614E002B49C3
:1002C0004E46002D494E4600E47A08F0A3DAFC7B46
:1002D00000740722C083C082ECC0E0EDC0E0EEC035
:1002E000E0EFC0E0EA75F010A4CAABF075F04DA4E1
:1002F0002BFBE435F0FCEA2410FAEB34C5FBEC34BC
:10030000D9FCEDC2E7FF75F056A4F42411C5F0F452
:1003100034C58FF0A42AE5F03BE43CF020E714124A
:100320000562D0E0FFD0E0FED0E0FDD0E0FC12049A
:10033000958014F404120562D0E0FFD0E0FED0E016
:10034000FDD0E0FC12001AD082D083E0FAEDD2E7B3
:10035000CD33EC332482FBE4C3CF33CFCE33CECDC9
:1003600033CD33DBF37B0775F00A846004F0A31B05
:100370000AE5F0F0A38FF0740AA4FFACF08EF074DD
:100380000AA42CFEACF050010C8DF0740AA42CFDD4
:10039000E435F0F0A3DBDE740722020243E8648058
:1003A000F8E933E83360110460F0ED33EC337009A1
:1003B000E8FCE9FDEAFEEBFF220460DED3EB9FEAF6
:1003C0009EE99DE8C2E78CF0C2F795F0400CE8CCBE
:1003D000F8E9CDF9EACEFAEBCFFB12020E85D0F0A8
:1003E0005804700320D5B3E80470075002B2D50258
:1003F000024D92D5EC0460F7E4CCC0E0C398F860FD
:100400003B94186008400DD0E0FB020225E4FBFAA3
:10041000C9FC8028E830E406E4C9FBE4CAFCE83003
:10042000E305E4C9CACBFCE854076010F8C3E9133C
:10043000F9EA13FAEB13FBEC13FCD8F130F52FC3F8
:10044000E49CFCEF9BFFEE9AFEED99FDD0E0FBEF04
:100450004E4D4C701222DB0302024AEC2CFCEF33AF
:10046000FFEE33FEED33FDED30E7EB020225EF2B1F
:10047000FFEE3AFEED39FDD0E0FB50130BBB00035D
:1004800002024DED13FDEE13FEEF13FFEC13FC0221
:10049000022502024DEC5D046005E8590470030278
:1004A000024312020E580460F6EC4860F2EC70044D
:1004B000FDFEFF22C860DB2481C85009C39860029A
:1004C000500602024A9850CAF582E9294B4A700543
:1004D000AB8202023975F0007C1A7880C3EF9BEE84
:1004E0009AED99400DC3EF9BFFEE9AFEED99FDE862
:1004F00042F0DC23ACF0D0E0FFD0E0FED0E0FDAB7A
:100500008220E7101BEB60BAEC2CFCEF33FFEE33DC
:10051000FEED33FD020225E803F830E705C0F07573
:10052000F000EF2FFFEE33FEED33FD40B830E7C2B1
:1005300080AA3F8000004120000042C80000447AA9
:100540000000461C400047C35000497424004B186B
:1005500096804CBEBC205A0E1BCA6753C21C749DA9
:10056000C5AEFB60065407601C2323120590EB54B4
:1005700038600912057C12058B12001AECF8EDF9AF
:10058000EEFAEFCB22EB12058B80F1543803241CDA
:10059000900532FE93FC0EEE93FD0EEE930ECE937D
:1005A000FF22BB010689828A83E0225002E722BB38
:1005B000FE02E32289828A83E49322BB010CE58256
:1005C00029F582E5833AF583E0225006E92582F891
:1005D000E622BBFE06E92582F8E222E58229F582C1
:1005E000E5833AF583E49322BB010689828A83F08E
:1005F000225002F722BBFE01F322EF8DF0A4A8F0F7
:10060000CF8CF0A428CE8DF0A42EFE22C5F0F8A346
:10061000E028F0C5F0F8E582158270021583E03815
:10062000F022EF2BFFEE3AFEED39FDEC38FC22E82C
:100630008FF0A4CC8BF0A42CFCE98EF0A42CFC8AC7
:10064000F0EDA42CFCEA8EF0A4CDA8F08BF0A42D44
:10065000CC3825F0FDE98FF0A42CCD35F0FCEB8EE5
:10066000F0A4FEA9F0EB8FF0A4CFC5F02ECD39FE9B
:10067000E43CFCEAA42DCE35F0FDE43CFC2275F010
:1006800008758200EF2FFFEE33FECD33CDCC33CC97
:10069000C58233C5829BED9AEC99E58298400CF5B2
:1006A00082EE9BFEED9AFDEC99FC0FD5F0D6E4CEE0
:1006B000FBE4CDFAE4CCF9A88222B800C1B9005914
:1006C000BA002DEC8BF084CFCECDFCE5F0CBF978E1
:1006D00018EF2FFFEE33FEED33FDEC33FCEB33FB75
:1006E00010D703994004EB99FB0FD8E5E4F9FA22FF
:1006F0007818EF2FFFEE33FEED33FDEC33FCC933FA
:10070000C910D7059BE99A4007EC9BFCE99AF90FC1
:10071000D8E0E4C9FAE4CCFB2275F010EF2FFFEE2D
:1007200033FEED33FDCC33CCC833C810D7079BEC78
:100730009AE899400AED9BFDEC9AFCE899F80FD5F0
:10074000F0DAE4CDFBE4CCFAE4C8F922EF4BFFEE9B
:100750004AFEED49FDEC48FC22C3E49FFFE49EFE07
:10076000E49DFDE49CFC22E8600FECC313FCED1358
:10077000FDEE13FEEF13FFD8F122E8600FEFC33355
:10078000FFEE33FEED33FDEC33FCD8F122BB010765
:1007900089828A830207C75005E9F8020979BBFEFE
:1007A00005E9F802098589828A83020991BB01075C
:1007B00089828A830207DF5005E9F80209A1BBFE9E
:1007C00005E9F80209AD22E0FCA3E0FDA3E0FEA3E9
:1007D000E0FF22E0F8A3E0F9A3E0FAA3E0FB22ECBB
:1007E000F0A3EDF0A3EEF0A3EFF022E0FBA3E0FA1C
:1007F000A3E0F922F8E0FBA3A3E0F925F0F0E582FD
:10080000158270021583E0FA38F022EBF0A3EAF0CB
:10081000A3E9F022E493FB740193FA740293F922A2
:10082000D083D082F8E4937012740193700DA3A367
:1008300093F8740193F5828883E47374029368607B
:10084000EFA3A3A380DFE5162582F582E5153583A6
:10085000F583B515048582162210AF06858216F53C
:100860001522858216F515D2AF22EC8EF0A4CCC5E8
:10087000F0CCCDF8EFA4CEC5F02DFDE43CFCE8A40F
:100880002EC8C5F03DFDE43CFCEFA4FFE5F028FEDA
:10089000E43DFDE43CFC22E709F608DFFA8046E788
:1008A00009F208DFFA803E88828C83E709F0A3DF33
:1008B000FA8032E309F608DFFA806EE309F208DF16
:1008C000FA806688828C83E309F0A3DFFA805A8974
:1008D000828A83E0A3F608DFFA804E89828A83E069
:1008E000A3F208DFFA804280D280FA80C680D480EA
:1008F0005580F28029801080A680EA809A80A880A6
:10090000DA80E280CA802988848C8589828A83E49F
:1009100093A30586F0A30586DFF5DEF3800B8982BD
:100920008A83E493A3F608DFF9ECFAA9F0EDFB2241
:1009300088848C8589828A83E0A30586F0A3058656
:10094000DFF6DEF480E389828A83E493A3F208DF92
:10095000F980D688F0EF60010E4E60CD88F0ED246E
:1009600002B4040050C3F582EB2402B4040050B971
:1009700023234582239008E773E6FC08E6FD08E69A
:10098000FE08E6FF22E2FC08E2FD08E2FE08E2FFC4
:1009900022E493FC740193FD740293FE740393FFAD
:1009A00022ECF608EDF608EEF608EFF622ECF20877
:1009B000EDF208EEF208EFF22290010AE4F0900165
:1009C0000BE4F090010C7401F090010D7401F090B3
:1009D000010EE4F090010F7401F09001107401F029
:1009E0009001117401F09001127401F090011374E0
:1009F00001F0900114E4F0A3E4F0900116E4F0A3F8
:100A0000E4F0D2AF9044F474FDF07E1A7F12121A13
:100A1000A4121BBA121C5E121BCF7FE87E037D005E
:100A20007C0012160F121CD550FB121CB21205A22C
:100A3000FFEF131313541FFFEF30E0EE7D7F7F00B5
:100A4000121776900262E0FFEFB401F7121CB2C0F9
:100A500003C002C0017B017A01797CA801AC02AD20
:100A600003D001D002D0037E007F0612095390010B
:100A70007DE0FFEF30E52D90010DE0FFEF602B9062
:100A8000010EE0FFEFB4020790010EE4F0800E903B
:100A9000010EE0FFEF700690010E7402F090010D60
:100AA000E4F0800690010D7401F090017DE0FFEF0D
:100AB00030E41D90010CE0FFEF601B90010EE0FFA1
:100AC000EF700690010E7401F090010CE4F08006C6
:100AD00090010C7401F090017DE0FFEF30E2519045
:100AE000010FE0FFEF604F90010EE0FFEFB402084E
:100AF00090010E7403F0803190010EE0FFEFB4031B
:100B00000890010E7402F0802090010EE0FFEFB417
:100B1000060890010E7407F0800F90010EE0FFEFC1
:100B2000B4090690010E7402F090010FE4F0800603
:100B300090010F7401F090017DE0FFEF30E04090F4
:100B40000110E0FFEF603E90010EE0FFEFB40308FC
:100B500090010E7404F0802090010EE0FFEFB404C9
:100B60000890010E7403F0800F90010EE0FFEFB4C7
:100B7000070690010E7408F0900110E4F0800690D2
:100B800001107401F090017DE0FFEF30E32F900140
:100B900011E0FFEF602D90010EE0FFEFB40408902C
:100BA000010E7405F0800F90010EE0FFEFB408060F
:100BB00090010E7409F0900111E4F080069001118B
:100BC0007401F090017DE0FFEF30E11E900112E032
:100BD000FFEF601C90010EE0FFEFB4050690010EE0
:100BE0007406F0900112E4F080069001127401F096
:100BF00090010EE0FFEF700B12196290010AE4F011
:100C0000020D8490010EE0FFEF6401704390010A31
:100C1000E0FFEF701712190690010A7401F07F1EB1
:100C20007E007D007C0012160F020D841219347FA5
:100C30002C7E017D007C0012160F1218D87F587E82
:100C4000027D007C0012160F90010EE4F0020D846C
:100C500090010EE0FFEFB4022A1218D890010BE0C9
:100C6000FFEF64016003020D847F327E007D007C13
:100C70000012160F7D7F7F0112177690010BE4F0B2
:100C8000020D8490010EE0FFEFB4031990010B7484
:100C900001F07D1E7F011217767D4B7C007F0112D3
:100CA000158F020D8490010EE0FFEFB4041E7D0449
:100CB0007C007F0212158F7D007C007F0312158F50
:100CC0007DC47CFF7F0412158F020D8490010EE01D
:100CD000FFEFB405137D647F001217767D877C00DB
:100CE0007F0012158F020D8490010EE0FFEF640665
:100CF000703F7D287F011217767D057C007F0112F1
:100D0000158F7DD37CFF7F0212158F7D057C007FC0
:100D10000312158F7D007C007F0412158F7FC87E23
:100D2000007D007C0012160F7D7F7F0112177680F8
:100D30005390010EE0FFEFB407127D1E7F011217E2
:100D4000767D9C7CFF7F0112158F803890010EE02C
:100D5000FFEFB4081D7D007C007F0212158F7D001F
:100D60007C007F0312158F7D1E7C007F0412158F7F
:100D7000801290010EE0FFEFB409097DBA7CFF7F7D
:100D80000012158F900262E4F0020A43227B007A7F
:100D90004679E8121C9AEF4405FD7B007A4679E813
:100DA000121CA6751400E514C3940B503AAF14EF4F
:100DB00075F005A424DAF582E4341CF583AF82AE25
:100DC000838E088F09AE08AF098F828E83120814B4
:100DD000AE08AF098F828E83740393FC740493FD75
:100DE000121B18051480BF751400E514C39401503C
:100DF00078AF14EF75F008A42411F582E4341DF5E2
:100E000083AF82AE838E0A8F0BAE0AAF0B8F828EBA
:100E1000831208148B0C8A0D890EAE0AAF0B8F82D9
:100E20008E83A3A3A31208148B0F8A108911AE0A14
:100E3000AF0B8F828E83740693F512740793F513AC
:100E4000AB0FAA10A911C003C002C001AB0CAA0DC0
:100E5000A90E90010F12080BD001D002D003AF13DE
:100E6000AE12121871051480817B087A0079001285
:100E700019907B017A507903121C9AEF4402FD7B92
:100E8000017A507903121CA67B017A507913121C47
:100E90009AEF4402FD7B017A507913121CA690430D
:100EA000A0E0FFEF4440FF9043A0EFF09043C2E08A
:100EB000FFEF4410FF9043C2EFF07B087A0679BC45
:100EC000C003C002C0017B007A51791290010F1259
:100ED000080BD001D002D0037F087E001218717B6E
:100EE000087A0679C4C003C002C0017B007A517938
:100EF0004090010F12080BD001D002D0037F0A7E70
:100F0000001218717B087A0679D0C003C002C001B4
:100F10007B007A51795090010F12080BD001D0025A
:100F2000D0037F0A7E001218719044F47401F0908F
:100F30004322E0FFEF4408FF904322EFF09046EC9D
:100F4000E0FFEFC394055006904689743AF090484C
:100F50000074F1F012114C90480074B1F012183B7B
:100F60007B007A4379A0C003C002C0017B007A43B2
:100F700079B090010F12080BD001D002D0037F0E80
:100F80007E001218719043B0E0FFEF54FDFFEFF0C8
:100F900022C0E0C0F0C083C082C085C084C0867516
:100FA0008600C093759300C0D075D000C000C0010A
:100FB000C002C003C004C005C006C007121C3890A0
:100FC0000108EFF0900108E0FFEF20E3099001082D
:100FD000E0FFEF30E105D200021129C200121BF937
:100FE000900106EEF0A3EFF0900106E0FEA3E0FF13
:100FF000EEFF7E007E00EF54DFFFEF4E6003021134
:1010000029900106E0FEA3E0FF7E00EF5407FFD326
:10101000EF9405EE94004003021114900107E0FFE5
:10102000EF30E345900106E0FEA3E0FFEEC4F85484
:10103000F0C868FEEFC4540F48FF7E00EF540FFF66
:10104000EF540FFF900106E0FCA3E0FD7C00ED549F
:1010500007FD74582DF58274023CF583E0FEEE54D2
:10106000F0FEEE4FFFEFF08048900106E0FEA3E0B7
:10107000FFEEC4F854F0C868FEEFC4540F48FF7E7A
:1010800000EF540FFFEF540FFFEFC454F0FF900137
:1010900006E0FCA3E0FD7C00ED5407FD74582DF53F
:1010A0008274023CF583E0FEEE540FFEEE4FFFEF3C
:1010B000F0900256E0FFEFB40129900106E0FEA394
:1010C000E0FF7E00EF5407FFEF4E7017900257E0ED
:1010D000FFEFD394014004C2018026900257E00440
:1010E000F0801E900106E0FEA3E0FF7E00EF5407B3
:1010F000FFD3EF9401EE94004007D201900257E431
:10110000F0900106E0FEA3E0FF7E00EF5407FF90A1
:101110000256EFF0900106E0FEA3E0FFEEFF7E0036
:101120007E00EF30E503020FDDD007D006D005D0FA
:1011300004D003D002D001D000D0D0D093D086D03C
:1011400084D085D082D083D0F0D0E0327B007A404A
:1011500079807D197C00121C7E9040827418F07B8F
:10116000007A4079847D4D7C00121C7E904086740C
:1011700018F07B007A4079887D387C01121C7E90C3
:10118000408A7418F07B007A40798C7D2F7C751230
:101190001C7E90408E7419F09043007402F09040D1
:1011A000007408F09042007403F07B0C7A01790817
:1011B000121C9A9046A1EFF07B007A4279227D08BA
:1011C0007C00121C7E7B007A4279207D517C1212B9
:1011D0001C7E90010EE4F07F197E007D007C009063
:1011E000010A1207DF90010A1207C7D3EF9400EE3D
:1011F0009400404E90010EE0FFEF64036044904283
:1012000025E0FFEF5401FF7E0090010EE0FEEE2589
:10121000E0FEEE4FFFEF5403FF90010EEFF07FE092
:101220007E017D007C0012180090010A1207C77B26
:10123000FF7AFF79FF78FF12062290010A1207DF7A
:1012400080A390010A1207C7EF4E70057F03121C9E
:101250004C7B007A4079047D007C01121C7E90401A
:10126000047407F0904006E4F09040087448F09051
:101270004004E4F09040017402F09043A2E0FFEFDC
:10128000440FFF9043A2EFF022C0E0C083C082C0B1
:1012900085C084C086758600C093759300C0D075E4
:1012A000D000C006C007900199E4F0A2AFE433FF7C
:1012B00090019AEFF0D2AF9044F474FDF090646224
:1012C000E0FF900198EFF0900198E0FF900197EF18
:1012D000F0900198E0FFEF541EFF7E00EF4E601685
:1012E000900002E0FF900198E0FEEE541EFEEF4EEB
:1012F000FF900002EFF0900198E0FFEF30E566907C
:101300006441E0FF900197EFF0900197E0FF9001BA
:1013100004E0FE74052EF582E43400F583EFF090CE
:1013200001997401F0900199E0FFEF60389000039B
:10133000E0FFEF60069000017401F0900104E0040A
:10134000F0900104E0FFEFC394FF4005900104E436
:10135000F0900004E0FF900104E0FEEEB507069077
:1013600000037401F0900198E0FFEF30E5030212F2
:10137000BD90019AE0FFEF24FF92AFD007D006D0D6
:10138000D0D093D086D084D085D082D083D0E032A4
:1013900075930078007583467582E8E04401F0009B
:1013A0009046ECE0F99046FAE0FAB903225420B4F2
:1013B0000012B8001AEA900FFFF07401900FFEF0CF
:1013C0009046F6F0900FFEE06005900FFFE0FA9077
:1013D000480074C0F075812090000078007910E416
:1013E000F0A3D8FCD9FAEA900251F0020011751569
:1013F0000F7516FD120D8D0214350209B9E493A381
:10140000F8E493A34003F68001F208DFF48029E4B6
:1014100093A3F85407240CC8C333C4540F4420C802
:10142000834004F456800146F6DFE4800B01020499
:1014300008102040809016D4E47E019360BCA3FF86
:10144000543F30E509541FFEE493A360010ECF54CE
:10145000C025E060A840B8E493A3FAE493A3F8E4BD
:1014600093A3C8C582C8CAC583CAF0A3C8C582C829
:10147000CAC583CADFE9DEE780BEC0E0C083C082A0
:10148000C085C084C086758600C093759300C0D0A7
:1014900075D000C006C007A2AFE433FF90019BEFF8
:1014A000F0D2AF9044F474FDF0900202E0FF90019E
:1014B0009DE0FEEE6F6037906464E0FFEF20E22E67
:1014C00090019DE0FFEFC39464400590019DE4F01E
:1014D00090019DE0FF749E2FF582E43401F583E0D6
:1014E000FF906444EFF090019DE004F080BB900118
:1014F0009BE0FFEF24FF92AFD007D006D0D0D0936F
:10150000D086D084D085D082D083D0E03290018242
:10151000EFF0900183ECF0A3EDF0900182E0FFEF9B
:10152000D3941F5003D38001C340057F00121C23B6
:10153000900182E0FFEF541FFF7E00EF25E0FFEEF9
:1015400033FEEF2400FFEE3444FEAA06A9077B0118
:10155000121C71900185EEF0A3EFF0900182E0FF84
:101560007E02EF8EF0A4FFAEF0EF2400FFEE3444D5
:10157000FEAA06A9077B01900183E0FEA3E0FFAD70
:1015800007AC06121C80900185E0FEA3E0FF2290CC
:101590000182EFF0900183ECF0A3EDF0900183E085
:1015A000FEA3E0FF7C007D1E1205FAC3744C9FFF72
:1015B000741D9EFE900185EEF0A3EFF0900182E095
:1015C000FFEF4480FF900188EFF0900185E0FEA3DB
:1015D000E0FFEF7807CEA2E713CE13D8F8FFEF5461
:1015E0007FFF900189EFF0900185E0FEA3E0FFEF1F
:1015F000547FFF90018AEFF07B017A0179887D03A7
:1016000012172E7F017E007D007C0012160F2290A3
:10161000FFFC1208461207DF851583851682120724
:10162000C7D3EF9400EE9480402F9002521207C768
:10163000121800851583851682C083C0821207C7E1
:10164000EF2400FFEE3480FEED34FFFDEC34FFFCB0
:10165000D082D0831207DF80BF9002481207C7856F
:1016600015838516821207D312062F1218009000D8
:101670000412084622900182EFF0900183EDF09071
:101680000183E0FFEFD394075003D38001C34005EB
:101690007F00121C23900182E0FFEFD3941F5003C0
:1016A000D38001C340057F00121C23900183E0FF1B
:1016B000EF5407FF7E00EF75F020A4FFAEF090011D
:1016C00082E0FEEE541FFE74802EF582E43444F571
:1016D00083EFF02242025E000042026000004102FD
:1016E0005700410105004100020041000400410192
:1016F00004004100030041000100410203004101D8
:101700009D00410202004102680044024D016E3614
:101710000044024800005DC041024C184402522EB1
:10172000E0000043026300000041026900009001F4
:101730009112080B900194EDF0900195E4F0900166
:1017400005E0FFEF602F900194E0FF900195E0FE2F
:10175000EEC39F50209001911207EB900195E0FF9E
:10176000E92FF9E43AFA1205A2FF121AFF90019547
:10177000E004F080D122900182EFF0900183EDF03F
:10178000900182E0FFEF44C0FF900184EFF09001F0
:10179000857402F0900183E0FF900186EFF07B01F9
:1017A0007A0179847D0312172E7F017E007D007CF3
:1017B0000012160F22121C0E900182EFF09064911D
:1017C000E0FFEF4420FFEFF0906492E0FFEF441061
:1017D000FFEFF09044C07404F0906596E0FFEF4492
:1017E00010FFEFF0121B49900182E0FF121B312223
:1017F000906547E0FF900109EFF0900109E0FF22BA
:10180000EC4D4E700D78FCEF24E950032840FD228A
:1018100000007BF178DA0000EF28FF78FFEE38FE59
:10182000ED38FDEC38FC50E7EF2BFFEE38FEED38DD
:10183000FDEC38FC40F222050203047B0C7A0179AE
:10184000CF121C9A90010AEFF090010AE0FFEF54CA
:1018500007FF90586EEFF090010AE0FFEFC4540FBD
:10186000FFEF540FFF90586FEFF09058767444F0EC
:1018700022758600EF4E6027EF60010E7593009091
:10188000010FE0F595A3E0F585A3E0F5848B938A3D
:10189000838982E0A30586F0A31586DFF6DEF4E4F3
:1018A000F593F595227C127D897F0212150D7D0737
:1018B0007F02121675900002E4F09064817472F059
:1018C0009064827420F09064227406F09064327404
:1018D00047F0906586E4F0227DBA7CFF7F00121508
:1018E0008F7D057C007F0112158F7DD37CFF7F02E9
:1018F00012158F7D057C007F0312158F7D007C0003
:101900007F0412158F227DBA7CFF7F0012158F7D18
:10191000D37CFF7F0112158F7DA67CFF7F021215FD
:101920008F7D057C007F0312158F7D2D7C007F0449
:1019300012158F227DBA7CFF7F0012158F7DB07C3F
:10194000FF7F0112158F7D007C007F0212158F7DB5
:10195000057C007F0312158F7DF17CFF7F0412153B
:101960008F227DBA7CFF7F0012158F7D057C007F62
:101970000112158F7D927CFF7F0212158F7D057CF1
:10198000007F0312158F7D007C007F0412158F22CB
:10199000ACEAADA08B938A838982E0F96017A3E05B
:1019A000F5EAA3E0F5A0A3E060F4FAA3E0F8A3E071
:1019B000F2DAF8D9E98DA08CEAE4F59322121C0E34
:1019C000900182EFF0906494E0FFEF4410FFEFF09D
:1019D0009044D87402F09044C07402F0121B6090DE
:1019E0000182E0FF121B3122121C0E900182EFF0E7
:1019F000906497E0FFEF4420FFEFF0906597E0FFE1
:101A0000EF4410FFEFF0121B77900182E0FF121BF2
:101A10003122C0E0C083C082C085C084C086758684
:101A200000C0937593009002627401F0D093D08649
:101A3000D084D085D082D083D0E032121C0E9001A9
:101A400082EFF0906597E0FFEF4401FFEFF09065C3
:101A500097E0FFEF54FEFFEFF0900182E0FF121BD2
:101A600031227C147D7A7F0112150D7D077F0112D2
:101A700016759064237406F09064337447F0906494
:101A8000847402F022900182EEF0A3EFF0121CC0E9
:101A9000900182E0FEA3E0FF121AC37F07121B8EA3
:101AA000121CB922900182EEF0A3EFF0121CCE902E
:101AB0000182E0FEA3E0FF121AE17F07121BA412CD
:101AC0001CC722900184EEF0A3EFF07B027A4479E8
:101AD00000900184E0FEA3E0FFAD07AC06121C807D
:101AE00022900184EEF0A3EFF07B027A4479069015
:101AF0000184E0FEA3E0FFAD07AC06121C8022903B
:101B00000196EFF0906566E0FFEF20E2F790019616
:101B1000E0FF906446EFF022EC4D6011ED60010CA7
:101B20008B938A838982E4F0A3DDFCDCFA75930051
:101B300022EF54016004D2AF8002C2AFEF5402FF23
:101B40009044F4E054FD4FF0229043A2E0FFEF44B4
:101B500001FFEFF09043B2E0FFEF4401FFEFF0220E
:101B60009043A2E0FFEF4404FFEFF09043B2E0FFA8
:101B7000EF4404FFEFF0229043A2E0FFEF4402FFA6
:101B8000EFF09043B2E0FFEF4402FFEFF02290014C
:101B900084EFF0900184E0FFEFC43354E0FF904401
:101BA00080EFF022900184EFF0900184E0FFEFC419
:101BB0003354E0FF904483EFF022900105E0FFEF03
:101BC00070091218A59001057401F01217B5229042
:101BD0000203E0FFEF7009121A629002037401F031
:101BE0001219BD22900268E0FFEF7009121C8D905F
:101BF00002687401F01219E822121C387E00EF7D91
:101C000000FC1217F07E00EC4EFEED4FFF229044D8
:101C1000F4E0F84402F0E85402FF10AF012274012E
:101C20004FFF2290FFFF120846EFF09046EA740142
:101C3000F090000112084622906567E0FFEF547FA4
:101C4000FF900109EFF0900109E0FF2290010FEFF2
:101C5000F090010FE0FF90010FEFF080FE22121BC9
:101C6000E4121A3B7E0F7F91121A85121CB9228B47
:101C7000938A838982E0FFA3E0FE759300228B9311
:101C80008A838982EDF0A3ECF0759300229064873B
:101C90007472F0906587742AF0228B938A8389820C
:101CA000E0759300FF228B938A838982EDF0759310
:101CB00000227B017A027958229044C07401F022FC
:101CC0009044C87401F0229044C07408F0229044FB
:101CD000C87408F022A20122323200510000100024
:101CE0005120002000516000100051C00010005130
:101CF000F0001001000000800101000F000114003D
:101D000008000140000A00014C00020001500000E0
:091D10002001008008063C00805F
:00000001FF
