:100000000212B5008F828E83E0540100000070F868
:100010002278FFE4F6D8FD021313EC4D6011E84995
:100020007017ED33EC3304600DE4FCFFFEFD22E9B4
:1000300033E8330470F802024312020E58046009D8
:10004000E4CC2481500628500902024D28400302C6
:10005000024AC0E0EB4A7044B98006D0E0FB0202DD
:1000600039EF4E701CBD8008EBFFEAFEE9FD80EB26
:10007000E98DF0A4FEE5F0020103E9CDF9EAFEEB1B
:10008000FFEF89F0A4FCE5F0CE89F0A42EFFE43563
:10009000F0CD89F0A42DFEE435F08067EF4E7005B9
:1000A000BD80D780C3EF8BF0A4ACF0EE8BF0A42C16
:1000B000FCE435F0F8EF8AF0A42CE5F038FCE433EA
:1000C000CB8DF0A42CFCE5F03BF8EE8AF0A42CFCE0
:1000D000E5F038F8E433CF89F0A42CFCE5F038CF14
:1000E0003400CE89F0A42FFFE5F03EFEE433C98D45
:1000F000F0A42EFEE5F039CD8AF0A42FFFE5F03E06
:10010000FEE43DFD33D0E0FB50070BBB000F0202C5
:100110004DEC2CFCEF33FFEE33FEED33FD020225F8
:1001200074F8CC6480CCC86480C8F58204604FC386
:10013000EB9FF5F0EA9E42F0E99D42F0E89C45F025
:10014000603C501DE5825FFFE582D313CB5BCBF4AF
:100150002B5582FB50280ABA002409B900200880D8
:100160001DE5825BFBE582D313CF5FCFF4C3132F72
:100170005582FF50090EBE00050DBD00010CC3EBFA
:100180009FF5F0EA9E42F0E99D42F0E89C45F06060
:1001900007CC4820E701B3EC2275F020800E75F003
:1001A00010800575F0087D007E007F003392D53009
:1001B000D503120759EC334010EF33FFEE33FEED59
:1001C00033FDEC33FCD5F0ED22E5F0247EA2D5130F
:1001D000CC92E7CDCEFF22EDD2E7CD33EC3392D5F2
:1001E00024814006E4FFFEFDFC22FCE4CFCECDCC12
:1001F00024E0501174FF80EDC3CC13CCCD13CDCED1
:1002000013CECF13CF0470F030D5DE020759E9D2F8
:10021000E7C933E833F892D5EDD2E7CD33EC33FCC0
:100220005002B2D522EC30E7100FBF000C0EBE001A
:10023000080DBD00040BEB6014A2D5EB13FCED928E
:10024000E7FD2274FFFCFDFEFF22E480F8A2D574D6
:10025000FF13FC7D80E480EFF920E73624F950039A
:100260007907E4F42402FBE582158270021583DB32
:10027000F6E024FB501BE96014E4F0E5821582707F
:10028000021583E004F0B40A08E4F0D9EE7401F03A
:100290000A22C2D522ED33EC3392D5FA602AB4FF9C
:1002A00033EDC2E77BFF60067A0279BAE4227A0274
:1002B00079C320D5047A0279BE224E614E002B49C3
:1002C0004E46002D494E4600E47A08F0A3DAFC7B46
:1002D00000740722C083C082ECC0E0EDC0E0EEC035
:1002E000E0EFC0E0EA75F010A4CAABF075F04DA4E1
:1002F0002BFBE435F0FCEA2410FAEB34C5FBEC34BC
:10030000D9FCEDC2E7FF75F056A4F42411C5F0F452
:1003100034C58FF0A42AE5F03BE43CF020E714124A
:100320000562D0E0FFD0E0FED0E0FDD0E0FC12049A
:10033000958014F404120562D0E0FFD0E0FED0E016
:10034000FDD0E0FC12001AD082D083E0FAEDD2E7B3
:10035000CD33EC332482FBE4C3CF33CFCE33CECDC9
:1003600033CD33DBF37B0775F00A846004F0A31B05
:100370000AE5F0F0A38FF0740AA4FFACF08EF074DD
:100380000AA42CFEACF050010C8DF0740AA42CFDD4
:10039000E435F0F0A3DBDE740722020243E8648058
:1003A000F8E933E83360110460F0ED33EC337009A1
:1003B000E8FCE9FDEAFEEBFF220460DED3EB9FEAF6
:1003C0009EE99DE8C2E78CF0C2F795F0400CE8CCBE
:1003D000F8E9CDF9EACEFAEBCFFB12020E85D0F0A8
:1003E0005804700320D5B3E80470075002B2D50258
:1003F000024D92D5EC0460F7E4CCC0E0C398F860FD
:100400003B94186008400DD0E0FB020225E4FBFAA3
:10041000C9FC8028E830E406E4C9FBE4CAFCE83003
:10042000E305E4C9CACBFCE854076010F8C3E9133C
:10043000F9EA13FAEB13FBEC13FCD8F130F52FC3F8
:10044000E49CFCEF9BFFEE9AFEED99FDD0E0FBEF04
:100450004E4D4C701222DB0302024AEC2CFCEF33AF
:10046000FFEE33FEED33FDED30E7EB020225EF2B1F
:10047000FFEE3AFEED39FDD0E0FB50130BBB00035D
:1004800002024DED13FDEE13FEEF13FFEC13FC0221
:10049000022502024DEC5D046005E8590470030278
:1004A000024312020E580460F6EC4860F2EC70044D
:1004B000FDFEFF22C860DB2481C85009C39860029A
:1004C000500602024A9850CAF582E9294B4A700543
:1004D000AB8202023975F0007C1A7880C3EF9BEE84
:1004E0009AED99400DC3EF9BFFEE9AFEED99FDE862
:1004F00042F0DC23ACF0D0E0FFD0E0FED0E0FDAB7A
:100500008220E7101BEB60BAEC2CFCEF33FFEE33DC
:10051000FEED33FD020225E803F830E705C0F07573
:10052000F000EF2FFFEE33FEED33FD40B830E7C2B1
:1005300080AA3F8000004120000042C80000447AA9
:100540000000461C400047C35000497424004B186B
:1005500096804CBEBC205A0E1BCA6753C21C749DA9
:10056000C5AEFB60065407601C2323120590EB54B4
:1005700038600912057C12058B12001AECF8EDF9AF
:10058000EEFAEFCB22EB12058B80F1543803241CDA
:10059000900532FE93FC0EEE93FD0EEE930ECE937D
:1005A000FF22BB010689828A83E0225002E722BB38
:1005B000FE02E32289828A83E49322BB010CE58256
:1005C00029F582E5833AF583E0225006E92582F891
:1005D000E622BBFE06E92582F8E222E58229F582C1
:1005E000E5833AF583E49322BB010689828A83F08E
:1005F000225002F722BBFE01F322EF8DF0A4A8F0F7
:10060000CF8CF0A428CE8DF0A42EFE22C5F0F8A346
:10061000E028F0C5F0F8E582158270021583E03815
:10062000F022EF2BFFEE3AFEED39FDEC38FC22E82C
:100630008FF0A4CC8BF0A42CFCE98EF0A42CFC8AC7
:10064000F0EDA42CFCEA8EF0A4CDA8F08BF0A42D44
:10065000CC3825F0FDE98FF0A42CCD35F0FCEB8EE5
:10066000F0A4FEA9F0EB8FF0A4CFC5F02ECD39FE9B
:10067000E43CFCEAA42DCE35F0FDE43CFC2275F010
:1006800008758200EF2FFFEE33FECD33CDCC33CC97
:10069000C58233C5829BED9AEC99E58298400CF5B2
:1006A00082EE9BFEED9AFDEC99FC0FD5F0D6E4CEE0
:1006B000FBE4CDFAE4CCF9A88222B800C1B9005914
:1006C000BA002DEC8BF084CFCECDFCE5F0CBF978E1
:1006D00018EF2FFFEE33FEED33FDEC33FCEB33FB75
:1006E00010D703994004EB99FB0FD8E5E4F9FA22FF
:1006F0007818EF2FFFEE33FEED33FDEC33FCC933FA
:10070000C910D7059BE99A4007EC9BFCE99AF90FC1
:10071000D8E0E4C9FAE4CCFB2275F010EF2FFFEE2D
:1007200033FEED33FDCC33CCC833C810D7079BEC78
:100730009AE899400AED9BFDEC9AFCE899F80FD5F0
:10074000F0DAE4CDFBE4CCFAE4C8F922EF4BFFEE9B
:100750004AFEED49FDEC48FC22C3E49FFFE49EFE07
:10076000E49DFDE49CFC22E8600FECC313FCED1358
:10077000FDEE13FEEF13FFD8F122E8600FEFC33355
:10078000FFEE33FEED33FDEC33FCD8F122BB010765
:1007900089828A830207C75005E9F8020979BBFEFE
:1007A00005E9F802098589828A83020991BB01075C
:1007B00089828A830207DF5005E9F80209A1BBFE9E
:1007C00005E9F80209AD22E0FCA3E0FDA3E0FEA3E9
:1007D000E0FF22E0F8A3E0F9A3E0FAA3E0FB22ECBB
:1007E000F0A3EDF0A3EEF0A3EFF022E0FBA3E0FA1C
:1007F000A3E0F922F8E0FBA3A3E0F925F0F0E582FD
:10080000158270021583E0FA38F022EBF0A3EAF0CB
:10081000A3E9F022E493FB740193FA740293F922A2
:10082000D083D082F8E4937012740193700DA3A367
:1008300093F8740193F5828883E47374029368607B
:10084000EFA3A3A380DFE5162582F582E5153583A6
:10085000F583B515048582162210AF06858216F53C
:100860001522858216F515D2AF22EC8EF0A4CCC5E8
:10087000F0CCCDF8EFA4CEC5F02DFDE43CFCE8A40F
:100880002EC8C5F03DFDE43CFCEFA4FFE5F028FEDA
:10089000E43DFDE43CFC22E709F608DFFA8046E788
:1008A00009F208DFFA803E88828C83E709F0A3DF33
:1008B000FA8032E309F608DFFA806EE309F208DF16
:1008C000FA806688828C83E309F0A3DFFA805A8974
:1008D000828A83E0A3F608DFFA804E89828A83E069
:1008E000A3F208DFFA804280D280FA80C680D480EA
:1008F0005580F28029801080A680EA809A80A880A6
:10090000DA80E280CA802988848C8589828A83E49F
:1009100093A30586F0A30586DFF5DEF3800B8982BD
:100920008A83E493A3F608DFF9ECFAA9F0EDFB2241
:1009300088848C8589828A83E0A30586F0A3058656
:10094000DFF6DEF480E389828A83E493A3F208DF92
:10095000F980D688F0EF60010E4E60CD88F0ED246E
:1009600002B4040050C3F582EB2402B4040050B971
:1009700023234582239008E773E6FC08E6FD08E69A
:10098000FE08E6FF22E2FC08E2FD08E2FE08E2FFC4
:1009900022E493FC740193FD740293FE740393FFAD
:1009A00022ECF608EDF608EEF608EFF622ECF20877
:1009B000EDF208EEF208EFF22290010AE4F0900165
:1009C0000BE4F090010C7401F090010D7401F090B3
:1009D000010EE4F090010F7401F09001107401F029
:1009E0009001117401F09001127401F0900113E470
:1009F000F0A3E4F0900115E4F0A3E4F0D2AF90444A
:100A0000F474FDF07E197F471219BA121AD0121B26
:100A100074121AE57FE87E037D007C001215341203
:100A20001BFB50FB121BD81205A2FFEF131313542C
:100A30001FFFEF30E0EE7D7F7F0012169B9002617A
:100A4000E0FFEFB402F7121BD8C003C002C0017B65
:100A5000017A01797BA801AC02AD03D001D002D0AC
:100A6000037E007F0612095390017CE0FFEF30E522
:100A70002D90010DE0FFEF602B90010EE0FFEFB431
:100A8000020790010EE4F0800E90010EE0FFEF707F
:100A90000690010E7402F090010DE4F080069001C2
:100AA0000D7401F090017CE0FFEF30E41D90010C2B
:100AB000E0FFEF601B90010EE0FFEF700690010E6B
:100AC0007401F090010CE4F0800690010C7401F0C8
:100AD00090017CE0FFEF30E24090010FE0FFEF601B
:100AE0003E90010EE0FFEFB4020890010E7403F097
:100AF000802090010EE0FFEFB4030890010E740215
:100B0000F0800F90010EE0FFEFB4050690010E7427
:100B100006F090010FE4F0800690010F7401F09050
:100B2000017CE0FFEF30E02F900110E0FFEF602D3F
:100B300090010EE0FFEFB4030890010E7404F08002
:100B40000F90010EE0FFEFB4040690010E7403F065
:100B5000900110E4F080069001107401F090017C87
:100B6000E0FFEF30E31E900111E0FFEF601C900109
:100B70000EE0FFEFB4040690010E7405F090011131
:100B8000E4F080069001117401F090010EE0FFEF97
:100B9000700B12189790010AE4F0020CA990010E54
:100BA000E0FFEF6401704390010AE0FFEF7017125D
:100BB000183B90010A7401F07F1E7E007D007C00CE
:100BC000121534020CA91218697F2C7E017D007C5D
:100BD000001215341217B27F587E027D007C00127D
:100BE000153490010EE4F0020CA990010EE0FFEF25
:100BF000B4021F1217B290010BE0FFEF6401600313
:100C0000020CA97D7F7F0112169B90010BE4F0027C
:100C10000CA990010EE0FFEFB4031890010B7401D2
:100C2000F07D1E7F0112169B7D507C007F01121407
:100C3000B4807690010EE0FFEFB4041D7D047C00CB
:100C40007F021214B47D007C007F031214B47DC4B3
:100C50007CFF7F041214B4805090010EE0FFEFB4CB
:100C600005127D647F0012169B7D877C007F001239
:100C700014B4803590010EE0FFEF6406702B7D28E0
:100C80007F0112169B7D057C007F011214B47DD379
:100C90007CFF7F021214B47D057C007F031214B424
:100CA0007D007C007F041214B4900261E4F0020A1B
:100CB0003D227B007A4679E8121BC0EF4405FD7B9C
:100CC000007A4679E8121BCC751400E514C3940B26
:100CD000503AAF14EF75F005A424FFF582E4341BFD
:100CE000F583AF82AE838E088F09AE08AF098F827D
:100CF0008E83120814AE08AF098F828E837403931B
:100D0000FC740493FD121A2E051480BF751400E5BF
:100D100014C394015078AF14EF75F008A42436F58D
:100D200082E4341CF583AF82AE838E0A8F0BAE0A49
:100D3000AF0B8F828E831208148B0C8A0D890EAE36
:100D40000AAF0B8F828E83A3A3A31208148B0F8A82
:100D5000108911AE0AAF0B8F828E83740693F51241
:100D6000740793F513AB0FAA10A911C003C002C0FA
:100D700001AB0CAA0DA90E90010F12080BD001D0E7
:100D800002D003AF13AE1212174B051480817B08FB
:100D90007A0079001218C57B017A507903121BC0C2
:100DA000EF4402FD7B017A507903121BCC7B017A60
:100DB000507913121BC0EF4402FD7B017A50791366
:100DC000121BCC9043A0E0FFEF4440FF9043A0EF04
:100DD000F09043C2E0FFEF4410FF9043C2EFF07B7E
:100DE000087A0679BCC003C002C0017B007A517941
:100DF0001290010F12080BD001D002D0037F087EA1
:100E00000012174B7B087A0679C4C003C002C001E8
:100E10007B007A51794090010F12080BD001D0026B
:100E2000D0037F0A7E0012174B7B087A0679D0C068
:100E300003C002C0017B007A51795090010F120863
:100E40000BD001D002D0037F0A7E0012174B9044D2
:100E5000F47401F0904322E0FFEF4408FF90432236
:100E6000EFF09046ECE0FFEFC39405500690468902
:100E7000743AF090480074F1F012107190480074C8
:100E8000B1F01217157B007A4379A0C003C002C0ED
:100E9000017B007A4379B090010F12080BD001D08A
:100EA00002D0037F0E7E0012174B9043B0E0FFEF9D
:100EB00054FDFFEFF022C0E0C0F0C083C082C085C7
:100EC000C084C086758600C093759300C0D075D06D
:100ED00000C000C001C002C003C004C005C006C0FD
:100EE00007121B4E900108EFF0900108E0FFEF2081
:100EF000E309900108E0FFEF30E105D20002104E57
:100F0000C200121B0F900106EEF0A3EFF090010655
:100F1000E0FEA3E0FFEEFF7E007E00EF54DFFFEF78
:100F20004E600302104E900106E0FEA3E0FF7E003B
:100F3000EF5407FFD3EF9405EE94004003021039FD
:100F4000900107E0FFEF30E345900106E0FEA3E0EB
:100F5000FFEEC4F854F0C868FEEFC4540F48FF7E9B
:100F600000EF540FFFEF540FFF900106E0FCA3E0E9
:100F7000FD7C00ED5407FD74572DF58274023CF59D
:100F800083E0FEEE54F0FEEE4FFFEFF0804890015C
:100F900006E0FEA3E0FFEEC4F854F0C868FEEFC41C
:100FA000540F48FF7E00EF540FFFEF540FFFEFC4C4
:100FB00054F0FF900106E0FCA3E0FD7C00ED540737
:100FC000FD74572DF58274023CF583E0FEEE540F5C
:100FD000FEEE4FFFEFF0900255E0FFEFB4012990D5
:100FE0000106E0FEA3E0FF7E00EF5407FFEF4E7026
:100FF00017900256E0FFEFD394014004C20180260F
:10100000900256E004F0801E900106E0FEA3E0FF8F
:101010007E00EF5407FFD3EF9401EE94004007D217
:1010200001900256E4F0900106E0FEA3E0FF7E008E
:10103000EF5407FF900255EFF0900106E0FEA3E0A9
:10104000FFEEFF7E007E00EF30E503020F02D007C7
:10105000D006D005D004D003D002D001D000D0D02B
:10106000D093D086D084D085D082D083D0F0D0E009
:10107000327B007A4079807D197C00121BA490405D
:10108000827418F07B007A4079847D4D7C00121BBD
:10109000A49040867418F07B007A4079887D387C73
:1010A00001121BA490408A7418F07B007A40798C5E
:1010B0007D2F7C75121BA490408E7419F090430014
:1010C0007402F09040007408F09042007403F07BCA
:1010D0000C7A017908121BC09046A1EFF07B007AD0
:1010E0004279227D087C00121BA47B007A42792081
:1010F0007D517C12121BA490010EE4F07F197E003A
:101100007D007C0090010A1207DF90010A1207C7D8
:10111000D3EF9400EE9400404E90010EE0FFEF6498
:10112000036044904225E0FFEF5401FF7E009001F0
:101130000EE0FEEE25E0FEEE4FFFEF5403FF9001C0
:101140000EEFF07FE07E017D007C00121800900120
:101150000A1207C77BFF7AFF79FF78FF12062290F9
:10116000010A1207DF80A390010A1207C7EF4E7031
:10117000057F03121B627B007A4079047D007C01AD
:10118000121BA49040047407F0904006E4F09040D5
:10119000087448F0904004E4F09040017402F0902C
:1011A00043A2E0FFEF440FFF9043A2EFF022C0E024
:1011B000C083C082C085C084C086758600C0937518
:1011C0009300C0D075D000C006C007900198E4F02D
:1011D000A2AFE433FF900199EFF0D2AF9044F474E2
:1011E000FDF0906462E0FF900197EFF0900197E0CE
:1011F000FF900196EFF0900197E0FFEF541EFF7E05
:1012000000EF4E6016900002E0FF900197E0FEEEC6
:10121000541EFEEF4EFF900002EFF0900197E0FFAA
:10122000EF30E566906441E0FF900196EFF09001A9
:1012300096E0FF900104E0FE74052EF582E4340090
:10124000F583EFF09001987401F0900198E0FFEFC2
:101250006038900003E0FFEF60069000017401F039
:10126000900104E004F0900104E0FFEFC394FF401C
:1012700005900104E4F0900004E0FF900104E0FE1A
:10128000EEB507069000037401F0900197E0FFEFC0
:1012900030E5030211E2900199E0FFEF24FF92AFE5
:1012A000D007D006D0D0D093D086D084D085D0823D
:1012B000D083D0E03275930078007583467582E85C
:1012C000E04401F0009046ECE0F99046FAE0FAB90B
:1012D00003225420B40012B8001AEA900FFFF074F1
:1012E00001900FFEF09046F6F0900FFEE060059042
:1012F0000FFFE0FA90480074C0F075812090000064
:1013000078007910E4F0A3D8FCD9FAEA900250F002
:1013100002001175150F7516FD120CB202135A0258
:1013200009B9E493A3F8E493A34003F68001F2081B
:10133000DFF48029E493A3F85407240CC8C333C412
:10134000540F4420C8834004F456800146F6DFE47D
:10135000800B01020408102040809015F9E47E0102
:101360009360BCA3FF543F30E509541FFEE493A3F0
:1013700060010ECF54C025E060A840B8E493A3FA02
:10138000E493A3F8E493A3C8C582C8CAC583CAF08E
:10139000A3C8C582C8CAC583CADFE9DEE780BEC06C
:1013A000E0C083C082C085C084C086758600C093BB
:1013B000759300C0D075D000C006C007A2AFE4335B
:1013C000FF90019AEFF0D2AF9044F474FDF09002D8
:1013D00001E0FF90019CE0FEEE6F6037906464E0F6
:1013E000FFEF20E22E90019CE0FFEFC394644005E4
:1013F00090019CE4F090019CE0FF749D2FF582E445
:101400003401F583E0FF906444EFF090019CE00428
:10141000F080BB90019AE0FFEF24FF92AFD007D09D
:1014200006D0D0D093D086D084D085D082D083D03F
:10143000E032900181EFF0900182ECF0A3EDF090AA
:101440000181E0FFEFD3941F5003D38001C3400517
:101450007F00121B39900181E0FFEF541FFF7E00D7
:10146000EF25E0FFEE33FEEF2400FFEE3444FEAA4A
:1014700006A9077B01121B97900184EEF0A3EFF001
:10148000900181E0FF7E02EF8EF0A4FFAEF0EF242A
:1014900000FFEE3444FEAA06A9077B01900182E01A
:1014A000FEA3E0FFAD07AC06121BA6900184E0FE90
:1014B000A3E0FF22900181EFF0900182ECF0A3ED18
:1014C000F0900182E0FEA3E0FF7C007D1E1205FA91
:1014D000C3744C9FFF741D9EFE900184EEF0A3EF39
:1014E000F0900181E0FFEF4480FF900187EFF090E2
:1014F0000184E0FEA3E0FFEF7807CEA2E713CE134E
:10150000D8F8FFEF547FFF900188EFF0900184E05E
:10151000FEA3E0FFEF547FFF900189EFF07B017A9B
:101520000179877D031216537F017E007D007C00C8
:101530001215342290FFFC1208461207DF8515832E
:101540008516821207C7D3EF9400EE9480402F9047
:1015500002511207C7121800851583851682C083B1
:10156000C0821207C7EF2400FFEE3480FEED34FF87
:10157000FDEC34FFFCD082D0831207DF80BF9002E5
:10158000471207C78515838516821207D312062FC7
:1015900012180090000412084622900181EFF0908A
:1015A0000182EDF0900182E0FFEFD394075003D366
:1015B0008001C340057F00121B39900181E0FFEFDD
:1015C000D3941F5003D38001C340057F00121B3901
:1015D000900182E0FFEF5407FF7E00EF75F020A43A
:1015E000FFAEF0900181E0FEEE541FFE74802EF5F8
:1015F00082E43444F583EFF02242025D00004202AF
:101600005F00004102560041010500410002004117
:1016100000040041010400410003004100010041B9
:1016200002020041019C00410201004102670044A6
:10163000024C016E360044024700005DC041024B7F
:10164000184402512EE000004302620000004102F3
:1016500068000090019012080B900193EDF090014A
:1016600094E4F0900105E0FFEF602F900193E0FF1C
:10167000900194E0FEEEC39F50209001901207EB82
:10168000900194E0FFE92FF9E43AFA1205A2FF1263
:101690001A15900194E004F080D122900181EFF0BE
:1016A000900182EDF0900181E0FFEF44C0FF9001D6
:1016B00083EFF09001847402F0900182E0FF9001CA
:1016C00085EFF07B017A0179837D031216537F0148
:1016D0007E007D007C0012153422121B24900181B3
:1016E000EFF0906491E0FFEF4420FFEFF090649200
:1016F000E0FFEF4410FFEFF09044C07404F09065F9
:1017000096E0FFEF4410FFEFF0121A5F900181E0C6
:10171000FF121A47227B0C7A0179CF121BC090016D
:101720000AEFF090010AE0FFEF5407FF90586EEFC8
:10173000F090010AE0FFEFC4540FFFEF540FFF9049
:10174000586FEFF09058767444F022758600EF4E93
:101750006027EF60010E75930090010FE0F595A3EF
:10176000E0F585A3E0F5848B938A838982E0A30565
:1017700086F0A31586DFF6DEF4E4F593F595227C7A
:10178000117DAE7F021214327D077F0212159A90EE
:101790000002E4F09064817472F09064827420F02E
:1017A0009064227406F09064327447F0906586E489
:1017B000F0227DBA7CFF7F001214B47D057C007F8F
:1017C000011214B47DD37CFF7F021214B47D057C1A
:1017D000007F031214B47D007C007F041214B42235
:1017E000900181EEF0A3EFF0121BE6900181E0FE84
:1017F000A3E0FF1219D97F07121AA4121BDF2232AD
:10180000EC4D4E700D78FCEF24E950032840FD228A
:1018100000007BF178DA0000EF28FF78FFEE38FE59
:10182000ED38FDEC38FC50E7EF2BFFEE38FEED38DD
:10183000FDEC38FC40F222050203047DBA7CFF7FF8
:10184000001214B47DD37CFF7F011214B47DA67CFA
:10185000FF7F021214B47D057C007F031214B47D57
:101860002D7C007F041214B4227DBA7CFF7F00120D
:1018700014B47DB07CFF7F011214B47D007C007F26
:10188000021214B47D057C007F031214B47DF17C38
:10189000FF7F041214B4227DBA7CFF7F001214B4BF
:1018A0007D057C007F011214B47D927CFF7F0212C3
:1018B00014B47D057C007F031214B47D007C007F8E
:1018C000041214B422ACEAADA08B938A838982E01F
:1018D000F96017A3E0F5EAA3E0F5A0A3E060F4FA4D
:1018E000A3E0F8A3E0F2DAF8D9E98DA08CEAE4F5F8
:1018F0009322121B24900181EFF0906494E0FFEF9B
:101900004410FFEFF09044D87402F09044C0740289
:10191000F0121A76900181E0FF121A4722121B245E
:10192000900181EFF0906497E0FFEF4420FFEFF02B
:10193000906597E0FFEF4410FFEFF0121A8D9001D1
:1019400081E0FF121A4722C0E0C083C082C085C078
:1019500084C086758600C0937593009002617401FF
:10196000F0D093D086D084D085D082D083D0E0329E
:10197000121B24900181EFF0906597E0FFEF440186
:10198000FFEFF0906597E0FFEF54FEFFEFF090015E
:1019900081E0FF121A47227C137D9F7F01121432CF
:1019A0007D077F0112159A9064237406F0906433CA
:1019B0007447F09064847402F022900181EEF0A3E9
:1019C000EFF0121BF4900181E0FEA3E0FF1219F783
:1019D0007F07121ABA121BED22900183EEF0A3EFDB
:1019E000F07B027A447900900183E0FEA3E0FFAD32
:1019F00007AC06121BA622900183EEF0A3EFF07B4A
:101A0000027A447906900183E0FEA3E0FFAD07ACC3
:101A100006121BA622900195EFF0906566E0FFEF9D
:101A200020E2F7900195E0FF906446EFF022EC4D44
:101A30006011ED60010C8B938A838982E4F0A3DD51
:101A4000FCDCFA75930022EF54016004D2AF8002EF
:101A5000C2AFEF5402FF9044F4E054FD4FF02290E7
:101A600043A2E0FFEF4401FFEFF09043B2E0FFEF4D
:101A70004401FFEFF0229043A2E0FFEF4404FFEFA8
:101A8000F09043B2E0FFEF4404FFEFF0229043A256
:101A9000E0FFEF4402FFEFF09043B2E0FFEF4402BB
:101AA000FFEFF022900183EFF0900183E0FFEFC49D
:101AB0003354E0FF904480EFF022900183EFF090E8
:101AC0000183E0FFEFC43354E0FF904483EFF02242
:101AD000900105E0FFEF700912177F900105740176
:101AE000F01216DA22900202E0FFEF700912199745
:101AF0009002027401F01218F222900267E0FFEFE8
:101B00007009121BB39002677401F012191D2212A2
:101B10001B4E7E00EF7D00FC121B857E00EC4EFE0E
:101B2000ED4FFF229044F4E0F84402F0E85402FF45
:101B300010AF012274014FFF2290FFFF120846EF01
:101B4000F09046EA7401F090000112084622906578
:101B500067E0FFEF547FFF900109EFF0900109E08B
:101B6000FF2290010FEFF090010FE0FF90010FEFC7
:101B7000F080FE22121AFA1219707E0E7FB612172A
:101B8000E0121BDF22906547E0FF900109EFF09023
:101B90000109E0FF228B938A838982E0FFA3E0FEA4
:101BA000759300228B938A838982EDF0A3ECF07504
:101BB0009300229064877472F0906587742AF022F3
:101BC0008B938A838982E0759300FF228B938A83AB
:101BD0008982EDF0759300227B017A027957229079
:101BE00044C07401F0229044C87401F0229044C0B3
:101BF0007408F0229044C87408F022A20122320036
:101C000051000010005120002000516000100051D0
:101C1000C000100051F00010010000008001010020
:101C20000F0001140008000140000A00014C0002EE
:0E1C300000015000002001008008063C0080EA
:00000001FF
