:100000000210E8008F828E83E0540100000070F837
:100010002278FFE4F6D8FD021146EC4D6011E84964
:100020007017ED33EC3304600DE4FCFFFEFD22E9B4
:1000300033E8330470F802024312020E58046009D8
:10004000E4CC2481500628500902024D28400302C6
:10005000024AC0E0EB4A7044B98006D0E0FB0202DD
:1000600039EF4E701CBD8008EBFFEAFEE9FD80EB26
:10007000E98DF0A4FEE5F0020103E9CDF9EAFEEB1B
:10008000FFEF89F0A4FCE5F0CE89F0A42EFFE43563
:10009000F0CD89F0A42DFEE435F08067EF4E7005B9
:1000A000BD80D780C3EF8BF0A4ACF0EE8BF0A42C16
:1000B000FCE435F0F8EF8AF0A42CE5F038FCE433EA
:1000C000CB8DF0A42CFCE5F03BF8EE8AF0A42CFCE0
:1000D000E5F038F8E433CF89F0A42CFCE5F038CF14
:1000E0003400CE89F0A42FFFE5F03EFEE433C98D45
:1000F000F0A42EFEE5F039CD8AF0A42FFFE5F03E06
:10010000FEE43DFD33D0E0FB50070BBB000F0202C5
:100110004DEC2CFCEF33FFEE33FEED33FD020225F8
:1001200074F8CC6480CCC86480C8F58204604FC386
:10013000EB9FF5F0EA9E42F0E99D42F0E89C45F025
:10014000603C501DE5825FFFE582D313CB5BCBF4AF
:100150002B5582FB50280ABA002409B900200880D8
:100160001DE5825BFBE582D313CF5FCFF4C3132F72
:100170005582FF50090EBE00050DBD00010CC3EBFA
:100180009FF5F0EA9E42F0E99D42F0E89C45F06060
:1001900007CC4820E701B3EC2275F020800E75F003
:1001A00010800575F0087D007E007F003392D53009
:1001B000D503120759EC334010EF33FFEE33FEED59
:1001C00033FDEC33FCD5F0ED22E5F0247EA2D5130F
:1001D000CC92E7CDCEFF22EDD2E7CD33EC3392D5F2
:1001E00024814006E4FFFEFDFC22FCE4CFCECDCC12
:1001F00024E0501174FF80EDC3CC13CCCD13CDCED1
:1002000013CECF13CF0470F030D5DE020759E9D2F8
:10021000E7C933E833F892D5EDD2E7CD33EC33FCC0
:100220005002B2D522EC30E7100FBF000C0EBE001A
:10023000080DBD00040BEB6014A2D5EB13FCED928E
:10024000E7FD2274FFFCFDFEFF22E480F8A2D574D6
:10025000FF13FC7D80E480EFF920E73624F950039A
:100260007907E4F42402FBE582158270021583DB32
:10027000F6E024FB501BE96014E4F0E5821582707F
:10028000021583E004F0B40A08E4F0D9EE7401F03A
:100290000A22C2D522ED33EC3392D5FA602AB4FF9C
:1002A00033EDC2E77BFF60067A0279BAE4227A0274
:1002B00079C320D5047A0279BE224E614E002B49C3
:1002C0004E46002D494E4600E47A08F0A3DAFC7B46
:1002D00000740722C083C082ECC0E0EDC0E0EEC035
:1002E000E0EFC0E0EA75F010A4CAABF075F04DA4E1
:1002F0002BFBE435F0FCEA2410FAEB34C5FBEC34BC
:10030000D9FCEDC2E7FF75F056A4F42411C5F0F452
:1003100034C58FF0A42AE5F03BE43CF020E714124A
:100320000562D0E0FFD0E0FED0E0FDD0E0FC12049A
:10033000958014F404120562D0E0FFD0E0FED0E016
:10034000FDD0E0FC12001AD082D083E0FAEDD2E7B3
:10035000CD33EC332482FBE4C3CF33CFCE33CECDC9
:1003600033CD33DBF37B0775F00A846004F0A31B05
:100370000AE5F0F0A38FF0740AA4FFACF08EF074DD
:100380000AA42CFEACF050010C8DF0740AA42CFDD4
:10039000E435F0F0A3DBDE740722020243E8648058
:1003A000F8E933E83360110460F0ED33EC337009A1
:1003B000E8FCE9FDEAFEEBFF220460DED3EB9FEAF6
:1003C0009EE99DE8C2E78CF0C2F795F0400CE8CCBE
:1003D000F8E9CDF9EACEFAEBCFFB12020E85D0F0A8
:1003E0005804700320D5B3E80470075002B2D50258
:1003F000024D92D5EC0460F7E4CCC0E0C398F860FD
:100400003B94186008400DD0E0FB020225E4FBFAA3
:10041000C9FC8028E830E406E4C9FBE4CAFCE83003
:10042000E305E4C9CACBFCE854076010F8C3E9133C
:10043000F9EA13FAEB13FBEC13FCD8F130F52FC3F8
:10044000E49CFCEF9BFFEE9AFEED99FDD0E0FBEF04
:100450004E4D4C701222DB0302024AEC2CFCEF33AF
:10046000FFEE33FEED33FDED30E7EB020225EF2B1F
:10047000FFEE3AFEED39FDD0E0FB50130BBB00035D
:1004800002024DED13FDEE13FEEF13FFEC13FC0221
:10049000022502024DEC5D046005E8590470030278
:1004A000024312020E580460F6EC4860F2EC70044D
:1004B000FDFEFF22C860DB2481C85009C39860029A
:1004C000500602024A9850CAF582E9294B4A700543
:1004D000AB8202023975F0007C1A7880C3EF9BEE84
:1004E0009AED99400DC3EF9BFFEE9AFEED99FDE862
:1004F00042F0DC23ACF0D0E0FFD0E0FED0E0FDAB7A
:100500008220E7101BEB60BAEC2CFCEF33FFEE33DC
:10051000FEED33FD020225E803F830E705C0F07573
:10052000F000EF2FFFEE33FEED33FD40B830E7C2B1
:1005300080AA3F8000004120000042C80000447AA9
:100540000000461C400047C35000497424004B186B
:1005500096804CBEBC205A0E1BCA6753C21C749DA9
:10056000C5AEFB60065407601C2323120590EB54B4
:1005700038600912057C12058B12001AECF8EDF9AF
:10058000EEFAEFCB22EB12058B80F1543803241CDA
:10059000900532FE93FC0EEE93FD0EEE930ECE937D
:1005A000FF22BB010689828A83E0225002E722BB38
:1005B000FE02E32289828A83E49322BB010CE58256
:1005C00029F582E5833AF583E0225006E92582F891
:1005D000E622BBFE06E92582F8E222E58229F582C1
:1005E000E5833AF583E49322BB010689828A83F08E
:1005F000225002F722BBFE01F322EF8DF0A4A8F0F7
:10060000CF8CF0A428CE8DF0A42EFE22C5F0F8A346
:10061000E028F0C5F0F8E582158270021583E03815
:10062000F022EF2BFFEE3AFEED39FDEC38FC22E82C
:100630008FF0A4CC8BF0A42CFCE98EF0A42CFC8AC7
:10064000F0EDA42CFCEA8EF0A4CDA8F08BF0A42D44
:10065000CC3825F0FDE98FF0A42CCD35F0FCEB8EE5
:10066000F0A4FEA9F0EB8FF0A4CFC5F02ECD39FE9B
:10067000E43CFCEAA42DCE35F0FDE43CFC2275F010
:1006800008758200EF2FFFEE33FECD33CDCC33CC97
:10069000C58233C5829BED9AEC99E58298400CF5B2
:1006A00082EE9BFEED9AFDEC99FC0FD5F0D6E4CEE0
:1006B000FBE4CDFAE4CCF9A88222B800C1B9005914
:1006C000BA002DEC8BF084CFCECDFCE5F0CBF978E1
:1006D00018EF2FFFEE33FEED33FDEC33FCEB33FB75
:1006E00010D703994004EB99FB0FD8E5E4F9FA22FF
:1006F0007818EF2FFFEE33FEED33FDEC33FCC933FA
:10070000C910D7059BE99A4007EC9BFCE99AF90FC1
:10071000D8E0E4C9FAE4CCFB2275F010EF2FFFEE2D
:1007200033FEED33FDCC33CCC833C810D7079BEC78
:100730009AE899400AED9BFDEC9AFCE899F80FD5F0
:10074000F0DAE4CDFBE4CCFAE4C8F922EF4BFFEE9B
:100750004AFEED49FDEC48FC22C3E49FFFE49EFE07
:10076000E49DFDE49CFC22E8600FECC313FCED1358
:10077000FDEE13FEEF13FFD8F122E8600FEFC33355
:10078000FFEE33FEED33FDEC33FCD8F122BB010765
:1007900089828A830207C75005E9F8020979BBFEFE
:1007A00005E9F802098589828A83020991BB01075C
:1007B00089828A830207DF5005E9F80209A1BBFE9E
:1007C00005E9F80209AD22E0FCA3E0FDA3E0FEA3E9
:1007D000E0FF22E0F8A3E0F9A3E0FAA3E0FB22ECBB
:1007E000F0A3EDF0A3EEF0A3EFF022E0FBA3E0FA1C
:1007F000A3E0F922F8E0FBA3A3E0F925F0F0E582FD
:10080000158270021583E0FA38F022EBF0A3EAF0CB
:10081000A3E9F022E493FB740193FA740293F922A2
:10082000D083D082F8E4937012740193700DA3A367
:1008300093F8740193F5828883E47374029368607B
:10084000EFA3A3A380DFE5162582F582E5153583A6
:10085000F583B515048582162210AF06858216F53C
:100860001522858216F515D2AF22EC8EF0A4CCC5E8
:10087000F0CCCDF8EFA4CEC5F02DFDE43CFCE8A40F
:100880002EC8C5F03DFDE43CFCEFA4FFE5F028FEDA
:10089000E43DFDE43CFC22E709F608DFFA8046E788
:1008A00009F208DFFA803E88828C83E709F0A3DF33
:1008B000FA8032E309F608DFFA806EE309F208DF16
:1008C000FA806688828C83E309F0A3DFFA805A8974
:1008D000828A83E0A3F608DFFA804E89828A83E069
:1008E000A3F208DFFA804280D280FA80C680D480EA
:1008F0005580F28029801080A680EA809A80A880A6
:10090000DA80E280CA802988848C8589828A83E49F
:1009100093A30586F0A30586DFF5DEF3800B8982BD
:100920008A83E493A3F608DFF9ECFAA9F0EDFB2241
:1009300088848C8589828A83E0A30586F0A3058656
:10094000DFF6DEF480E389828A83E493A3F208DF92
:10095000F980D688F0EF60010E4E60CD88F0ED246E
:1009600002B4040050C3F582EB2402B4040050B971
:1009700023234582239008E773E6FC08E6FD08E69A
:10098000FE08E6FF22E2FC08E2FD08E2FE08E2FFC4
:1009900022E493FC740193FD740293FE740393FFAD
:1009A00022ECF608EDF608EEF608EFF622ECF20877
:1009B000EDF208EEF208EFF2227B007A4679E812B7
:1009C0001884EF4405FD7B007A4679E8121890758B
:1009D0001400E514C3940B503AAF14EF75F005A45E
:1009E00024BFF582E43418F583AF82AE838E088F7E
:1009F00009AE08AF098F828E83120814AE08AF09C2
:100A00008F828E83740393FC740493FD12171E056A
:100A10001480BF751400E514C394015078AF14EF2F
:100A200075F008A424F6F582E43418F583AF82AE9D
:100A3000838E0A8F0BAE0AAF0B8F828E831208143F
:100A40008B0C8A0D890EAE0AAF0B8F828E83A3A307
:100A5000A31208148B0F8A108911AE0AAF0B8F8274
:100A60008E83740693F512740793F513AB0FAA10D7
:100A7000A911C003C002C001AB0CAA0DA90E9001C0
:100A80000F12080BD001D002D003AF13AE12121513
:100A90003C051480817B087A0079001215A37B0144
:100AA0007A507903121884EF4402FD7B017A507961
:100AB000031218907B017A507913121884EF4402C4
:100AC000FD7B017A5079131218909043A0E0FFEF5C
:100AD0004440FF9043A0EFF09043C2E0FFEF44108A
:100AE000FF9043C2EFF07B087A0679BCC003C002D6
:100AF000C0017B007A51791290010F12080BD001CE
:100B0000D002D0037F087E0012153C7B087A06795C
:100B1000C4C003C002C0017B007A51794090010F2C
:100B200012080BD001D002D0037F0A7E0012153CC0
:100B30007B087A0679D0C003C002C0017B007A51DD
:100B4000795090010F12080BD001D002D0037F0A18
:100B50007E0012153C9044F47401F0904322E0FFB3
:100B6000EF4408FF904322EFF09046ECE0FFEFC324
:100B700094055006904689743AF090480074F1F05C
:100B8000120D7890480074B1F01215067B007A437C
:100B900079A0C003C002C0017B007A4379B0900104
:100BA0000F12080BD001D002D0037F0E7E00121569
:100BB0003C9043B0E0FFEF54FDFFEFF022C0E0C0F7
:100BC000F0C083C082C085C084C086758600C09393
:100BD000759300C0D075D000C000C001C002C00332
:100BE000C004C005C006C007121812900108EFF03B
:100BF000900108E0FFEF20E309900108E0FFEF30EB
:100C0000E105D200020D55C2001217D3900106EE85
:100C1000F0A3EFF0900106E0FEA3E0FFEEFF7E0000
:100C20007E00EF54DFFFEF4E6003020D559001068A
:100C3000E0FEA3E0FF7E00EF5407FFD3EF9405EE44
:100C400094004003020D40900107E0FFEF30E345C0
:100C5000900106E0FEA3E0FFEEC4F854F0C868FE81
:100C6000EFC4540F48FF7E00EF540FFFEF540FFF07
:100C7000900106E0FCA3E0FD7C00ED5407FD74E864
:100C80002DF58274013CF583E0FEEE54F0FEEE4F4C
:100C9000FFEFF08048900106E0FEA3E0FFEEC4F80D
:100CA00054F0C868FEEFC4540F48FF7E00EF540FA5
:100CB000FFEF540FFFEFC454F0FF900106E0FCA3D8
:100CC000E0FD7C00ED5407FD74E82DF58274013CD5
:100CD000F583E0FEEE540FFEEE4FFFEFF09001E6DD
:100CE000E0FFEFB40129900106E0FEA3E0FF7E00E3
:100CF000EF5407FFEF4E70179001E7E0FFEFD3943A
:100D0000014004C20180269001E7E004F0801E90BB
:100D10000106E0FEA3E0FF7E00EF5407FFD3EF944F
:100D200001EE94004007D2019001E7E4F090010643
:100D3000E0FEA3E0FF7E00EF5407FF9001E6EFF036
:100D4000900106E0FEA3E0FFEEFF7E007E00EF30A4
:100D5000E503020C09D007D006D005D004D003D09B
:100D600002D001D000D0D0D093D086D084D085D00E
:100D700082D083D0F0D0E0327B007A4079807D1938
:100D80007C001218689040827418F07B007A4079D9
:100D9000847D4D7C001218689040867418F07B00AA
:100DA0007A4079887D387C0112186890408A7418DE
:100DB000F07B007A40798C7D2F7C7512186890400A
:100DC0008E7419F09043007402F09040007408F0A3
:100DD0009042007403F07B0C7A0179081218849019
:100DE00046A1EFF07B007A4279227D087C00121840
:100DF000687B007A4279207D517C1212186890013C
:100E00000EE4F07F197E007D007C0090010A12073D
:100E1000DF90010A1207C7D3EF9400EE9400404E12
:100E200090010EE0FFEF64036044904225E0FFEF85
:100E30005401FF7E0090010EE0FEEE25E0FEEE4F35
:100E4000FFEF5403FF90010EEFF07FE07E017D0085
:100E50007C0012160090010A1207C77BFF7AFF7907
:100E6000FF78FF12062290010A1207DF80A390018B
:100E70000A1207C7EF4E70057F031218267B007A0F
:100E80004079047D007C011218689040047407F0DA
:100E9000904006E4F09040087448F0904004E4F07C
:100EA0009040017402F09043A2E0FFEF440FFF90E6
:100EB00043A2EFF02290010A7401F090010B74013B
:100EC000F090010CE4F0A3E4F090010EE4F0A3E450
:100ED000F0D2AF9044F474FDF07E167F3B1216AA58
:100EE0001217A91218387FE87E037D007C001213C8
:100EF000701215FA50FB12189C1205A2FFEF131383
:100F000013541FFFEF30E0EE9001F2E0FFEFB40169
:100F1000F790010EE475F00112060C90010EE0FC52
:100F2000A3E0FD90010EE0FEA3E0FF1205FAAC067F
:100F3000AD07EC12019E7BCD7ACC794C783E120045
:100F40001A1201D7AD07AC06AC06AD077F0412122A
:100F5000F090010EE0FEA3E0FFEF64144E7006E493
:100F60007E007F002212189CC003C002C0017B01DA
:100F70007A017974A801AC02AD03D001D002D0038C
:100F80007E007F06120953900175E0FFEF30E52ADD
:100F900090010AE0FFEF602890010BE0FFEF601383
:100FA00090010BE0FFEF70047F0180027F00900151
:100FB0000BEFF090010AE4F0800690010A7401F052
:100FC00090010BE0FFEF600B7D007C007F041212AC
:100FD000F080057F041211D29001F2E4F0020F08B4
:100FE00022C0E0C083C082C085C084C086758600F0
:100FF000C093759300C0D075D000C006C0079001A3
:1010000092E4F0A2AFE433FF900193EFF0D2AF90FF
:1010100044F474FDF0906462E0FF900191EFF09071
:101020000191E0FF900190EFF0900191E0FFEF540B
:101030001EFF7E00EF4E6016900002E0FF900191CF
:10104000E0FEEE541EFEEF4EFF900002EFF0900126
:1010500091E0FFEF30E566906441E0FF900190EF92
:10106000F0900190E0FF900104E0FE74052EF582FF
:10107000E43400F583EFF09001927401F090019256
:10108000E0FFEF6038900003E0FFEF6006900001A2
:101090007401F0900104E004F0900104E0FFEFC35C
:1010A00094FF4005900104E4F0900004E0FF9001FB
:1010B00004E0FEEEB507069000037401F090019184
:1010C000E0FFEF30E503021015900193E0FFEF24FD
:1010D000FF92AFD007D006D0D0D093D086D084D0A6
:1010E00085D082D083D0E032759300780075834636
:1010F0007582E8E04401F0009046ECE0F99046FA91
:10110000E0FAB903225420B40012B8001AEA900F92
:10111000FFF07401900FFEF09046F6F0900FFEE0A5
:101120006005900FFFE0FA90480074C0F0758120D0
:1011300090000078007910E4F0A3D8FCD9FAEA9086
:1011400001E1F002001175150F7516FD1209B902C3
:10115000118D020EB5E493A3F8E493A34003F68047
:1011600001F208DFF48029E493A3F85407240CC8A3
:10117000C333C4540F4420C8834004F4568001464E
:10118000F6DFE4800B010204081020408090143543
:10119000E47E019360BCA3FF543F30E509541FFE79
:1011A000E493A360010ECF54C025E060A840B8E4EA
:1011B00093A3FAE493A3F8E493A3C8C582C8CAC56D
:1011C00083CAF0A3C8C582C8CAC583CADFE9DEE7FF
:1011D00080BE90017AEFF09001F0E0FEA3E0FFEF17
:1011E0004E705E90017AE0FFC0079001EEE0FCA334
:1011F000E0FDE412019E7BCD7ACC794C783E120062
:101200001A1201D7AD07AC06AC06AD07D007121213
:10121000F09001EEE0FCA3E0FDE412019E7BCD7AAC
:10122000CC79CC783D12001A7B007A00795C784248
:10123000120120702E9001F0E475F00112060C806E
:10124000229001F0E0FEA3E0FFEF64014E701490E5
:10125000017AE0FF7D3C7C001212F09001EEE4F098
:10126000A3E4F09001EEE475F00112060C22900167
:101270007AEFF090017BECF0A3EDF090017AE0FFC3
:10128000EFD3941F5003D38001C340057F00121792
:10129000E890017AE0FFEF541FFF7E00EF25E0FFAA
:1012A000EE33FEEF2400FFEE3444FEAA06A9077BCE
:1012B0000112185B90017DEEF0A3EFF090017AE04F
:1012C000FF7E02EF8EF0A4FFAEF0EF2400FFEE34BD
:1012D00044FEAA06A9077B0190017BE0FEA3E0FF84
:1012E000AD07AC0612186A90017DE0FEA3E0FF2274
:1012F00090017BEFF090017CECF0A3EDF090017C8D
:10130000E0FEA3E0FF7C007D1E1205FAC3744C9F33
:10131000FF741D9EFE90017EEEF0A3EFF090017B26
:10132000E0FFEF4480FF900181EFF090017EE0FE4E
:10133000A3E0FFEF7807CEA2E713CE13D8F8FFEFB4
:10134000547FFF900182EFF090017EE0FEA3E0FF6A
:10135000EF547FFF900183EFF07B017A0179817D6B
:10136000031214837F017E007D007C001213702223
:1013700090FFFC1208461207DF851583851682123E
:1013800007C7D3EF9400EE9480402F9001E212073C
:10139000C7121600851583851682C083C082120786
:1013A000C7EF2400FFEE3480FEED34FFFDEC34FF88
:1013B000FCD082D0831207DF80BF9001D81207C70C
:1013C0008515838516821207D312062F12160090F8
:1013D00000041208462290017AEFF090017BEDF0B4
:1013E00090017BE0FFEFD394075003D38001C3400B
:1013F000057F001217E890017AE0FFEFD3941F50A9
:1014000003D38001C340057F001217E890017BE001
:10141000FFEF5407FF7E00EF75F020A4FFAEF090C1
:10142000017AE0FEEE541FFE74802EF582E434440F
:10143000F583EFF0224201EE00004201F00000418E
:1014400001E70041010500410002004100040041A4
:1014500001040041000300410001004101F8004483
:1014600001DD016E36004401D800005DC04101DCA1
:10147000184401E22EE000004301F30000004101A6
:10148000F9000090018A12080B90018DEDF0900197
:101490008EE4F0900105E0FFEF602F90018DE0FFFA
:1014A00090018EE0FEEEC39F502090018A1207EB60
:1014B00090018EE0FFE92FF9E43AFA1205A2FF123B
:1014C000170590018EE004F080D1221217FD9001E3
:1014D0007AEFF0906491E0FFEF4420FFEFF090642A
:1014E00092E0FFEF4410FFEFF09044C07404F090DE
:1014F0006596E0FFEF4410FFEFF012174F90017A6E
:10150000E0FF121737227B0C7A0179CF12188490F2
:10151000010AEFF090010AE0FFEF5407FF90586EC8
:10152000EFF090010AE0FFEFC4540FFFEF540FFFFC
:1015300090586FEFF09058767444F022758600EF63
:101540004E6027EF60010E75930090010FE0F59556
:10155000A3E0F585A3E0F5848B938A838982E0A3D9
:101560000586F0A31586DFF6DEF4E4F593F5952203
:101570007C0F7DE17F0212126E7D077F021213D66F
:10158000900002E4F09064817472F09064827420A0
:10159000F09064227406F09064327447F09065868F
:1015A000E4F022ACEAADA08B938A838982E0F960F3
:1015B00017A3E0F5EAA3E0F5A0A3E060F4FAA3E046
:1015C000F8A3E0F2DAF8D9E98DA08CEAE4F59322E9
:1015D0001217FD90017AEFF0906497E0FFEF44203E
:1015E000FFEFF0906597E0FFEF4410FFEFF0121768
:0F15F0006690017AE0FF12173722A201223232F1
:10160000EC4D4E700D78FCEF24E950032840FD228C
:1016100000007BF178DA0000EF28FF78FFEE38FE5B
:10162000ED38FDEC38FC50E7EF2BFFEE38FEED38DF
:10163000FDEC38FC40F22205020304C0E0C083C088
:1016400082C085C084C086758600C0937593009063
:1016500001F27401F0D093D086D084D085D082D0AE
:1016600083D0E0321217FD90017AEFF0906597E099
:10167000FFEF4401FFEFF0906597E0FFEF54FEFFAE
:10168000EFF090017AE0FF1217372290017AEEF026
:10169000A3EFF01218AA90017AE0FEA3E0FF121661
:1016A000C97F0712177D1218A32290017AEEF0A3CA
:1016B000EFF01218B890017AE0FEA3E0FF1216E7EF
:1016C0007F071217931218B12290017CEEF0A3EF5E
:1016D000F07B027A44790090017CE0FEA3E0FFAD4C
:1016E00007AC0612186A2290017CEEF0A3EFF07BA3
:1016F000027A44790690017CE0FEA3E0FFAD07ACDE
:101700000612186A2290018FEFF0906566E0FFEFF5
:1017100020E2F790018FE0FF906446EFF022EC4D5D
:101720006011ED60010C8B938A838982E4F0A3DD64
:10173000FCDCFA75930022EF54016004D2AF800202
:10174000C2AFEF5402FF9044F4E054FD4FF02290FA
:1017500043A2E0FFEF4401FFEFF09043B2E0FFEF60
:101760004401FFEFF0229043A2E0FFEF4402FFEFBD
:10177000F09043B2E0FFEF4402FFEFF02290017CD3
:10178000EFF090017CE0FFEFC43354E0FF90448021
:10179000EFF02290017CEFF090017CE0FFEFC4338A
:1017A00054E0FF904483EFF022900105E0FFEF70DA
:1017B000091215709001057401F01214CB229001EA
:1017C000F8E0FFEF70091218779001F87401F01239
:1017D00015D0221218127E00EF7D00FC1218497EEF
:1017E00000EC4EFEED4FFF2290FFFF120846EFF097
:1017F0009046EA7401F0900001120846229044F4E9
:10180000E0F84402F0E85402FF10AF012274014FE7
:10181000FF22906567E0FFEF547FFF900109EFF032
:10182000900109E0FF2290010FEFF090010FE0FF1F
:1018300090010FEFF080FE221217BE1216647E0B8D
:101840007FBD12168B1218A322906547E0FF90010E
:1018500009EFF0900109E0FF228B938A838982E0EF
:10186000FFA3E0FE759300228B938A838982EDF0BB
:10187000A3ECF0759300229064877472F0906587F2
:10188000742AF0228B938A838982E0759300FF2269
:101890008B938A838982EDF0759300227B017A0114
:1018A00079E8229044C07401F0229044C87401F099
:1018B000229044C07408F0229044C87408F02200BA
:1018C0005100001000512000200051600010005114
:1018D000C000100051F00010010000008001010064
:1018E0000F0001140008000140000A00014C000232
:0E18F00000015000002001008008063C00802E
:00000001FF
