:100000000214B2008F828E83E0540100000070F869
:100010002278FFE4F6D8FD021510EC4D6011E84996
:100020007017ED33EC3304600DE4FCFFFEFD22E9B4
:1000300033E8330470F802024312020E58046009D8
:10004000E4CC2481500628500902024D28400302C6
:10005000024AC0E0EB4A7044B98006D0E0FB0202DD
:1000600039EF4E701CBD8008EBFFEAFEE9FD80EB26
:10007000E98DF0A4FEE5F0020103E9CDF9EAFEEB1B
:10008000FFEF89F0A4FCE5F0CE89F0A42EFFE43563
:10009000F0CD89F0A42DFEE435F08067EF4E7005B9
:1000A000BD80D780C3EF8BF0A4ACF0EE8BF0A42C16
:1000B000FCE435F0F8EF8AF0A42CE5F038FCE433EA
:1000C000CB8DF0A42CFCE5F03BF8EE8AF0A42CFCE0
:1000D000E5F038F8E433CF89F0A42CFCE5F038CF14
:1000E0003400CE89F0A42FFFE5F03EFEE433C98D45
:1000F000F0A42EFEE5F039CD8AF0A42FFFE5F03E06
:10010000FEE43DFD33D0E0FB50070BBB000F0202C5
:100110004DEC2CFCEF33FFEE33FEED33FD020225F8
:1001200074F8CC6480CCC86480C8F58204604FC386
:10013000EB9FF5F0EA9E42F0E99D42F0E89C45F025
:10014000603C501DE5825FFFE582D313CB5BCBF4AF
:100150002B5582FB50280ABA002409B900200880D8
:100160001DE5825BFBE582D313CF5FCFF4C3132F72
:100170005582FF50090EBE00050DBD00010CC3EBFA
:100180009FF5F0EA9E42F0E99D42F0E89C45F06060
:1001900007CC4820E701B3EC2275F020800E75F003
:1001A00010800575F0087D007E007F003392D53009
:1001B000D503120759EC334010EF33FFEE33FEED59
:1001C00033FDEC33FCD5F0ED22E5F0247EA2D5130F
:1001D000CC92E7CDCEFF22EDD2E7CD33EC3392D5F2
:1001E00024814006E4FFFEFDFC22FCE4CFCECDCC12
:1001F00024E0501174FF80EDC3CC13CCCD13CDCED1
:1002000013CECF13CF0470F030D5DE020759E9D2F8
:10021000E7C933E833F892D5EDD2E7CD33EC33FCC0
:100220005002B2D522EC30E7100FBF000C0EBE001A
:10023000080DBD00040BEB6014A2D5EB13FCED928E
:10024000E7FD2274FFFCFDFEFF22E480F8A2D574D6
:10025000FF13FC7D80E480EFF920E73624F950039A
:100260007907E4F42402FBE582158270021583DB32
:10027000F6E024FB501BE96014E4F0E5821582707F
:10028000021583E004F0B40A08E4F0D9EE7401F03A
:100290000A22C2D522ED33EC3392D5FA602AB4FF9C
:1002A00033EDC2E77BFF60067A0279BAE4227A0274
:1002B00079C320D5047A0279BE224E614E002B49C3
:1002C0004E46002D494E4600E47A08F0A3DAFC7B46
:1002D00000740722C083C082ECC0E0EDC0E0EEC035
:1002E000E0EFC0E0EA75F010A4CAABF075F04DA4E1
:1002F0002BFBE435F0FCEA2410FAEB34C5FBEC34BC
:10030000D9FCEDC2E7FF75F056A4F42411C5F0F452
:1003100034C58FF0A42AE5F03BE43CF020E714124A
:100320000562D0E0FFD0E0FED0E0FDD0E0FC12049A
:10033000958014F404120562D0E0FFD0E0FED0E016
:10034000FDD0E0FC12001AD082D083E0FAEDD2E7B3
:10035000CD33EC332482FBE4C3CF33CFCE33CECDC9
:1003600033CD33DBF37B0775F00A846004F0A31B05
:100370000AE5F0F0A38FF0740AA4FFACF08EF074DD
:100380000AA42CFEACF050010C8DF0740AA42CFDD4
:10039000E435F0F0A3DBDE740722020243E8648058
:1003A000F8E933E83360110460F0ED33EC337009A1
:1003B000E8FCE9FDEAFEEBFF220460DED3EB9FEAF6
:1003C0009EE99DE8C2E78CF0C2F795F0400CE8CCBE
:1003D000F8E9CDF9EACEFAEBCFFB12020E85D0F0A8
:1003E0005804700320D5B3E80470075002B2D50258
:1003F000024D92D5EC0460F7E4CCC0E0C398F860FD
:100400003B94186008400DD0E0FB020225E4FBFAA3
:10041000C9FC8028E830E406E4C9FBE4CAFCE83003
:10042000E305E4C9CACBFCE854076010F8C3E9133C
:10043000F9EA13FAEB13FBEC13FCD8F130F52FC3F8
:10044000E49CFCEF9BFFEE9AFEED99FDD0E0FBEF04
:100450004E4D4C701222DB0302024AEC2CFCEF33AF
:10046000FFEE33FEED33FDED30E7EB020225EF2B1F
:10047000FFEE3AFEED39FDD0E0FB50130BBB00035D
:1004800002024DED13FDEE13FEEF13FFEC13FC0221
:10049000022502024DEC5D046005E8590470030278
:1004A000024312020E580460F6EC4860F2EC70044D
:1004B000FDFEFF22C860DB2481C85009C39860029A
:1004C000500602024A9850CAF582E9294B4A700543
:1004D000AB8202023975F0007C1A7880C3EF9BEE84
:1004E0009AED99400DC3EF9BFFEE9AFEED99FDE862
:1004F00042F0DC23ACF0D0E0FFD0E0FED0E0FDAB7A
:100500008220E7101BEB60BAEC2CFCEF33FFEE33DC
:10051000FEED33FD020225E803F830E705C0F07573
:10052000F000EF2FFFEE33FEED33FD40B830E7C2B1
:1005300080AA3F8000004120000042C80000447AA9
:100540000000461C400047C35000497424004B186B
:1005500096804CBEBC205A0E1BCA6753C21C749DA9
:10056000C5AEFB60065407601C2323120590EB54B4
:1005700038600912057C12058B12001AECF8EDF9AF
:10058000EEFAEFCB22EB12058B80F1543803241CDA
:10059000900532FE93FC0EEE93FD0EEE930ECE937D
:1005A000FF22BB010689828A83E0225002E722BB38
:1005B000FE02E32289828A83E49322BB010CE58256
:1005C00029F582E5833AF583E0225006E92582F891
:1005D000E622BBFE06E92582F8E222E58229F582C1
:1005E000E5833AF583E49322BB010689828A83F08E
:1005F000225002F722BBFE01F322EF8DF0A4A8F0F7
:10060000CF8CF0A428CE8DF0A42EFE22C5F0F8A346
:10061000E028F0C5F0F8E582158270021583E03815
:10062000F022EF2BFFEE3AFEED39FDEC38FC22E82C
:100630008FF0A4CC8BF0A42CFCE98EF0A42CFC8AC7
:10064000F0EDA42CFCEA8EF0A4CDA8F08BF0A42D44
:10065000CC3825F0FDE98FF0A42CCD35F0FCEB8EE5
:10066000F0A4FEA9F0EB8FF0A4CFC5F02ECD39FE9B
:10067000E43CFCEAA42DCE35F0FDE43CFC2275F010
:1006800008758200EF2FFFEE33FECD33CDCC33CC97
:10069000C58233C5829BED9AEC99E58298400CF5B2
:1006A00082EE9BFEED9AFDEC99FC0FD5F0D6E4CEE0
:1006B000FBE4CDFAE4CCF9A88222B800C1B9005914
:1006C000BA002DEC8BF084CFCECDFCE5F0CBF978E1
:1006D00018EF2FFFEE33FEED33FDEC33FCEB33FB75
:1006E00010D703994004EB99FB0FD8E5E4F9FA22FF
:1006F0007818EF2FFFEE33FEED33FDEC33FCC933FA
:10070000C910D7059BE99A4007EC9BFCE99AF90FC1
:10071000D8E0E4C9FAE4CCFB2275F010EF2FFFEE2D
:1007200033FEED33FDCC33CCC833C810D7079BEC78
:100730009AE899400AED9BFDEC9AFCE899F80FD5F0
:10074000F0DAE4CDFBE4CCFAE4C8F922EF4BFFEE9B
:100750004AFEED49FDEC48FC22C3E49FFFE49EFE07
:10076000E49DFDE49CFC22E8600FECC313FCED1358
:10077000FDEE13FEEF13FFD8F122E8600FEFC33355
:10078000FFEE33FEED33FDEC33FCD8F122BB010765
:1007900089828A830207C75005E9F8020979BBFEFE
:1007A00005E9F802098589828A83020991BB01075C
:1007B00089828A830207DF5005E9F80209A1BBFE9E
:1007C00005E9F80209AD22E0FCA3E0FDA3E0FEA3E9
:1007D000E0FF22E0F8A3E0F9A3E0FAA3E0FB22ECBB
:1007E000F0A3EDF0A3EEF0A3EFF022E0FBA3E0FA1C
:1007F000A3E0F922F8E0FBA3A3E0F925F0F0E582FD
:10080000158270021583E0FA38F022EBF0A3EAF0CB
:10081000A3E9F022E493FB740193FA740293F922A2
:10082000D083D082F8E4937012740193700DA3A367
:1008300093F8740193F5828883E47374029368607B
:10084000EFA3A3A380DFE5162582F582E5153583A6
:10085000F583B515048582162210AF06858216F53C
:100860001522858216F515D2AF22EC8EF0A4CCC5E8
:10087000F0CCCDF8EFA4CEC5F02DFDE43CFCE8A40F
:100880002EC8C5F03DFDE43CFCEFA4FFE5F028FEDA
:10089000E43DFDE43CFC22E709F608DFFA8046E788
:1008A00009F208DFFA803E88828C83E709F0A3DF33
:1008B000FA8032E309F608DFFA806EE309F208DF16
:1008C000FA806688828C83E309F0A3DFFA805A8974
:1008D000828A83E0A3F608DFFA804E89828A83E069
:1008E000A3F208DFFA804280D280FA80C680D480EA
:1008F0005580F28029801080A680EA809A80A880A6
:10090000DA80E280CA802988848C8589828A83E49F
:1009100093A30586F0A30586DFF5DEF3800B8982BD
:100920008A83E493A3F608DFF9ECFAA9F0EDFB2241
:1009300088848C8589828A83E0A30586F0A3058656
:10094000DFF6DEF480E389828A83E493A3F208DF92
:10095000F980D688F0EF60010E4E60CD88F0ED246E
:1009600002B4040050C3F582EB2402B4040050B971
:1009700023234582239008E773E6FC08E6FD08E69A
:10098000FE08E6FF22E2FC08E2FD08E2FE08E2FFC4
:1009900022E493FC740193FD740293FE740393FFAD
:1009A00022ECF608EDF608EEF608EFF622ECF20877
:1009B000EDF208EEF208EFF22290010AE4F0900165
:1009C0000BE4F090010C7401F090010D7401F090B3
:1009D000010EE4F090010F7401F09001107401F029
:1009E0009001117401F09001127401F090011374E0
:1009F00001F09001147401F09001157401F0900160
:100A000016E4F0A3E4F0900118E4F0A3E4F0D2AF10
:100A10009044F474FDF07E1B7FD1121C65121D7B87
:100A2000121E1F121D907FE87E037D007C001217AE
:100A300031121EA650FB121E831205A2FFEF1313E4
:100A400013541FFFEF30E0EE7D7F7F001218987D7A
:100A5000467F02121898900264E0FFEFB401F7128B
:100A60001E83C003C002C0017B017A01797EA80108
:100A7000AC02AD03D001D002D0037E007F06120984
:100A80005390017FE0FFEF30E52D90010DE0FFEF87
:100A9000602B90010EE0FFEFB4020790010EE4F02E
:100AA000800E90010EE0FFEF700690010E7402F0D0
:100AB00090010DE4F0800690010D7401F090017F2B
:100AC000E0FFEF30E42890010CE0FFEF602690019A
:100AD0000EE0FFEF6401600990010EE0FFEFB40B40
:100AE0000690010E740CF090010CE4F08006900169
:100AF0000C7401F090017FE0FFEF30E251900111A2
:100B0000E0FFEF604F90010EE0FFEFB402089001AC
:100B10000E7403F0803190010EE0FFEFB4030890F3
:100B2000010E7402F0802090010EE0FFEFB4060881
:100B300090010E7407F0800F90010EE0FFEFB409F2
:100B40000690010E7402F0900111E4F0800690010D
:100B5000117401F090017FE0FFEF30E0409001124E
:100B6000E0FFEF603E90010EE0FFEFB4030890015C
:100B70000E7404F0802090010EE0FFEFB4040890A2
:100B8000010E7403F0800F90010EE0FFEFB4070632
:100B900090010E7408F0900112E4F08006900112AA
:100BA0007401F090017FE0FFEF30E350900113E01B
:100BB000FFEF606B90010EE0FFEF700890010E7484
:100BC00001F0803190010EE0FFEFB4020890010EB9
:100BD0007401F0802090010EE0FFEFB40408900152
:100BE0000E7405F0800F90010EE0FFEFB408069040
:100BF000010E7409F0900113E4F080239001137446
:100C000001F090010EE0FFEFB4010590010EE4F059
:100C100090010EE0FFEFB40B0690010E7402F0900D
:100C2000017FE0FFEF30E11E900114E0FFEF601C58
:100C300090010EE0FFEFB4050690010E7406F090EF
:100C40000114E4F080069001147401F090017FE03B
:100C5000FFEF30E72D90010FE0FFEF602B90010ECA
:100C6000E0FFEF700890010E740AF0800E90010E04
:100C7000E0FFEFB40A0590010EE4F090010FE4F0FC
:100C8000800690010F7401F090017FE0FFEF30E6E5
:100C90002F900110E0FFEF602D90010EE0FFEFB408
:100CA000020890010E740BF0800F90010EE0FFEF30
:100CB000B40B0690010E7402F0900110E4F080066F
:100CC0009001107401F090010EE0FFEF700B121A0A
:100CD0009790010AE4F0020EA690010EE0FFEFB437
:100CE0000106121A3B020EA690010EE0FFEFB40CB3
:100CF00024121A697F2C7E017D007C0012173112AC
:100D000019AF7F207E037D007C0012173190010E09
:100D1000E4F0020EA690010EE0FFEFB4022A1219D1
:100D2000AF90010BE0FFEF64016003020EA67F327B
:100D30007E007D007C001217317D7F7F01121898A4
:100D400090010BE4F0020EA690010EE0FFEFB40359
:100D50001990010B7401F07D1E7F011218987D4BD4
:100D60007C007F011216B1020EA690010EE0FFEF8B
:100D7000B4041E7D047C007F021216B17D007C004D
:100D80007F031216B17DC47CFF7F041216B1020EE0
:100D9000A690010EE0FFEFB405137D647F001218EA
:100DA000987D877C007F001216B1020EA690010E7E
:100DB000E0FFEF640670407D287F011218987D05E2
:100DC0007C007F011216B17DD37CFF7F021216B129
:100DD0007D057C007F031216B17D007C007F04122C
:100DE00016B17FC87E007D007C001217317D7F7FA9
:100DF00001121898020EA690010EE0FFEFB407133F
:100E00007D1E7F011218987D9C7CFF7F011216B118
:100E1000020EA690010EE0FFEFB4081D7D007C00DD
:100E20007F021216B17D007C007F031216B17D1E79
:100E30007C007F041216B1806D90010EE0FFEFB4CC
:100E4000090B7DBA7CFF7F001216B1805990010E0C
:100E5000E0FFEF640A7043121C21121E831205A2E8
:100E6000FFEFC41313135401FFEF30E0ED121AC566
:100E7000121E831205A2FFEFC4135407FFEF30E0E8
:100E8000EF121AF3121E831205A2FFEFC4131354BC
:100E900003FFEF20E01080EC800C90010EE0FFEFEC
:100EA000B40B03121B21900264E4F0020A56227B69
:100EB000007A4679E8121E6BEF4405FD7B007A4606
:100EC00079E8121E77751400E514C3940B503AAFFD
:100ED00014EF75F005A424ABF582E4341EF583AF5E
:100EE00082AE838E088F09AE08AF098F828E83127F
:100EF0000814AE08AF098F828E83740393FC7404C8
:100F000093FD121CD9051480BF751400E514C39419
:100F1000015078AF14EF75F008A424E2F582E434B0
:100F20001EF583AF82AE838E0A8F0BAE0AAF0B8F96
:100F3000828E831208148B0C8A0D890EAE0AAF0BB9
:100F40008F828E83A3A3A31208148B0F8A1089119A
:100F5000AE0AAF0B8F828E83740693F512740793DB
:100F6000F513AB0FAA10A911C003C002C001AB0C4E
:100F7000AA0DA90E90010F12080BD001D002D003C8
:100F8000AF13AE12121948051480817B087A0079DC
:100F900000121B4F7B017A507903121E6BEF440243
:100FA000FD7B017A507903121E777B017A50791309
:100FB000121E6BEF4402FD7B017A507913121E77EB
:100FC0009043A0E0FFEF4440FF9043A0EFF0904338
:100FD000C2E0FFEF4410FF9043C2EFF07B087A06B7
:100FE00079BCC003C002C0017B007A517912900124
:100FF0000F12080BD001D002D0037F087E00121917
:10100000487B087A0679C4C003C002C0017B007A1D
:1010100051794090010F12080BD001D002D0037F0C
:101020000A7E001219487B087A0679D0C003C002F4
:10103000C0017B007A51795090010F12080BD0014A
:10104000D002D0037F0A7E001219489044F4740144
:10105000F0904322E0FFEF4408FF904322EFF0902E
:1010600046ECE0FFEFC394055006904689743AF0D1
:1010700090480074F1F012126E90480074B1F012B2
:1010800019127B007A4379A0C003C002C0017B0023
:101090007A4379B090010F12080BD001D002D0032F
:1010A0007F0E7E001219489043B0E0FFEF54FDFF21
:1010B000EFF022C0E0C0F0C083C082C085C084C011
:1010C00086758600C093759300C0D075D000C000AF
:1010D000C001C002C003C004C005C006C007121D85
:1010E000F9900108EFF0900108E0FFEF20E309908C
:1010F0000108E0FFEF30E105D20002124BC20012FE
:101100001DBA900106EEF0A3EFF0900106E0FEA3F9
:10111000E0FFEEFF7E007E00EF54DFFFEF4E600346
:1011200002124B900106E0FEA3E0FF7E00EF5407A1
:10113000FFD3EF9405EE94004003021236900107AE
:10114000E0FFEF30E345900106E0FEA3E0FFEEC4D0
:10115000F854F0C868FEEFC4540F48FF7E00EF5407
:101160000FFFEF540FFF900106E0FCA3E0FD7C00B1
:10117000ED5407FD745A2DF58274023CF583E0FEB0
:10118000EE54F0FEEE4FFFEFF08048900106E0FED7
:10119000A3E0FFEEC4F854F0C868FEEFC4540F4853
:1011A000FF7E00EF540FFFEF540FFFEFC454F0FF2A
:1011B000900106E0FCA3E0FD7C00ED5407FD745AAD
:1011C0002DF58274023CF583E0FEEE540FFEEE4FE7
:1011D000FFEFF0900258E0FFEFB40129900106E024
:1011E000FEA3E0FF7E00EF5407FFEF4E7017900262
:1011F00059E0FFEFD394014004C2018026900259C8
:10120000E004F0801E900106E0FEA3E0FF7E00EF08
:101210005407FFD3EF9401EE94004007D2019002EF
:1012200059E4F0900106E0FEA3E0FF7E00EF5407D2
:10123000FF900258EFF0900106E0FEA3E0FFEEFF02
:101240007E007E00EF30E5030210FFD007D006D00D
:1012500005D004D003D002D001D000D0D0D093D09C
:1012600086D084D085D082D083D0F0D0E0327B008D
:101270007A4079807D197C00121E4F90408274184C
:10128000F07B007A4079847D4D7C00121E4F9040A7
:10129000867418F07B007A4079887D387C01121EB4
:1012A0004F90408A7418F07B007A40798C7D2F7CB7
:1012B00075121E4F90408E7419F09043007402F026
:1012C0009040007408F09042007403F07B0C7A01A7
:1012D0007908121E6B9046A1EFF07B007A427922CA
:1012E0007D087C00121E4F7B007A4279207D517C64
:1012F00012121E4F90010EE4F07F197E007D007CDB
:101300000090010A1207DF90010A1207C7D3EF9479
:1013100000EE9400404E90010EE0FFEF6403604445
:10132000904225E0FFEF5401FF7E0090010EE0FEA9
:10133000EE25E0FEEE4FFFEF5403FF90010EEFF0BD
:101340007FE07E017D007C00121A0090010A1207E6
:10135000C77BFF7AFF79FF78FF12062290010A12FD
:1013600007DF80A390010A1207C7EF4E70057F03C5
:10137000121E0D7B007A4079047D007C01121E4F05
:101380009040047407F0904006E4F09040087448E0
:10139000F0904004E4F09040017402F09043A2E029
:1013A000FFEF440FFF9043A2EFF022C0E0C083C0E4
:1013B00082C085C084C086758600C093759300C0C6
:1013C000D075D000C006C00790019BE4F0A2AFE446
:1013D00033FF90019CEFF0D2AF9044F474FDF09095
:1013E0006462E0FF90019AEFF090019AE0FF9001B3
:1013F00099EFF090019AE0FFEF541EFF7E00EF4E50
:101400006016900002E0FF90019AE0FEEE541EFE8E
:10141000EF4EFF900002EFF090019AE0FFEF30E511
:1014200066906441E0FF900199EFF0900199E0FF30
:10143000900104E0FE74052EF582E43400F583EF9C
:10144000F090019B7401F090019BE0FFEF603890F9
:101450000003E0FFEF60069000017401F0900104CA
:10146000E004F0900104E0FFEFC394FF4005900119
:1014700004E4F0900004E0FF900104E0FEEEB50704
:10148000069000037401F090019AE0FFEF30E5034D
:101490000213DF90019CE0FFEF24FF92AFD007D052
:1014A00006D0D0D093D086D084D085D082D083D0BF
:1014B000E03275930078007583467582E8E0440158
:1014C000F0009046ECE0F99046FAE0FAB9032254B5
:1014D00020B40012B8001AEA900FFFF07401900FC8
:1014E000FEF09046F6F0900FFEE06005900FFFE0F2
:1014F000FA90480074C0F07581209000007800795F
:1015000010E4F0A3D8FCD9FAEA900253F0020011DB
:1015100075150F7516FD120EAF0215570209B9E4C5
:1015200093A3F8E493A34003F68001F208DFF4806C
:1015300029E493A3F85407240CC8C333C4540F44BC
:1015400020C8834004F456800146F6DFE4800B0196
:10155000020408102040809017F6E47E019360BCDE
:10156000A3FF543F30E509541FFEE493A360010E2E
:10157000CF54C025E060A840B8E493A3FAE493A355
:10158000F8E493A3C8C582C8CAC583CAF0A3C8C576
:1015900082C8CAC583CADFE9DEE780BEC0E0C08377
:1015A000C082C085C084C086758600C093759300D4
:1015B000C0D075D000C006C007A2AFE433FF9001D1
:1015C0009DEFF0D2AF9044F474FDF0900204E0FF80
:1015D00090019FE0FEEE6F6037906464E0FFEF20C3
:1015E000E22E90019FE0FFEFC39464400590019FBD
:1015F000E4F090019FE0FF74A02FF582E43401F540
:1016000083E0FF906444EFF090019FE004F080BB22
:1016100090019DE0FFEF24FF92AFD007D006D0D01D
:10162000D093D086D084D085D082D083D0E0329041
:101630000184EFF0900185ECF0A3EDF0900184E0DF
:10164000FFEFD3941F5003D38001C340057F0012E6
:101650001DE4900184E0FFEF541FFF7E00EF25E0C2
:10166000FFEE33FEEF2400FFEE3444FEAA06A90786
:101670007B01121E42900187EEF0A3EFF0900184EF
:10168000E0FF7E02EF8EF0A4FFAEF0EF2400FFEE4D
:101690003444FEAA06A9077B01900185E0FEA3E081
:1016A000FFAD07AC06121E51900187E0FEA3E0FFDC
:1016B00022900184EFF0900185ECF0A3EDF0900111
:1016C00085E0FEA3E0FF7C007D1E1205FAC3744C8A
:1016D0009FFF741D9EFE900187EEF0A3EFF0900136
:1016E00084E0FFEF4480FF90018AEFF0900187E0F3
:1016F000FEA3E0FFEF7807CEA2E713CE13D8F8FFE2
:10170000EF547FFF90018BEFF0900187E0FEA3E0A4
:10171000FFEF547FFF90018CEFF07B017A01798A13
:101720007D031218507F017E007D007C001217316E
:101730002290FFFC1208461207DF8515838516826A
:101740001207C7D3EF9400EE9480402F90025412FA
:1017500007C7121A00851583851682C083C08212BE
:1017600007C7EF2400FFEE3480FEED34FFFDEC34BC
:10177000FFFCD082D0831207DF80BF90024A12079D
:10178000C78515838516821207D312062F121A00F9
:1017900090000412084622900184EFF0900185ED3C
:1017A000F0900185E0FFEFD394075003D38001C38D
:1017B00040057F00121DE4900184E0FFEFD3941FE9
:1017C0005003D38001C340057F00121DE4900185C2
:1017D000E0FFEF5407FF7E00EF75F020A4FFAEF0AE
:1017E000900184E0FEEE541FFE74802EF582E434F6
:1017F00044F583EFF02242026000004202620000E2
:10180000410259004101050041000200410004006D
:1018100041010400410003004100010041020500B4
:1018200041019F004102040041026A0044024F014D
:101830006E360044024A00005DC041024E18440268
:10184000542EE0000043026500000041026B0000DE
:1018500090019312080B900196EDF0900197E4F03F
:10186000900105E0FFEF602F900196E0FF90019757
:10187000E0FEEEC39F50209001931207EB9001977A
:10188000E0FFE92FF9E43AFA1205A2FF121CC0901A
:101890000197E004F080D122900184EFF09001855F
:1018A000EDF0900184E0FFEF44C0FF900186EFF07F
:1018B0009001877402F0900185E0FF900188EFF0BD
:1018C0007B017A0179867D031218507F017E007DAD
:1018D000007C0012173122121DCF900184EFF0908E
:1018E0006491E0FFEF4420FFEFF0906492E0FFEF9F
:1018F0004410FFEFF09044C07404F0906596E0FF50
:10190000EF4410FFEFF0121D0A900184E0FF121C5B
:10191000F2227B0C7A0179CF121E6B90010AEFF054
:1019200090010AE0FFEF5407FF90586EEFF090012E
:101930000AE0FFEFC4540FFFEF540FFF90586FEF12
:10194000F09058767444F022758600EF4E6027EFD1
:1019500060010E75930090010FE0F595A3E0F58509
:10196000A3E0F5848B938A838982E0A30586F0A3A4
:101970001586DFF6DEF4E4F593F595227C137DAB56
:101980007F0212162F7D077F02121797900002E444
:10199000F09064817472F09064827420F0906422FC
:1019A0007406F09064327447F0906586E4F0227D0E
:1019B000BA7CFF7F001216B17D057C007F011216F4
:1019C000B17DD37CFF7F021216B17D057C007F03C1
:1019D0001216B17D007C007F041216B1227C157DA9
:1019E0009C7F0112162F7D077F01121797906423A9
:1019F0007406F09064337447F09064847402F022AB
:101A0000EC4D4E700D78FCEF24E950032840FD2288
:101A100000007BF178DA0000EF28FF78FFEE38FE57
:101A2000ED38FDEC38FC50E7EF2BFFEE38FEED38DB
:101A3000FDEC38FC40F222050203047DBA7CFF7FF6
:101A4000001216B17DD37CFF7F011216B17DA67CFA
:101A5000FF7F021216B17D057C007F031216B17D57
:101A60002D7C007F041216B1227DBA7CFF7F00120C
:101A700016B17DC47CFF7F011216B17D007C007F12
:101A8000021216B17D057C007F031216B17DF17C38
:101A9000FF7F041216B1227DBA7CFF7F001216B1BF
:101AA0007D057C007F011216B17D9C7CFF7F0212B8
:101AB00016B17D057C007F031216B17D007C007F8E
:101AC000041216B1227DBA7CFF7F001216B17DE2AE
:101AD0007CFF7F011216B17DD37CFF7F021216B10D
:101AE0007DDD7CFF7F031216B17D2D7C007F04120B
:101AF00016B1227DBA7CFF7F001216B17DB57CFF46
:101B00007F011216B17D007C007F021216B17DD3D9
:101B10007CFF7F031216B17DD87CFF7F041216B1C3
:101B2000227DBA7CFF7F001216B17DD37CFF7F013E
:101B30001216B17DD37CFF7F021216B17D057C00A9
:101B40007F031216B17D2D7C007F041216B122ACEA
:101B5000EAADA08B938A838982E0F96017A3E0F550
:101B6000EAA3E0F5A0A3E060F4FAA3E0F8A3E0F2B2
:101B7000DAF8D9E98DA08CEAE4F59322121DCF9012
:101B80000184EFF0906494E0FFEF4410FFEFF090D9
:101B900044D87402F09044C07402F0121D219001E8
:101BA00084E0FF121CF222121DCF900184EFF0900E
:101BB0006497E0FFEF4420FFEFF0906597E0FFEFC0
:101BC0004410FFEFF0121D38900184E0FF121CF268
:101BD00022C0E0C083C082C085C084C086758600F4
:101BE000C0937593009002647401F0D093D086D0B6
:101BF00084D085D082D083D0E032121DCF90018472
:101C0000EFF0906597E0FFEF4401FFEFF0906597EC
:101C1000E0FFEF54FEFFEFF0900184E0FF121CF2B2
:101C2000227DD37CFF7F001216B17DBA7CFF7F023C
:101C30001216B17D377C007F031216B17D467C0001
:101C40007F041216B122900184EEF0A3EFF0121E71
:101C500091900184E0FEA3E0FF121C847F07121D17
:101C60004F121E8A22900184EEF0A3EFF0121E9F05
:101C7000900184E0FEA3E0FF121CA27F07121D6505
:101C8000121E9822900186EEF0A3EFF07B027A44B8
:101C90007900900186E0FEA3E0FFAD07AC06121EBE
:101CA0005122900186EEF0A3EFF07B027A44790690
:101CB000900186E0FEA3E0FFAD07AC06121E5122A4
:101CC000900198EFF0906566E0FFEF20E2F7900159
:101CD00098E0FF906446EFF022EC4D6011ED60015A
:101CE0000C8B938A838982E4F0A3DDFCDCFA759384
:101CF0000022EF54016004D2AF8002C2AFEF540261
:101D0000FF9044F4E054FD4FF0229043A2E0FFEF37
:101D10004401FFEFF09043B2E0FFEF4401FFEFF02A
:101D2000229043A2E0FFEF4404FFEFF09043B2E0C3
:101D3000FFEF4404FFEFF0229043A2E0FFEF4402E4
:101D4000FFEFF09043B2E0FFEF4402FFEFF022908C
:101D50000186EFF0900186E0FFEFC43354E0FF907E
:101D60004480EFF022900186EFF0900186E0FFEFD3
:101D7000C43354E0FF904483EFF022900105E0FF6C
:101D8000EF700912197C9001057401F01218D72226
:101D9000900205E0FFEF70091219DD900205740151
:101DA000F0121B7C2290026AE0FFEF7009121E5EA7
:101DB00090026A7401F0121BA722121DF97E00EF37
:101DC0007D00FC121E307E00EC4EFEED4FFF229097
:101DD00044F4E0F84402F0E85402FF10AF0122742A
:101DE000014FFF2290FFFF120846EFF09046EA7481
:101DF00001F090000112084622906567E0FFEF5461
:101E00007FFF900109EFF0900109E0FF2290010FA0
:101E1000EFF090010FE0FF90010FEFF080FE221233
:101E20001DA5121BFA7E107FB3121C46121E8A22B9
:101E3000906547E0FF900109EFF0900109E0FF2273
:101E40008B938A838982E0FFA3E0FE759300228B47
:101E5000938A838982EDF0A3ECF07593002290645D
:101E6000877472F0906587742AF0228B938A838935
:101E700082E0759300FF228B938A838982EDF0754F
:101E80009300227B017A02795A229044C07401F0B7
:101E9000229044C87401F0229044C07408F022904B
:101EA00044C87408F022A20122323200510000100E
:101EB000005120002000516000100051C0001000AF
:101EC00051F0001001000000800101000F0001141A
:101ED0000008000140000A00014C0002000150000F
:0A1EE000002001008008063C00808D
:00000001FF
