:10000000021754008F828E83E0540100000070F8C4
:100010002278FFE4F6D8FD0217B2EC4D6011E849F2
:100020007017ED33EC3304600DE4FCFFFEFD22E9B4
:1000300033E8330470F802024312020E58046009D8
:10004000E4CC2481500628500902024D28400302C6
:10005000024AC0E0EB4A7044B98006D0E0FB0202DD
:1000600039EF4E701CBD8008EBFFEAFEE9FD80EB26
:10007000E98DF0A4FEE5F0020103E9CDF9EAFEEB1B
:10008000FFEF89F0A4FCE5F0CE89F0A42EFFE43563
:10009000F0CD89F0A42DFEE435F08067EF4E7005B9
:1000A000BD80D780C3EF8BF0A4ACF0EE8BF0A42C16
:1000B000FCE435F0F8EF8AF0A42CE5F038FCE433EA
:1000C000CB8DF0A42CFCE5F03BF8EE8AF0A42CFCE0
:1000D000E5F038F8E433CF89F0A42CFCE5F038CF14
:1000E0003400CE89F0A42FFFE5F03EFEE433C98D45
:1000F000F0A42EFEE5F039CD8AF0A42FFFE5F03E06
:10010000FEE43DFD33D0E0FB50070BBB000F0202C5
:100110004DEC2CFCEF33FFEE33FEED33FD020225F8
:1001200074F8CC6480CCC86480C8F58204604FC386
:10013000EB9FF5F0EA9E42F0E99D42F0E89C45F025
:10014000603C501DE5825FFFE582D313CB5BCBF4AF
:100150002B5582FB50280ABA002409B900200880D8
:100160001DE5825BFBE582D313CF5FCFF4C3132F72
:100170005582FF50090EBE00050DBD00010CC3EBFA
:100180009FF5F0EA9E42F0E99D42F0E89C45F06060
:1001900007CC4820E701B3EC2275F020800E75F003
:1001A00010800575F0087D007E007F003392D53009
:1001B000D503120759EC334010EF33FFEE33FEED59
:1001C00033FDEC33FCD5F0ED22E5F0247EA2D5130F
:1001D000CC92E7CDCEFF22EDD2E7CD33EC3392D5F2
:1001E00024814006E4FFFEFDFC22FCE4CFCECDCC12
:1001F00024E0501174FF80EDC3CC13CCCD13CDCED1
:1002000013CECF13CF0470F030D5DE020759E9D2F8
:10021000E7C933E833F892D5EDD2E7CD33EC33FCC0
:100220005002B2D522EC30E7100FBF000C0EBE001A
:10023000080DBD00040BEB6014A2D5EB13FCED928E
:10024000E7FD2274FFFCFDFEFF22E480F8A2D574D6
:10025000FF13FC7D80E480EFF920E73624F950039A
:100260007907E4F42402FBE582158270021583DB32
:10027000F6E024FB501BE96014E4F0E5821582707F
:10028000021583E004F0B40A08E4F0D9EE7401F03A
:100290000A22C2D522ED33EC3392D5FA602AB4FF9C
:1002A00033EDC2E77BFF60067A0279BAE4227A0274
:1002B00079C320D5047A0279BE224E614E002B49C3
:1002C0004E46002D494E4600E47A08F0A3DAFC7B46
:1002D00000740722C083C082ECC0E0EDC0E0EEC035
:1002E000E0EFC0E0EA75F010A4CAABF075F04DA4E1
:1002F0002BFBE435F0FCEA2410FAEB34C5FBEC34BC
:10030000D9FCEDC2E7FF75F056A4F42411C5F0F452
:1003100034C58FF0A42AE5F03BE43CF020E714124A
:100320000562D0E0FFD0E0FED0E0FDD0E0FC12049A
:10033000958014F404120562D0E0FFD0E0FED0E016
:10034000FDD0E0FC12001AD082D083E0FAEDD2E7B3
:10035000CD33EC332482FBE4C3CF33CFCE33CECDC9
:1003600033CD33DBF37B0775F00A846004F0A31B05
:100370000AE5F0F0A38FF0740AA4FFACF08EF074DD
:100380000AA42CFEACF050010C8DF0740AA42CFDD4
:10039000E435F0F0A3DBDE740722020243E8648058
:1003A000F8E933E83360110460F0ED33EC337009A1
:1003B000E8FCE9FDEAFEEBFF220460DED3EB9FEAF6
:1003C0009EE99DE8C2E78CF0C2F795F0400CE8CCBE
:1003D000F8E9CDF9EACEFAEBCFFB12020E85D0F0A8
:1003E0005804700320D5B3E80470075002B2D50258
:1003F000024D92D5EC0460F7E4CCC0E0C398F860FD
:100400003B94186008400DD0E0FB020225E4FBFAA3
:10041000C9FC8028E830E406E4C9FBE4CAFCE83003
:10042000E305E4C9CACBFCE854076010F8C3E9133C
:10043000F9EA13FAEB13FBEC13FCD8F130F52FC3F8
:10044000E49CFCEF9BFFEE9AFEED99FDD0E0FBEF04
:100450004E4D4C701222DB0302024AEC2CFCEF33AF
:10046000FFEE33FEED33FDED30E7EB020225EF2B1F
:10047000FFEE3AFEED39FDD0E0FB50130BBB00035D
:1004800002024DED13FDEE13FEEF13FFEC13FC0221
:10049000022502024DEC5D046005E8590470030278
:1004A000024312020E580460F6EC4860F2EC70044D
:1004B000FDFEFF22C860DB2481C85009C39860029A
:1004C000500602024A9850CAF582E9294B4A700543
:1004D000AB8202023975F0007C1A7880C3EF9BEE84
:1004E0009AED99400DC3EF9BFFEE9AFEED99FDE862
:1004F00042F0DC23ACF0D0E0FFD0E0FED0E0FDAB7A
:100500008220E7101BEB60BAEC2CFCEF33FFEE33DC
:10051000FEED33FD020225E803F830E705C0F07573
:10052000F000EF2FFFEE33FEED33FD40B830E7C2B1
:1005300080AA3F8000004120000042C80000447AA9
:100540000000461C400047C35000497424004B186B
:1005500096804CBEBC205A0E1BCA6753C21C749DA9
:10056000C5AEFB60065407601C2323120590EB54B4
:1005700038600912057C12058B12001AECF8EDF9AF
:10058000EEFAEFCB22EB12058B80F1543803241CDA
:10059000900532FE93FC0EEE93FD0EEE930ECE937D
:1005A000FF22BB010689828A83E0225002E722BB38
:1005B000FE02E32289828A83E49322BB010CE58256
:1005C00029F582E5833AF583E0225006E92582F891
:1005D000E622BBFE06E92582F8E222E58229F582C1
:1005E000E5833AF583E49322BB010689828A83F08E
:1005F000225002F722BBFE01F322EF8DF0A4A8F0F7
:10060000CF8CF0A428CE8DF0A42EFE22C5F0F8A346
:10061000E028F0C5F0F8E582158270021583E03815
:10062000F022EF2BFFEE3AFEED39FDEC38FC22E82C
:100630008FF0A4CC8BF0A42CFCE98EF0A42CFC8AC7
:10064000F0EDA42CFCEA8EF0A4CDA8F08BF0A42D44
:10065000CC3825F0FDE98FF0A42CCD35F0FCEB8EE5
:10066000F0A4FEA9F0EB8FF0A4CFC5F02ECD39FE9B
:10067000E43CFCEAA42DCE35F0FDE43CFC2275F010
:1006800008758200EF2FFFEE33FECD33CDCC33CC97
:10069000C58233C5829BED9AEC99E58298400CF5B2
:1006A00082EE9BFEED9AFDEC99FC0FD5F0D6E4CEE0
:1006B000FBE4CDFAE4CCF9A88222B800C1B9005914
:1006C000BA002DEC8BF084CFCECDFCE5F0CBF978E1
:1006D00018EF2FFFEE33FEED33FDEC33FCEB33FB75
:1006E00010D703994004EB99FB0FD8E5E4F9FA22FF
:1006F0007818EF2FFFEE33FEED33FDEC33FCC933FA
:10070000C910D7059BE99A4007EC9BFCE99AF90FC1
:10071000D8E0E4C9FAE4CCFB2275F010EF2FFFEE2D
:1007200033FEED33FDCC33CCC833C810D7079BEC78
:100730009AE899400AED9BFDEC9AFCE899F80FD5F0
:10074000F0DAE4CDFBE4CCFAE4C8F922EF4BFFEE9B
:100750004AFEED49FDEC48FC22C3E49FFFE49EFE07
:10076000E49DFDE49CFC22E8600FECC313FCED1358
:10077000FDEE13FEEF13FFD8F122E8600FEFC33355
:10078000FFEE33FEED33FDEC33FCD8F122BB010765
:1007900089828A830207C75005E9F8020979BBFEFE
:1007A00005E9F802098589828A83020991BB01075C
:1007B00089828A830207DF5005E9F80209A1BBFE9E
:1007C00005E9F80209AD22E0FCA3E0FDA3E0FEA3E9
:1007D000E0FF22E0F8A3E0F9A3E0FAA3E0FB22ECBB
:1007E000F0A3EDF0A3EEF0A3EFF022E0FBA3E0FA1C
:1007F000A3E0F922F8E0FBA3A3E0F925F0F0E582FD
:10080000158270021583E0FA38F022EBF0A3EAF0CB
:10081000A3E9F022E493FB740193FA740293F922A2
:10082000D083D082F8E4937012740193700DA3A367
:1008300093F8740193F5828883E47374029368607B
:10084000EFA3A3A380DFE5162582F582E5153583A6
:10085000F583B515048582162210AF06858216F53C
:100860001522858216F515D2AF22EC8EF0A4CCC5E8
:10087000F0CCCDF8EFA4CEC5F02DFDE43CFCE8A40F
:100880002EC8C5F03DFDE43CFCEFA4FFE5F028FEDA
:10089000E43DFDE43CFC22E709F608DFFA8046E788
:1008A00009F208DFFA803E88828C83E709F0A3DF33
:1008B000FA8032E309F608DFFA806EE309F208DF16
:1008C000FA806688828C83E309F0A3DFFA805A8974
:1008D000828A83E0A3F608DFFA804E89828A83E069
:1008E000A3F208DFFA804280D280FA80C680D480EA
:1008F0005580F28029801080A680EA809A80A880A6
:10090000DA80E280CA802988848C8589828A83E49F
:1009100093A30586F0A30586DFF5DEF3800B8982BD
:100920008A83E493A3F608DFF9ECFAA9F0EDFB2241
:1009300088848C8589828A83E0A30586F0A3058656
:10094000DFF6DEF480E389828A83E493A3F208DF92
:10095000F980D688F0EF60010E4E60CD88F0ED246E
:1009600002B4040050C3F582EB2402B4040050B971
:1009700023234582239008E773E6FC08E6FD08E69A
:10098000FE08E6FF22E2FC08E2FD08E2FE08E2FFC4
:1009900022E493FC740193FD740293FE740393FFAD
:1009A00022ECF608EDF608EEF608EFF622ECF20877
:1009B000EDF208EEF208EFF22290010AE4F0900165
:1009C0000BE4F090010C7401F090010D7401F090B3
:1009D000010EE4F090010F7401F09001107401F029
:1009E0009001117401F09001127401F090011374E0
:1009F00001F09001147401F09001157401F0900160
:100A0000167401F09001177401F09001187401F050
:100A10009001197401F090011AE4F0A3E4F0900140
:100A20001CE4F0A3E4F0D2AF9044F474FDF07E2017
:100A30007FA012215712226D1223111222827FE809
:100A40007E037D007C00121BF47F0A121A697D0070
:100A50007C007F0A121B74900296E0FFEFB401F74E
:100A6000122375C003C002C0017B017A017982A8FC
:100A700001AC02AD03D001D002D0037E007F06128C
:100A80000953900183E0FFEF30E03D900112E0FF59
:100A9000EF603B90010EE0FFEFB4020790010EE41F
:100AA000F0801E90010EE0FFEF700890010E7402BE
:100AB000F0800E90010EE0FFEFB4060590010EE409
:100AC000F0900112E4F080069001127401F09001A0
:100AD00083E0FFEF30E43990010CE0FFEF603790E6
:100AE000010EE0FFEF6401600990010EE0FFEFB43A
:100AF0000B0890010E740CF0800F90010EE0FFEFD8
:100B0000B4120690010E740CF090010CE4F0800613
:100B100090010C7401F0900183E0FFEF30E240900F
:100B20000111E0FFEF603E90010EE0FFEFB402081C
:100B300090010E7403F0802090010EE0FFEFB403EB
:100B40000890010E7402F0800F90010EE0FFEFB4E8
:100B5000060690010E7407F0900111E4F0800690F3
:100B600001117401F0900183E0FFEF30E348900140
:100B700014E0FFEF606390010EE0FFEF6009900169
:100B80000EE0FFEFB4020890010E7401F080209097
:100B9000010EE0FFEFB4040890010E7405F0800F21
:100BA00090010EE0FFEFB4080690010E7409F0907A
:100BB0000114E4F080239001147401F090010EE020
:100BC000FFEFB4010590010EE4F090010EE0FFEF9D
:100BD000B40B0690010E7402F0900183E0FFEF3039
:100BE000E12E900115E0FFEF603A90010EE0FFEF7B
:100BF000700890010E740AF0800F90010EE0FFEF74
:100C0000B4050690010E7406F0900115E4F080140E
:100C10009001157401F090010EE0FFEFB40A059009
:100C2000010EE4F0900183E0FFEF30E75090010FF8
:100C3000E0FFEF604E90010EE0FFEFB40A08900174
:100C40000E740DF0803090010EE0FFEF70089001FF
:100C50000E740EF0802090010EE0FFEFB4010890BA
:100C6000010E740FF0800F90010EE0FFEFB412063A
:100C700090010E740FF090010FE4F0800690010FC8
:100C80007401F0900183E0FFEF30E52F90010DE05B
:100C9000FFEF602D90010EE0FFEFB4010890010E10
:100CA0007410F0800F90010EE0FFEFB41206900177
:100CB0000E7410F090010DE4F0800690010D7401A7
:100CC000F0900182E0FFEF30E63F900117E0FFEF88
:100CD000604B90010EE0FFEFB4030890010E740426
:100CE000F0801F90010EE0FFEFB4070890010E7432
:100CF00008F0800E90010EE0FFEF700690010E7478
:100D000011F0900117E4F080149001177401F09035
:100D1000010EE0FFEFB4110590010EE4F0900182A6
:100D2000E0FFEF30E12F900113E0FFEF602D900125
:100D30000EE0FFEFB4040890010E7405F0800F90F0
:100D4000010EE0FFEFB4080690010E7409F0900167
:100D500013E4F080069001137401F0900182E0FF2B
:100D6000EF30E41D900116E0FFEF602990010EE0E6
:100D7000FFEF700690010E7412F0900116E4F080FF
:100D8000149001167401F090010EE0FFEFB412050B
:100D900090010EE4F0900183E0FFEF30E61D90013A
:100DA00010E0FFEF602990010EE0FFEF7006900168
:100DB0000E7413F090010DE4F0801490010D740195
:100DC000F090010EE0FFEFB4130590010EE4F090F7
:100DD0000182E0FFEF30E01B7F0012183E7F01121E
:100DE000183E7F0212183E7F0312183E7F0412182D
:100DF0003E80E590010EE0FFEF700B121F62900144
:100E00000AE4F002114890010EE0FFEFB40106126F
:100E10001F0602114890010EE0FFEFB40C24121FD0
:100E2000347F2C7E017D007C00121BF4121ED87FC3
:100E3000207E037D007C00121BF490010EE4F00282
:100E4000114890010EE0FFEFB4022A121ED8900163
:100E50000BE0FFEF640160030211487F327E007DEA
:100E6000007C00121BF47D7F7F01121D5B90010B43
:100E7000E4F002114890010EE0FFEFB40319900175
:100E80000B7401F07D327F01121D5B7D517C007F70
:100E900001121B7402114890010EE0FFEFB4041E12
:100EA0007D047C007F02121B747D007C007F031296
:100EB0001B747DB07CFF7F04121B740211489001EB
:100EC0000EE0FFEFB405247D647F00121D5B7D877B
:100ED0007C007F00121B747FE87E037D007C001283
:100EE0001BF490010E7406F002114890010EE0FF11
:100EF000EF640670407D287F01121D5B7D057C003C
:100F00007F01121B747DD37CFF7F02121B747D0551
:100F10007C007F03121B747D007C007F04121B7415
:100F20007FC87E007D007C00121BF47D7F7F011254
:100F30001D5B02114890010EE0FFEFB407137D1E08
:100F40007F01121D5B7D9A7CFF7F01121B740211D1
:100F50004890010EE0FFEFB4081E7D007C007F0288
:100F6000121B747D007C007F03121B747D327C0099
:100F70007F04121B7402114890010EE0FFEFB409C8
:100F80001C7DBA7CFF7F00121B747FE87E037D000E
:100F90007C00121BF490010EE4F002114890010E47
:100FA000E0FFEFB40A061220F002114890010EE0B3
:100FB000FFEFB40D24121F907F647E007D007C0043
:100FC000121BF4121FBE7F587E027D007C00121B94
:100FD000F490010EE4F002114890010EE0FFEFB42E
:100FE0000B06121FEC02114890010EE0FFEFB40E49
:100FF00024121F907F647E007D007C00121BF4127F
:101000001FBE7FBC7E027D007C00121BF490010E8F
:10101000E4F002114890010EE0FFEF640F704E7D86
:10102000BA7CFF7F00121B747DC47CFF7F01121B02
:10103000747D007C007F02121B747DDD7CFF7F03CA
:10104000121B747DF17CFF7F04121B747F907E0164
:101050007D007C00121BF4121ED87F207E037D00D1
:101060007C00121BF490010EE4F002114890010E76
:10107000E0FFEF6410704E7DBA7CFF7F00121B749E
:101080007DC47CFF7F01121B747D007C007F0212F7
:101090001B747D237C007F03121B747DF17CFF7F1A
:1010A00004121B747F907E017D007C00121BF412E1
:1010B0001ED87F207E037D007C00121BF490010E61
:1010C000E4F002114890010EE0FFEFB4110B7DD364
:1010D0007CFF7F04121B74806F90010EE0FFEFB461
:1010E000120B7D507C007F04121B74805B90010EFC
:1010F000E0FFEF6413702F7DB57CFF7F00121B743F
:101100007D517C007F01121B747D9C7CFF7F02124D
:101110001B747D067C007F03121B747D5F7C007F47
:1011200004121B74802290010EE0FFEFB414197FAB
:101130000012183E7F0112183E7F0212183E7F03F4
:1011400012183E7F0412183E900296E4F0020A57ED
:10115000227B007A4679E812235DEF4405FD7B008F
:101160007A4679E8122369751400E514C3940B508C
:101170003AAF14EF75F005A42498F582E43423F512
:1011800083AF82AE838E088F09AE08AF098F828E3F
:1011900083120814AE08AF098F828E83740393FC08
:1011A000740493FD1221CB051480BF751400E5145F
:1011B000C394015078AF14EF75F008A424CFF582E2
:1011C000E43423F583AF82AE838E0A8F0BAE0AAF71
:1011D0000B8F828E831208148B0C8A0D890EAE0A37
:1011E000AF0B8F828E83A3A3A31208148B0F8A10D8
:1011F0008911AE0AAF0B8F828E83740693F5127439
:101200000793F513AB0FAA10A911C003C002C001C8
:10121000AB0CAA0DA90E90010F12080BD001D00241
:10122000D003AF13AE12121E71051480817B087AB1
:101230000079001220497B017A50790312235DEF77
:101240004402FD7B017A5079031223697B017A50B5
:10125000791312235DEF4402FD7B017A507913125A
:1012600023699043A0E0FFEF4440FF9043A0EFF0DC
:101270009043C2E0FFEF4410FF9043C2EFF07B08C1
:101280007A0679BCC003C002C0017B007A51791292
:1012900090010F12080BD001D002D0037F087E000E
:1012A000121E717B087A0679C4C003C002C0017B9C
:1012B000007A51794090010F12080BD001D002D072
:1012C000037F0A7E00121E717B087A0679D0C00364
:1012D000C002C0017B007A51795090010F12080BB7
:1012E000D001D002D0037F0A7E00121E719044F418
:1012F0007401F0904322E0FFEF4408FF904322EF97
:10130000F09046ECE0FFEFC39405500690468974D8
:101310003AF090480074F1F012151090480074B142
:10132000F0121E3B7B007A4379A0C003C002C001CB
:101330007B007A4379B090010F12080BD001D002E4
:10134000D0037F0E7E00121E719043B0E0FFEF5479
:10135000FDFFEFF022C0E0C0F0C083C082C085C0B6
:1013600084C086758600C093759300C0D075D00088
:10137000C000C001C002C003C004C005C006C00751
:101380001222EB900108EFF0900108E0FFEF20E35C
:1013900009900108E0FFEF30E105D2000214EDC230
:1013A000001222AC900106EEF0A3EFF0900106E0EF
:1013B000FEA3E0FFEEFF7E007E00EF54DFFFEF4E66
:1013C00060030214ED900106E0FEA3E0FF7E00EF53
:1013D0005407FFD3EF9405EE940040030214D89015
:1013E0000107E0FFEF30E345900106E0FEA3E0FFD8
:1013F000EEC4F854F0C868FEEFC4540F48FF7E00F6
:10140000EF540FFFEF540FFF900106E0FCA3E0FD47
:101410007C00ED5407FD748C2DF58274023CF5833D
:10142000E0FEEE54F0FEEE4FFFEFF0804890010634
:10143000E0FEA3E0FFEEC4F854F0C868FEEFC45429
:101440000F48FF7E00EF540FFFEF540FFFEFC4541F
:10145000F0FF900106E0FCA3E0FD7C00ED5407FDE9
:10146000748C2DF58274023CF583E0FEEE540FFE81
:10147000EE4FFFEFF090028AE0FFEFB401299001F8
:1014800006E0FEA3E0FF7E00EF5407FFEF4E70176B
:1014900090028BE0FFEFD394014004C201802690BC
:1014A000028BE004F0801E900106E0FEA3E0FF7EC8
:1014B00000EF5407FFD3EF9401EE94004007D201F0
:1014C00090028BE4F0900106E0FEA3E0FF7E00EFC7
:1014D0005407FF90028AEFF0900106E0FEA3E0FFC0
:1014E000EEFF7E007E00EF30E5030213A1D007D0AF
:1014F00006D005D004D003D002D001D000D0D0D087
:1015000093D086D084D085D082D083D0F0D0E03202
:101510007B007A4079807D197C00122341904082C3
:101520007418F07B007A4079847D4D7C0012234151
:101530009040867418F07B007A4079887D387C0171
:1015400012234190408A7418F07B007A40798C7D98
:101550002F7C7512234190408E7419F090430074D3
:1015600002F09040007408F09042007403F07B0C8D
:101570007A01790812235D9046A1EFF07B007A4250
:1015800079227D087C001223417B007A4279207DFC
:10159000517C1212234190010EE4F07F197E007DF0
:1015A000007C0090010A1207DF90010A1207C7D3DE
:1015B000EF9400EE9400404E90010EE0FFEF6403C4
:1015C0006044904225E0FFEF5401FF7E0090010E41
:1015D000E0FEEE25E0FEEE4FFFEF5403FF90010E1C
:1015E000EFF07FE07E017D007C00121E0090010A7A
:1015F0001207C77BFF7AFF79FF78FF12062290015E
:101600000A1207DF80A390010A1207C7EF4E700588
:101610007F031222FF7B007A4079047D007C011257
:1016200023419040047407F0904006E4F090400895
:101630007448F0904004E4F09040017402F090434C
:10164000A2E0FFEF440FFF9043A2EFF022C0E0C002
:1016500083C082C085C084C086758600C0937593A0
:1016600000C0D075D000C006C0079001CDE4F0A244
:10167000AFE433FF9001CEEFF0D2AF9044F474FDAD
:10168000F0906462E0FF9001CCEFF09001CCE0FFBD
:101690009001CBEFF09001CCE0FFEF541EFF7E00F5
:1016A000EF4E6016900002E0FF9001CCE0FEEE5499
:1016B0001EFEEF4EFF900002EFF09001CCE0FFEF36
:1016C00030E566906441E0FF9001CBEFF09001CBF4
:1016D000E0FF900104E0FE74052EF582E43400F58D
:1016E00083EFF09001CD7401F09001CDE0FFEF6049
:1016F00038900003E0FFEF60069000017401F09065
:101700000104E004F0900104E0FFEFC394FF400502
:10171000900104E4F0900004E0FF900104E0FEEE8C
:10172000B507069000037401F09001CCE0FFEF30A4
:10173000E5030216819001CEE0FFEF24FF92AFD0C7
:1017400007D006D0D0D093D086D084D085D082D098
:1017500083D0E03275930078007583467582E8E0A7
:101760004401F0009046ECE0F99046FAE0FAB90343
:10177000225420B40012B8001AEA900FFFF074014E
:10178000900FFEF09046F6F0900FFEE06005900F8F
:10179000FFE0FA90480074C0F07581209000007856
:1017A000007910E4F0A3D8FCD9FAEA900285F0029F
:1017B000001175150F7516FD1211510217F9020966
:1017C000B9E493A3F8E493A34003F68001F208DFA1
:1017D000F48029E493A3F85407240CC8C333C454F9
:1017E0000F4420C8834004F456800146F6DFE480AD
:1017F0000B0102040810204080901CB9E47E019384
:1018000060BCA3FF543F30E509541FFEE493A3607E
:10181000010ECF54C025E060A840B8E493A3FAE4D9
:1018200093A3F8E493A3C8C582C8CAC583CAF0A32A
:10183000C8C582C8CAC583CADFE9DEE780BE900199
:1018400088EFF0900188E0FFEF4480FF900194EF73
:10185000F0900195E4F0900196E4F07B017A017933
:10186000947D03121D137FF47E0112201C900193BE
:10187000E4F0900193E0FFEFC39406501C12191F8F
:10188000900193E0FE74972EF582E43401F583EF26
:10189000F0900193E004F080D990019BE0FF7E007E
:1018A000EF75F080A4FFAEF0EE543FFEEF5480FFE2
:1018B00090018DEEF0A3EFF090019CE0FF7E007EA2
:1018C00000EF547FFF90018FEEF0A3EFF090018FB7
:1018D000E0FEA3E0FF90018DE0FCA3E0FDEC4EFEF6
:1018E000ED4FFF900191EEF0A3EFF0900191E0FE3B
:1018F000A3E0FFC3744C9FFD741D9EFCEC12019E7F
:101900007B807A887908783D12001A1201D79001FD
:1019100091EEF0A3EFF0900191E0FEA3E0FF2290A2
:1019200001C5E4F09044C87404F0900004E0FF9016
:1019300001C7EFF0900104E0FF9001C8EFF09000C4
:1019400003E0FFEF700E9001C8E0FF9001C7E0FEDA
:10195000EE6F60459001C7E0FF74052FF582E43417
:1019600000F583E0FF9001C5EFF09001C7E004F0BF
:101970009001C7E0FFEFC394FF40059001C7E4F07A
:101980009001C7E0FF900004EFF0900003E0FFEF4C
:101990006038900003E4F08031906462E0FF9001D1
:1019A000C6EFF09001C6E0FFEF30E51E906441E025
:1019B000FF9001C5EFF09001C6E0FFEF541EFF7EDF
:1019C00000EF4E60059001C5E4F09044C07404F04F
:1019D0009001C5E0FF22C0E0C083C082C085C08402
:1019E000C086758600C093759300C0D075D000C0C6
:1019F00006C007A2AFE433FF9001CFEFF0D2AF9063
:101A000044F474FDF0900236E0FF9001D1E0FEEE68
:101A10006F6037906464E0FFEF20E22E9001D1E028
:101A2000FFEFC3946440059001D1E4F09001D1E050
:101A3000FF74D22FF582E43401F583E0FF90644413
:101A4000EFF09001D1E004F080BB9001CFE0FFEF18
:101A500024FF92AFD007D006D0D0D093D086D084C8
:101A6000D085D082D083D0E032900188EFF0900111
:101A700088E0FFEF44E0FF90018AEFF090018B7463
:101A800001F090018C7401F090018D7401F09001CF
:101A900089E4F0900189E0FFEFC39404501C9001A9
:101AA00089E0FF748A2FF582E43401F583E0FF12A8
:101AB00021B2900189E004F080D9900189E4F0908E
:101AC0000189E0FFEFC39405501C12191F90018992
:101AD000E0FE748E2EF582E43401F583EFF0900180
:101AE00089E004F080D97FE87E037D007C00121B32
:101AF000F422900188EFF0900189ECF0A3EDF090D2
:101B00000188E0FFEFD3941F5003D38001C3400549
:101B10007F001222D6900188E0FFEF541FFF7E0065
:101B2000EF25E0FFEE33FEEF2400FFEE3444FEAA83
:101B300006A9077B0112233490018BEEF0A3EFF08E
:101B4000900188E0FF7E02EF8EF0A4FFAEF0EF245C
:101B500000FFEE3444FEAA06A9077B01900189E04C
:101B6000FEA3E0FFAD07AC0612234390018BE0FE1D
:101B7000A3E0FF22900188EFF0900189ECF0A3ED43
:101B8000F0900189E0FEA3E0FF7C007D1E1205FAC3
:101B9000C3744C9FFF741D9EFE90018BEEF0A3EF6B
:101BA000F0900188E0FFEF4480FF90018EEFF0900D
:101BB000018BE0FEA3E0FFEF7807CEA2E713CE1380
:101BC000D8F8FFEF547FFF90018FEFF090018BE08A
:101BD000FEA3E0FFEF547FFF900190EFF07B017ACE
:101BE00001798E7D03121D137F017E007D007C0034
:101BF000121BF42290FFFC1208461207DF851583A2
:101C00008516821207C7D3EF9400EE9480402F9080
:101C100002861207C7121E00851583851682C083AF
:101C2000C0821207C7EF2400FFEE3480FEED34FFC0
:101C3000FDEC34FFFCD082D0831207DF80BF90021E
:101C40007C1207C78515838516821207D312062FCB
:101C5000121E0090000412084622900188EFF090B6
:101C60000189EDF0900189E0FFEFD394075003D391
:101C70008001C340057F001222D6900188E0FFEF6B
:101C8000D3941F5003D38001C340057F001222D696
:101C9000900189E0FFEF5407FF7E00EF75F020A46C
:101CA000FFAEF0900188E0FEEE541FFE74802EF52A
:101CB00082E43444F583EFF02242029200004202B3
:101CC00094000041028B00410105004100020041E7
:101CD00000040041010400410003004100010041F3
:101CE0000237004101D1004102360041029C00440C
:101CF0000281016E360044027C00005DC04102801A
:101D0000184402862EE000004302970000004102C2
:101D10009D00009001C512080B9001C8EDF09001E4
:101D2000C9E4F0900105E0FFEF602F9001C8E0FFEB
:101D30009001C9E0FEEEC39F50209001C51207EB51
:101D40009001C9E0FFE92FF9E43AFA1205A2FF1267
:101D500021B29001C9E004F080D122900188EFF017
:101D6000900189EDF0900188E0FFEF44C0FF900101
:101D70008AEFF090018B7402F0900189E0FF9001EE
:101D80008CEFF07B017A01798A7D03121D137F01AC
:101D90007E007D007C00121BF4221222C19001887B
:101DA000EFF0906491E0FFEF4420FFEFF090649239
:101DB000E0FFEF4410FFEFF09044C07404F0906532
:101DC00096E0FFEF4410FFEFF01221FC900188E055
:101DD000FF1221E4221222C1900188EFF090649456
:101DE000E0FFEF4410FFEFF09044D87402F090440D
:101DF000C07402F0122213900188E0FF1221E42245
:101E0000EC4D4E700D78FCEF24E950032840FD2284
:101E100000007BF178DA0000EF28FF78FFEE38FE53
:101E2000ED38FDEC38FC50E7EF2BFFEE38FEED38D7
:101E3000FDEC38FC40F222050203047B0C7A0179A8
:101E4000CF12235D90010AEFF090010AE0FFEF54FA
:101E500007FF90586EEFF090010AE0FFEFC4540FB7
:101E6000FFEF540FFF90586FEFF09058767444F0E6
:101E700022758600EF4E6027EF60010E759300908B
:101E8000010FE0F595A3E0F585A3E0F5848B938A37
:101E9000838982E0A30586F0A31586DFF6DEF4E4ED
:101EA000F593F595227C167D4D7F02121AF27D077F
:101EB0007F02121C5A900002E4F09064817472F068
:101EC0009064827420F09064227406F090643274FE
:101ED00047F0906586E4F0227DBA7CFF7F00121BFC
:101EE000747D057C007F01121B747DD37CFF7F0213
:101EF000121B747D057C007F03121B747D007C0027
:101F00007F04121B74227DBA7CFF7F00121B747D3C
:101F1000D37CFF7F01121B747DA67CFF7F02121B06
:101F2000747D057C007F03121B747D2D7C007F0473
:101F3000121B74227DBA7CFF7F00121B747DC47C4F
:101F4000FF7F01121B747D007C007F02121B747DD9
:101F5000057C007F03121B747DF17CFF7F04121B44
:101F600074227DBA7CFF7F00121B747D057C007F8C
:101F700001121B747D9C7CFF7F02121B747D057C0B
:101F8000007F03121B747D007C007F04121B7422EF
:101F90007DBA7CFF7F00121B747DE27CFF7F011203
:101FA0001B747DD37CFF7F02121B747DDD7CFF7F61
:101FB00003121B747D2D7C007F04121B74227DBADA
:101FC0007CFF7F00121B747DB57CFF7F01121B74A8
:101FD0007D007C007F02121B747DD37CFF7F031287
:101FE0001B747DD87CFF7F04121B74227DBA7CFF9A
:101FF0007F00121B747DD37CFF7F01121B747DD385
:102000007CFF7F02121B747D057C007F03121B7412
:102010007D2D7C007F04121B74223232EEFA900276
:1020200080E0F88FF0A4FFAEF0E88AF0A42EFEE581
:10203000F03400FDEF24C9FF78FFEE38FEED38FDE7
:10204000E438FC5003021E0022ACEAADA08B938A58
:10205000838982E0F96017A3E0F5EAA3E0F5A0A385
:10206000E060F4FAA3E0F8A3E0F2DAF8D9E98DA091
:102070008CEAE4F593221222C1900188EFF090647B
:1020800097E0FFEF4420FFEFF0906597E0FFEF440B
:1020900010FFEFF012222A900188E0FF1221E422C3
:1020A000C0E0C083C082C085C084C086758600C081
:1020B000937593009002967401F0D093D086D084EB
:1020C000D085D082D083D0E0321222C1900188EF37
:1020D000F0906597E0FFEF4401FFEFF0906597E027
:1020E000FFEF54FEFFEFF0900188E0FF1221E422A1
:1020F0007DD37CFF7F00121B747DBA7CFF7F0212B0
:102100001B747D377C007F03121B747D467C007F2F
:1021100004121B74227C197DD67F01121AF27D07EE
:102120007F01121C5A9064237406F0906433744744
:10213000F09064847402F022900188EEF0A3EFF036
:10214000122383900188E0FEA3E0FF1221767F072F
:1021500012224112237C22900188EEF0A3EFF012AC
:102160002391900188E0FEA3E0FF1221947F0712E3
:10217000225712238A2290018AEEF0A3EFF07B020D
:102180007A44790090018AE0FEA3E0FFAD07AC0637
:102190001223432290018AEEF0A3EFF07B027A44EF
:1021A000790690018AE0FEA3E0FFAD07AC0612239A
:1021B00043229001CAEFF0906566E0FFEF20E2F75E
:1021C0009001CAE0FF906446EFF022EC4D6011ED03
:1021D00060010C8B938A838982E4F0A3DDFCDCFA36
:1021E00075930022EF54016004D2AF8002C2AFEFBA
:1021F0005402FF9044F4E054FD4FF0229043A2E0DB
:10220000FFEF4401FFEFF09043B2E0FFEF4401FF26
:10221000EFF0229043A2E0FFEF4404FFEFF0904381
:10222000B2E0FFEF4404FFEFF0229043A2E0FFEFA3
:102230004402FFEFF09043B2E0FFEF4402FFEFF003
:102240002290018AEFF090018AE0FFEFC43354E05E
:10225000FF904480EFF02290018AEFF090018AE035
:10226000FFEFC43354E0FF904483EFF02290010568
:10227000E0FFEF7009121EA59001057401F0121D18
:102280009A22900237E0FFEF700912211590023771
:102290007401F0121DD52290029CE0FFEF7009122C
:1022A000235090029C7401F0122076221222EB7EC1
:1022B00000EF7D00FC1223227E00EC4EFEED4FFF6E
:1022C000229044F4E0F84402F0E85402FF10AF0119
:1022D0002274014FFF2290FFFF120846EFF0904654
:1022E000EA7401F090000112084622906567E0FF51
:1022F000EF547FFF900109EFF0900109E0FF229079
:10230000010FEFF090010FE0FF90010FEFF080FE62
:10231000221222971220C97E137F551221381223D0
:102320007C22906547E0FF900109EFF0900109E001
:10233000FF228B938A838982E0FFA3E0FE759300DE
:10234000228B938A838982EDF0A3ECF075930022AF
:102350009064877472F0906587742AF0228B938A58
:10236000838982E0759300FF228B938A838982EDB3
:10237000F0759300227B017A02798C229044C0741C
:1023800001F0229044C87401F0229044C07408F017
:10239000229044C87408F02200510000100051201F
:1023A000002000516000100051C000100051F000EA
:1023B0001001000000800101000F0001140008005E
:1023C0000140000A00014C00020001500000200101
:0723D000008008063C0080BC
:00000001FF
