:10000000020E4E008F828E83E0540100000070F8D3
:100010002278FFE4F6D8FD020EACEC4D6011E84901
:100020007017ED33EC3304600DE4FCFFFEFD22E9B4
:1000300033E8330470F80201CA12019558046009CC
:10004000E4CC248150062850090201D42840030240
:1000500001D1C0E0EB4A7044B98006D0E0FB020158
:10006000C0EF4E701CBD8008EBFFEAFEE9FD80EB9F
:10007000E98DF0A4FEE5F0020103E9CDF9EAFEEB1B
:10008000FFEF89F0A4FCE5F0CE89F0A42EFFE43563
:10009000F0CD89F0A42DFEE435F08067EF4E7005B9
:1000A000BD80D780C3EF8BF0A4ACF0EE8BF0A42C16
:1000B000FCE435F0F8EF8AF0A42CE5F038FCE433EA
:1000C000CB8DF0A42CFCE5F03BF8EE8AF0A42CFCE0
:1000D000E5F038F8E433CF89F0A42CFCE5F038CF14
:1000E0003400CE89F0A42FFFE5F03EFEE433C98D45
:1000F000F0A42EFEE5F039CD8AF0A42FFFE5F03E06
:10010000FEE43DFD33D0E0FB50070BBB000F0201C6
:10011000D4EC2CFCEF33FFEE33FEED33FD0201ACEB
:1001200075F020800E75F010800575F0087D007E5A
:10013000007F003392D530D5031206E0EC33401037
:10014000EF33FFEE33FEED33FDEC33FCD5F0ED2263
:10015000E5F0247EA2D513CC92E7CDCEFF22EDD2DE
:10016000E7CD33EC3392D524814006E4FFFEFDFC5D
:1001700022FCE4CFCECDCC24E0501174FF80EDC33F
:10018000CC13CCCD13CDCE13CECF13CF0470F03023
:10019000D5DE0206E0E9D2E7C933E833F892D5EDBF
:1001A000D2E7CD33EC33FC5002B2D522EC30E7106D
:1001B0000FBF000C0EBE00080DBD00040BEB601459
:1001C000A2D5EB13FCED92E7FD2274FFFCFDFEFFD0
:1001D00022E480F8A2D574FF13FC7D80E480EFF95F
:1001E00020E73624F950037907E4F42402FBE58282
:1001F000158270021583DBF6E024FB501BE96014C6
:10020000E4F0E582158270021583E004F0B40A0878
:10021000E4F0D9EE7401F00A22C2D522ED33EC33BA
:1002200092D5FA602AB4FF33EDC2E77BFF60067A0D
:10023000027941E4227A02794A20D5047A0279458A
:10024000224E614E002B494E46002D494E4600E499
:100250007A08F0A3DAFC7B00740722C083C082EC2A
:10026000C0E0EDC0E0EEC0E0EFC0E0EA75F010A441
:10027000CAABF075F04DA42BFBE435F0FCEA24107A
:10028000FAEB34C5FBEC34D9FCEDC2E7FF75F05650
:10029000A4F42411C5F0F434C58FF0A42AE5F03B92
:1002A000E43CF020E7141204E9D0E0FFD0E0FED0F7
:1002B000E0FDD0E0FC12041C8014F4041204E9D028
:1002C000E0FFD0E0FED0E0FDD0E0FC12001AD082CA
:1002D000D083E0FAEDD2E7CD33EC332482FBE4C3E4
:1002E000CF33CFCE33CECD33CD33DBF37B0775F0B9
:1002F0000A846004F0A31B0AE5F0F0A38FF0740AEF
:10030000A4FFACF08EF0740AA42CFEACF050010CEB
:100310008DF0740AA42CFDE435F0F0A3DBDE740745
:10032000220201CAE86480F8E933E833601104600E
:10033000F0ED33EC337009E8FCE9FDEAFEEBFF2257
:100340000460DED3EB9FEA9EE99DE8C2E78CF0C231
:10035000F795F0400CE8CCF8E9CDF9EACEFAEBCF0E
:10036000FB12019585D0F05804700320D5B3E80442
:1003700070075002B2D50201D492D5EC0460F7E4C4
:10038000CCC0E0C398F8603B94186008400DD0E002
:10039000FB0201ACE4FBFAC9FC8028E830E406E487
:1003A000C9FBE4CAFCE830E305E4C9CACBFCE85465
:1003B000076010F8C3E913F9EA13FAEB13FBEC1327
:1003C000FCD8F130F52FC3E49CFCEF9BFFEE9AFEC6
:1003D000ED99FDD0E0FBEF4E4D4C701222DB030295
:1003E00001D1EC2CFCEF33FFEE33FEED33FDED30AD
:1003F000E7EB0201ACEF2BFFEE3AFEED39FDD0E06A
:10040000FB50130BBB00030201D4ED13FDEE13FEF2
:10041000EF13FFEC13FC0201AC0201D4EC5D0460AD
:1004200005E8590470030201CA120195580460F6E8
:10043000EC4860F2EC7004FDFEFF22C860DB248112
:10044000C85009C398600250060201D19850CAF5FD
:1004500082E9294B4A7005AB820201C075F0007C2D
:100460001A7880C3EF9BEE9AED99400DC3EF9BFF86
:10047000EE9AFEED99FDE842F0DC23ACF0D0E0FF0F
:10048000D0E0FED0E0FDAB8220E7101BEB60BAECC1
:100490002CFCEF33FFEE33FEED33FD0201ACE8033D
:1004A000F830E705C0F075F000EF2FFFEE33FEEDFA
:1004B00033FD40B830E7C280AA3F800000412000F1
:1004C0000042C80000447A0000461C400047C35068
:1004D00000497424004B1896804CBEBC205A0E1B59
:1004E000CA6753C21C749DC5AEFB60065407601CEE
:1004F0002323120517EB5438600912050312051265
:1005000012001AECF8EDF9EEFAEFCB22EB1205121D
:1005100080F1543803241C9004B9FE93FC0EEE9332
:10052000FD0EEE930ECE93FF22BB010689828A83D5
:10053000E0225002E722BBFE02E32289828A83E4A2
:100540009322BB010CE58229F582E5833AF583E02D
:10055000225006E92582F8E622BBFE06E92582F84C
:10056000E222E58229F582E5833AF583E49322BB12
:10057000010689828A83F0225002F722BBFE01F332
:1005800022EF8DF0A4A8F0CF8CF0A428CE8DF0A49B
:100590002EFE22C5F0F8A3E028F0C5F0F8E582159C
:1005A0008270021583E038F022EF2BFFEE3AFEED69
:1005B00039FDEC38FC22E88FF0A4CC8BF0A42CFCA5
:1005C000E98EF0A42CFC8AF0EDA42CFCEA8EF0A4B9
:1005D000CDA8F08BF0A42DCC3825F0FDE98FF0A448
:1005E0002CCD35F0FCEB8EF0A4FEA9F0EB8FF0A43F
:1005F000CFC5F02ECD39FEE43CFCEAA42DCE35F07B
:10060000FDE43CFC2275F008758200EF2FFFEE330D
:10061000FECD33CDCC33CCC58233C5829BED9AEC75
:1006200099E58298400CF582EE9BFEED9AFDEC99DF
:10063000FC0FD5F0D6E4CEFBE4CDFAE4CCF9A882E9
:1006400022B800C1B90059BA002DEC8BF084CFCE8E
:10065000CDFCE5F0CBF97818EF2FFFEE33FEED334C
:10066000FDEC33FCEB33FB10D703994004EB99FB13
:100670000FD8E5E4F9FA227818EF2FFFEE33FEEDFC
:1006800033FDEC33FCC933C910D7059BE99A400709
:10069000EC9BFCE99AF90FD8E0E4C9FAE4CCFB2220
:1006A00075F010EF2FFFEE33FEED33FDCC33CCC8E9
:1006B00033C810D7079BEC9AE899400AED9BFDECF4
:1006C0009AFCE899F80FD5F0DAE4CDFBE4CCFAE433
:1006D000C8F922EF4BFFEE4AFEED49FDEC48FC2243
:1006E000C3E49FFFE49EFEE49DFDE49CFC22E860E1
:1006F0000FECC313FCED13FDEE13FEEF13FFD8F167
:1007000022E8600FEFC333FFEE33FEED33FDEC3331
:10071000FCD8F122BB010789828A8302074E50056B
:10072000E9F802081EBBFE05E9F802082A89828A58
:1007300083020836BB010789828A83020766500557
:10074000E9F8020846BBFE05E9F802085222E0FC7F
:10075000A3E0FDA3E0FEA3E0FF22E0F8A3E0F9A3FD
:10076000E0FAA3E0FB22ECF0A3EDF0A3EEF0A3EFA0
:10077000F022E0FBA3E0FAA3E0F922F8E0FBA3A358
:10078000E0F925F0F0E582158270021583E0FA3871
:10079000F022EBF0A3EAF0A3E9F022E493FB74016A
:1007A00093FA740293F922D083D082F8E493701202
:1007B000740193700DA3A393F8740193F582888359
:1007C000E4737402936860EFA3A3A380DFE51625AA
:1007D00082F582E5153583F583B5150485821622E9
:1007E00010AF06858216F51522858216F515D2AF53
:1007F00022EC8EF0A4CCC5F0CCCDF8EFA4CEC5F0A1
:100800002DFDE43CFCE8A42EC8C5F03DFDE43CFC15
:10081000EFA4FFE5F028FEE43DFDE43CFC22E6FC0D
:1008200008E6FD08E6FE08E6FF22E2FC08E2FD0815
:10083000E2FE08E2FF22E493FC740193FD7402934C
:10084000FE740393FF22ECF608EDF608EEF608EFCF
:10085000F622ECF208EDF208EEF208EFF2227B004D
:100860007A4679E81210C2EF4405FD7B007A46799A
:10087000E81210CE751400E514C3940B503AAF146F
:10088000EF75F005A424E5F582E43410F583AF821A
:10089000AE838E088F09AE08AF098F828E83120750
:1008A0009BAE08AF098F828E83740393FC7404930C
:1008B000FD120FE6051480BF751400E514C3940102
:1008C0005078AF14EF75F008A4241CF582E43411BD
:1008D000F583AF82AE838E0A8F0BAE0AAF0B8F8289
:1008E0008E8312079B8B0C8A0D890EAE0AAF0B8F7D
:1008F000828E83A3A3A312079B8B0F8A108911AE4C
:100900000AAF0B8F828E83740693F512740793F5EA
:1009100013AB0FAA10A911C003C002C001AB0CAAEF
:100920000DA90E900152120792D001D002D003AF50
:1009300013AE12120FB2051480817B087A00790081
:1009400012103B7B017A5079031210C2EF4402FD72
:100950007B017A5079031210CE7B017A5079131201
:1009600010C2EF4402FD7B017A5079131210CE9031
:1009700043A0E0FFEF4440FF9043A0EFF09043C25C
:10098000E0FFEF4410FF9043C2EFF07B087A067956
:10099000BCC003C002C0017B007A517912900152A1
:1009A000120792D001D002D0037F087E00120FB24E
:1009B0007B087A0679C4C003C002C0017B007A516B
:1009C0007940900152120792D001D002D0037F0AE1
:1009D0007E00120FB27B087A0679D0C003C002C035
:1009E000017B007A517950900152120792D001D0C8
:1009F00002D0037F0A7E00120FB29044F47401F01B
:100A0000904322E0FFEF4408FF904322EFF090462E
:100A1000ECE0FFEFC394055006904689743AF090DD
:100A2000480074F1F0120C1D90480074B1F0120FE0
:100A30007C7B007A4379A0C003C002C0017B007AAE
:100A40004379B0900152120792D001D002D0037FB7
:100A50000E7E00120FB29043B0E0FFEF54FDFFEFA7
:100A6000F022C0E0C0F0C083C082C085C084C086D0
:100A7000758600C093759300C0D075D000C000C0CB
:100A800001C002C003C004C005C006C00712107D2B
:100A900090014BEFF090014BE0FFEF20E309900154
:100AA0004BE0FFEF30E105D200020BFAC20012105A
:100AB00068900149EEF0A3EFF0900149E0FEA3E059
:100AC000FFEEFF7E007E00EF54DFFFEF4E6003027B
:100AD0000BFA900149E0FEA3E0FF7E00EF5407FF10
:100AE000D3EF9405EE94004003020BE590014AE039
:100AF000FFEF30E345900149E0FEA3E0FFEEC4F8CC
:100B000054F0C868FEEFC4540F48FF7E00EF540F46
:100B1000FFEF540FFF900149E0FCA3E0FD7C00EDE6
:100B20005407FD746A2DF58274013CF583E0FEEEF6
:100B300054F0FEEE4FFFEFF08048900149E0FEA335
:100B4000E0FFEEC4F854F0C868FEEFC4540F48FF4D
:100B50007E00EF540FFFEF540FFFEFC454F0FF90EF
:100B60000149E0FCA3E0FD7C00ED5407FD746A2D13
:100B7000F58274013CF583E0FEEE540FFEEE4FFF6C
:100B8000EFF0900168E0FFEFB40129900149E0FE29
:100B9000A3E0FF7E00EF5407FFEF4E70179001694E
:100BA000E0FFEFD394014004C2018026900169E088
:100BB00004F0801E900149E0FEA3E0FF7E00EF54A8
:100BC00007FFD3EF9401EE94004007D20190016932
:100BD000E4F0900149E0FEA3E0FF7E00EF5407FF40
:100BE000900168EFF0900149E0FEA3E0FFEEFF7E88
:100BF000007E00EF30E503020AAED007D006D00534
:100C0000D004D003D002D001D000D0D0D093D08671
:100C1000D084D085D082D083D0F0D0E0327B007AEF
:100C20004079807D197C001210B39040827418F0D6
:100C30007B007A4079847D4D7C001210B390408611
:100C40007418F07B007A4079887D387C011210B3EB
:100C500090408A7418F09043007402F09040007441
:100C600008F09042007403F07B0C7A0179081210AE
:100C7000C29046A1EFF07B007A4279227D087C0089
:100C80001210B37B007A4279207D517C121210B38E
:100C9000900151E4F07F197E007D007C0090014DB1
:100CA00012076690014D12074ED3EF9400EE9400A8
:100CB000404E900151E0FFEF64036044904225E014
:100CC000FFEF5401FF7E00900151E0FEEE25E0FEB3
:100CD000EE4FFFEF5403FF900151EFF07FE07E01F4
:100CE0007D007C0012100090014D12074E7BFF7AB0
:100CF000FF79FF78FF1205A990014D12076680A3C6
:100D000090014D12074EEF4E70057F031210917B3C
:100D1000007A4079047D007C011210B39040047485
:100D200007F0904006E4F09040087448F0904004CA
:100D3000E4F09040017402F09043A2E0FFEF44071A
:100D4000FF9043A2EFF022C0E0C083C082C085C004
:100D500084C086758600C093759300C0D075D0009E
:100D6000C006C007900157E4F0A2AFE433FF900142
:100D700058EFF0D2AF9044F474FDF0906462E0FF5D
:100D8000900156EFF0900156E0FF900155EFF09082
:100D90000156E0FFEF541EFF7E00EF4E60169000FC
:100DA00002E0FF900156E0FEEE541EFEEF4EFF9073
:100DB0000002EFF0900156E0FFEF30E566906441ED
:100DC000E0FF900155EFF0900155E0FF900104E045
:100DD000FE74052EF582E43400F583EFF0900157A0
:100DE0007401F0900157E0FFEF6038900003E0FFDE
:100DF000EF60069000017401F0900104E004F090AF
:100E00000104E0FFEFC394FF4005900104E4F0907B
:100E10000004E0FF900104E0FEEEB5070690000339
:100E20007401F0900156E0FFEF30E503020D7B9076
:100E30000158E0FFEF24FF92AFD007D006D0D0D00A
:100E400093D086D084D085D082D083D0E032759381
:100E50000078007583467582E8E04401F000904612
:100E6000ECE0F99046FAE0FAB903225420B40012FB
:100E7000B8001AEA900FFFF07401900FFEF0904650
:100E8000F6F0900FFEE06005900FFFE0FA9048004A
:100E900074C0F075812090000078007910E4F0A310
:100EA000D8FCD9FAEA900163F002001175150F75AC
:100EB00016FD12085E020EF30210DAE493A3F8E4C2
:100EC00093A34003F68001F208DFF48029E493A3A2
:100ED000F85407240CC8C333C4540F4420C88340BB
:100EE00004F456800146F6DFE4800B01020408108A
:100EF000204080900F38E47E019360BCA3FF543FF4
:100F000030E509541FFEE493A360010ECF54C025C1
:100F1000E060A840B8E493A3FAE493A3F8E493A3B1
:100F2000C8C582C8CAC583CAF0A3C8C582C8CAC515
:100F300083CADFE9DEE780BE4101690041010500A7
:100F4000410002004100040041010400410003008F
:100F5000410001004101750044015F016E3600440B
:100F6000015A00005DC041015E184401642EE0009A
:100F70000043017000000041017600007B0C7A0103
:100F800079CF1210C290014DEFF090014DE0FFEFCC
:100F90005407FF90586EEFF090014DE0FFEFC454FE
:100FA0000FFFEF540FFF90586FEFF0905876744496
:100FB000F022758600EF4E6027EF60010E759300FA
:100FC000900152E0F595A3E0F585A3E0F5848B93BD
:100FD0008A838982E0A30586F0A31586DFF6DEF416
:100FE000E4F593F59522EC4D6011ED60010C8B93C7
:100FF0008A838982E4F0A3DDFCDCFA759300223257
:10100000EC4D4E700D78FCEF24E950032840FD2292
:1010100000007BF178DA0000EF28FF78FFEE38FE61
:10102000ED38FDEC38FC50E7EF2BFFEE38FEED38E5
:10103000FDEC38FC40F22205020304ACEAADA08BC3
:10104000938A838982E0F96017A3E0F5EAA3E0F5CB
:10105000A0A3E060F4FAA3E0F8A3E0F2DAF8D9E99B
:101060008DA08CEAE4F5932212107D7E00EF7D00C6
:10107000FC1210A37E00EC4EFEED4FFF2290646741
:10108000E0FFEF547FFF90014CEFF090014CE0FF48
:1010900022900152EFF0900152E0FF900152EFF0E8
:1010A00080FE22906547E0FF90014CEFF090014CEC
:1010B000E0FF228B938A838982EDF0A3ECF0759395
:1010C00000228B938A838982E0759300FF228B93A1
:1010D0008A838982EDF075930022D2AF9044F47434
:1010E000FDF080FE22005100001000512000200081
:1010F000516000100051C000100051F000100100BC
:101100000000800101000F000114000800014000F0
:101110000A00014C0002000150000020010080087C
:04112000063C008009
:00000001FF
