:10000000020F30008F828E83E0540100000070F8F0
:100010002278FFE4F6D8FD020F8EEC4D6011E8491E
:100020007017ED33EC3304600DE4FCFFFEFD22E9B4
:1000300033E8330470F80201CA12019558046009CC
:10004000E4CC248150062850090201D42840030240
:1000500001D1C0E0EB4A7044B98006D0E0FB020158
:10006000C0EF4E701CBD8008EBFFEAFEE9FD80EB9F
:10007000E98DF0A4FEE5F0020103E9CDF9EAFEEB1B
:10008000FFEF89F0A4FCE5F0CE89F0A42EFFE43563
:10009000F0CD89F0A42DFEE435F08067EF4E7005B9
:1000A000BD80D780C3EF8BF0A4ACF0EE8BF0A42C16
:1000B000FCE435F0F8EF8AF0A42CE5F038FCE433EA
:1000C000CB8DF0A42CFCE5F03BF8EE8AF0A42CFCE0
:1000D000E5F038F8E433CF89F0A42CFCE5F038CF14
:1000E0003400CE89F0A42FFFE5F03EFEE433C98D45
:1000F000F0A42EFEE5F039CD8AF0A42FFFE5F03E06
:10010000FEE43DFD33D0E0FB50070BBB000F0201C6
:10011000D4EC2CFCEF33FFEE33FEED33FD0201ACEB
:1001200075F020800E75F010800575F0087D007E5A
:10013000007F003392D530D5031206E0EC33401037
:10014000EF33FFEE33FEED33FDEC33FCD5F0ED2263
:10015000E5F0247EA2D513CC92E7CDCEFF22EDD2DE
:10016000E7CD33EC3392D524814006E4FFFEFDFC5D
:1001700022FCE4CFCECDCC24E0501174FF80EDC33F
:10018000CC13CCCD13CDCE13CECF13CF0470F03023
:10019000D5DE0206E0E9D2E7C933E833F892D5EDBF
:1001A000D2E7CD33EC33FC5002B2D522EC30E7106D
:1001B0000FBF000C0EBE00080DBD00040BEB601459
:1001C000A2D5EB13FCED92E7FD2274FFFCFDFEFFD0
:1001D00022E480F8A2D574FF13FC7D80E480EFF95F
:1001E00020E73624F950037907E4F42402FBE58282
:1001F000158270021583DBF6E024FB501BE96014C6
:10020000E4F0E582158270021583E004F0B40A0878
:10021000E4F0D9EE7401F00A22C2D522ED33EC33BA
:1002200092D5FA602AB4FF33EDC2E77BFF60067A0D
:10023000027941E4227A02794A20D5047A0279458A
:10024000224E614E002B494E46002D494E4600E499
:100250007A08F0A3DAFC7B00740722C083C082EC2A
:10026000C0E0EDC0E0EEC0E0EFC0E0EA75F010A441
:10027000CAABF075F04DA42BFBE435F0FCEA24107A
:10028000FAEB34C5FBEC34D9FCEDC2E7FF75F05650
:10029000A4F42411C5F0F434C58FF0A42AE5F03B92
:1002A000E43CF020E7141204E9D0E0FFD0E0FED0F7
:1002B000E0FDD0E0FC12041C8014F4041204E9D028
:1002C000E0FFD0E0FED0E0FDD0E0FC12001AD082CA
:1002D000D083E0FAEDD2E7CD33EC332482FBE4C3E4
:1002E000CF33CFCE33CECD33CD33DBF37B0775F0B9
:1002F0000A846004F0A31B0AE5F0F0A38FF0740AEF
:10030000A4FFACF08EF0740AA42CFEACF050010CEB
:100310008DF0740AA42CFDE435F0F0A3DBDE740745
:10032000220201CAE86480F8E933E833601104600E
:10033000F0ED33EC337009E8FCE9FDEAFEEBFF2257
:100340000460DED3EB9FEA9EE99DE8C2E78CF0C231
:10035000F795F0400CE8CCF8E9CDF9EACEFAEBCF0E
:10036000FB12019585D0F05804700320D5B3E80442
:1003700070075002B2D50201D492D5EC0460F7E4C4
:10038000CCC0E0C398F8603B94186008400DD0E002
:10039000FB0201ACE4FBFAC9FC8028E830E406E487
:1003A000C9FBE4CAFCE830E305E4C9CACBFCE85465
:1003B000076010F8C3E913F9EA13FAEB13FBEC1327
:1003C000FCD8F130F52FC3E49CFCEF9BFFEE9AFEC6
:1003D000ED99FDD0E0FBEF4E4D4C701222DB030295
:1003E00001D1EC2CFCEF33FFEE33FEED33FDED30AD
:1003F000E7EB0201ACEF2BFFEE3AFEED39FDD0E06A
:10040000FB50130BBB00030201D4ED13FDEE13FEF2
:10041000EF13FFEC13FC0201AC0201D4EC5D0460AD
:1004200005E8590470030201CA120195580460F6E8
:10043000EC4860F2EC7004FDFEFF22C860DB248112
:10044000C85009C398600250060201D19850CAF5FD
:1004500082E9294B4A7005AB820201C075F0007C2D
:100460001A7880C3EF9BEE9AED99400DC3EF9BFF86
:10047000EE9AFEED99FDE842F0DC23ACF0D0E0FF0F
:10048000D0E0FED0E0FDAB8220E7101BEB60BAECC1
:100490002CFCEF33FFEE33FEED33FD0201ACE8033D
:1004A000F830E705C0F075F000EF2FFFEE33FEEDFA
:1004B00033FD40B830E7C280AA3F800000412000F1
:1004C0000042C80000447A0000461C400047C35068
:1004D00000497424004B1896804CBEBC205A0E1B59
:1004E000CA6753C21C749DC5AEFB60065407601CEE
:1004F0002323120517EB5438600912050312051265
:1005000012001AECF8EDF9EEFAEFCB22EB1205121D
:1005100080F1543803241C9004B9FE93FC0EEE9332
:10052000FD0EEE930ECE93FF22BB010689828A83D5
:10053000E0225002E722BBFE02E32289828A83E4A2
:100540009322BB010CE58229F582E5833AF583E02D
:10055000225006E92582F8E622BBFE06E92582F84C
:10056000E222E58229F582E5833AF583E49322BB12
:10057000010689828A83F0225002F722BBFE01F332
:1005800022EF8DF0A4A8F0CF8CF0A428CE8DF0A49B
:100590002EFE22C5F0F8A3E028F0C5F0F8E582159C
:1005A0008270021583E038F022EF2BFFEE3AFEED69
:1005B00039FDEC38FC22E88FF0A4CC8BF0A42CFCA5
:1005C000E98EF0A42CFC8AF0EDA42CFCEA8EF0A4B9
:1005D000CDA8F08BF0A42DCC3825F0FDE98FF0A448
:1005E0002CCD35F0FCEB8EF0A4FEA9F0EB8FF0A43F
:1005F000CFC5F02ECD39FEE43CFCEAA42DCE35F07B
:10060000FDE43CFC2275F008758200EF2FFFEE330D
:10061000FECD33CDCC33CCC58233C5829BED9AEC75
:1006200099E58298400CF582EE9BFEED9AFDEC99DF
:10063000FC0FD5F0D6E4CEFBE4CDFAE4CCF9A882E9
:1006400022B800C1B90059BA002DEC8BF084CFCE8E
:10065000CDFCE5F0CBF97818EF2FFFEE33FEED334C
:10066000FDEC33FCEB33FB10D703994004EB99FB13
:100670000FD8E5E4F9FA227818EF2FFFEE33FEEDFC
:1006800033FDEC33FCC933C910D7059BE99A400709
:10069000EC9BFCE99AF90FD8E0E4C9FAE4CCFB2220
:1006A00075F010EF2FFFEE33FEED33FDCC33CCC8E9
:1006B00033C810D7079BEC9AE899400AED9BFDECF4
:1006C0009AFCE899F80FD5F0DAE4CDFBE4CCFAE433
:1006D000C8F922EF4BFFEE4AFEED49FDEC48FC2243
:1006E000C3E49FFFE49EFEE49DFDE49CFC22E860E1
:1006F0000FECC313FCED13FDEE13FEEF13FFD8F167
:1007000022E8600FEFC333FFEE33FEED33FDEC3331
:10071000FCD8F122BB010789828A8302074E50056B
:10072000E9F8020900BBFE05E9F802090C89828A92
:1007300083020918BB010789828A83020766500574
:10074000E9F8020928BBFE05E9F802093422E0FCB9
:10075000A3E0FDA3E0FEA3E0FF22E0F8A3E0F9A3FD
:10076000E0FAA3E0FB22ECF0A3EDF0A3EEF0A3EFA0
:10077000F022E0FBA3E0FAA3E0F922F8E0FBA3A358
:10078000E0F925F0F0E582158270021583E0FA3871
:10079000F022EBF0A3EAF0A3E9F022E493FB74016A
:1007A00093FA740293F922D083D082F8E493701202
:1007B000740193700DA3A393F8740193F582888359
:1007C000E4737402936860EFA3A3A380DFE51625AA
:1007D00082F582E5153583F583B5150485821622E9
:1007E00010AF06858216F51522858216F515D2AF53
:1007F00022EC8EF0A4CCC5F0CCCDF8EFA4CEC5F0A1
:100800002DFDE43CFCE8A42EC8C5F03DFDE43CFC15
:10081000EFA4FFE5F028FEE43DFDE43CFC22E709FF
:10082000F608DFFA8046E709F208DFFA803E8882A0
:100830008C83E709F0A3DFFA8032E309F608DFFAD8
:10084000806EE309F208DFFA806688828C83E30910
:10085000F0A3DFFA805A89828A83E0A3F608DFFAE0
:10086000804E89828A83E0A3F208DFFA804280D238
:1008700080FA80C680D4805580F28029801080A6BE
:1008800080EA809A80A880DA80E280CA8029888401
:100890008C8589828A83E493A30586F0A30586DF8D
:1008A000F5DEF3800B89828A83E493A3F608DFF9EF
:1008B000ECFAA9F0EDFB2288848C8589828A83E09A
:1008C000A30586F0A30586DFF6DEF480E389828A3D
:1008D00083E493A3F208DFF980D688F0EF60010E7D
:1008E0004E60CD88F0ED2402B4040050C3F582EBD5
:1008F0002402B4040050B9232345822390086E7368
:10090000E6FC08E6FD08E6FE08E6FF22E2FC08E257
:10091000FD08E2FE08E2FF22E493FC740193FD74FB
:100920000293FE740393FF22ECF608EDF608EEF650
:1009300008EFF622ECF208EDF208EEF208EFF222F0
:100940007B007A4679E8121757EF4405FD7B007A61
:100950004679E8121763751400E514C3940B503AF6
:10096000AF14EF75F005A42484F582E43417F58301
:10097000AF82AE838E088F09AE08AF098F828E8357
:1009800012079BAE08AF098F828E83740393FC74A9
:100990000493FD1215DB051480BF751400E514C324
:1009A00094015078AF14EF75F008A424BBF582E4ED
:1009B0003417F583AF82AE838E0A8F0BAE0AAF0B6E
:1009C0008F828E8312079B8B0C8A0D890EAE0AAF25
:1009D0000B8F828E83A3A3A312079B8B0F8A108990
:1009E00011AE0AAF0B8F828E83740693F5127407D3
:1009F00093F513AB0FAA10A911C003C002C001AB3D
:100A00000CAA0DA90E9001BA120792D001D002D003
:100A100003AF13AE12121471051480817B087A00A3
:100A200079001214D87B017A507903121757EF44DA
:100A300002FD7B017A5079031217637B017A5079AA
:100A400013121757EF4402FD7B017A5079131217E6
:100A5000639043A0E0FFEF4440FF9043A0EFF0908D
:100A600043C2E0FFEF4410FF9043C2EFF07B087AEF
:100A70000679BCC003C002C0017B007A5179129094
:100A800001BA120792D001D002D0037F087E001273
:100A900014717B087A0679C4C003C002C0017B00D0
:100AA0007A5179409001BA120792D001D002D00356
:100AB0007F0A7E001214717B087A0679D0C003C0C9
:100AC00002C0017B007A5179509001BA120792D08E
:100AD00001D002D0037F0A7E001214719044F47496
:100AE00001F0904322E0FFEF4408FF904322EFF033
:100AF0009046ECE0FFEFC394055006904689743AA7
:100B0000F090480074F1F0120CFF90480074B1F0BE
:100B100012143B7B007A4379A0C003C002C0017B62
:100B2000007A4379B09001BA120792D001D002D076
:100B3000037F0E7E001214719043B0E0FFEF54FD6E
:100B4000FFEFF022C0E0C0F0C083C082C085C08447
:100B5000C086758600C093759300C0D075D000C064
:100B600000C001C002C003C004C005C006C0071217
:100B700016E59001B3EFF09001B3E0FFEF20E30939
:100B80009001B3E0FFEF30E105D200020CDCC200BF
:100B90001216A69001B1EEF0A3EFF09001B1E0FEC5
:100BA000A3E0FFEEFF7E007E00EF54DFFFEF4E601C
:100BB00003020CDC9001B1E0FEA3E0FF7E00EF54E5
:100BC00007FFD3EF9405EE94004003020CC7900199
:100BD000B2E0FFEF30E3459001B1E0FEA3E0FFEEAD
:100BE000C4F854F0C868FEEFC4540F48FF7E00EF0D
:100BF000540FFFEF540FFF9001B1E0FCA3E0FD7C28
:100C000000ED5407FD74E82DF58274013CF583E096
:100C1000FEEE54F0FEEE4FFFEFF080489001B1E0A1
:100C2000FEA3E0FFEEC4F854F0C868FEEFC4540F12
:100C300048FF7E00EF540FFFEF540FFFEFC454F056
:100C4000FF9001B1E0FCA3E0FD7C00ED5407FD74D2
:100C5000E82DF58274013CF583E0FEEE540FFEEEC4
:100C60004FFFEFF09001E6E0FFEFB401299001B1F2
:100C7000E0FEA3E0FF7E00EF5407FFEF4E701790F9
:100C800001E7E0FFEFD394014004C2018026900108
:100C9000E7E004F0801E9001B1E0FEA3E0FF7E00DB
:100CA000EF5407FFD3EF9401EE94004007D2019078
:100CB00001E7E4F09001B1E0FEA3E0FF7E00EF5415
:100CC00007FF9001E6EFF09001B1E0FEA3E0FFEE38
:100CD000FF7E007E00EF30E503020B90D007D006C8
:100CE000D005D004D003D002D001D000D0D0D09312
:100CF000D086D084D085D082D083D0F0D0E0327B33
:100D0000007A4079807D197C0012173B90408274F4
:100D100018F07B007A4079847D4D7C0012173B905F
:100D200040867418F07B007A4079887D387C011207
:100D3000173B90408A7418F09043007402F0904082
:100D4000007408F09042007403F07B0C7A0179087B
:100D50001217579046A1EFF07B007A4279227D0866
:100D60007C0012173B7B007A4279207D517C121265
:100D7000173B9001B9E4F07F197E007D007C009064
:100D800001B51207669001B512074ED3EF9400EE3D
:100D90009400404E9001B9E0FFEF6403604490423C
:100DA00025E0FFEF5401FF7E009001B9E0FEEE2543
:100DB000E0FEEE4FFFEF5403FF9001B9EFF07FE04C
:100DC0007E017D007C001214009001B512074E7B5D
:100DD000FF7AFF79FF78FF1205A99001B512076627
:100DE00080A39001B512074EEF4E70057F031216D7
:100DF000F97B007A4079047D007C0112173B90401A
:100E0000047407F0904006E4F09040087448F090B5
:100E10004004E4F09040017402F09043A2E0FFEF40
:100E20004407FF9043A2EFF022C0E0C083C082C01D
:100E300085C084C086758600C093759300C0D07548
:100E4000D000C006C0079001D4E4F0A2AFE433FFA5
:100E50009001D5EFF0D2AF9044F474FDF09064624D
:100E6000E0FF9001D3EFF09001D3E0FF9001D2EFCB
:100E7000F09001D3E0FFEF541EFF7E00EF4E6016AE
:100E8000900002E0FF9001D3E0FEEE541EFEEF4E14
:100E9000FF900002EFF09001D3E0FFEF30E56690A5
:100EA0006441E0FF9001D2EFF09001D2E0FF9001A9
:100EB00004E0FE74052EF582E43400F583EFF09033
:100EC00001D47401F09001D4E0FFEF60389000038A
:100ED000E0FFEF60069000017401F0900104E0046F
:100EE000F0900104E0FFEFC394FF4005900104E49B
:100EF000F0900004E0FF900104E0FEEEB5070690DC
:100F000000037401F09001D3E0FFEF30E503020E1F
:100F10005D9001D5E0FFEF24FF92AFD007D006D05F
:100F2000D0D093D086D084D085D082D083D0E03208
:100F300075930078007583467582E8E04401F000FF
:100F40009046ECE0F99046FAE0FAB903225420B456
:100F50000012B8001AEA900FFFF07401900FFEF033
:100F60009046F6F0900FFEE06005900FFFE0FA90DB
:100F7000480074C0F075812090000078007910E47A
:100F8000F0A3D8FCD9FAEA9001E1F002001175153E
:100F90000F7516FD120940020FD502101AE493A333
:100FA000F8E493A34003F68001F208DFF48029E41B
:100FB00093A3F85407240CC8C333C4540F4420C867
:100FC000834004F456800146F6DFE4800B010204FE
:100FD000081020408090130BE47E019360BCA3FFB7
:100FE000543F30E509541FFEE493A360010ECF5433
:100FF000C025E060A840B8E493A3FAE493A3F8E422
:1010000093A3C8C582C8CAC583CAF0A3C8C582C88D
:10101000CAC583CADFE9DEE780BED2AF9044F4746C
:10102000FDF012166712170B12167C7FE87E037D07
:10103000007C0012124612176FC003C002C0017B71
:10104000017A0179B7A801AC02AD03D001D002D07A
:10105000037E007F061208DA9001B5E0FCA3E0FDF4
:101060007F001211C69001B5E0FCA3E0FD7F0112E4
:1010700011C69001B5E0FCA3E0FD7F021211C690FD
:1010800001B5E0FCA3E0FD7F031211C69001B5E0BD
:10109000FCA3E0FD7F041211C67FE87E037D007C87
:1010A000001212469001B5E475F00A12059380868D
:1010B00022C0E0C083C082C085C084C0867586001F
:1010C000C093759300C0D075D000C006C007A2AF12
:1010D000E433FF9001D6EFF0D2AF9044F474FDF00A
:1010E00090016CE0FF900107E0FEEE6F60379064C6
:1010F00065E0FFEF20E22E900107E0FFEFC394646C
:101100004005900107E4F0900107E0FF74082FF517
:1011100082E43401F583E0FF906446EFF09001072C
:10112000E004F080BB9001D6E0FFEF24FF92AFD047
:1011300007D006D0D0D093D086D084D085D082D0AE
:1011400083D0E0329001BDEFF09001BEECF0A3ED52
:10115000F09001BDE0FFEFD3941F5003D38001C393
:1011600040057F001216BB9001BDE0FFEF541FFF4A
:101170007E00EF25E0FFEE33FEEF2400FFEE344467
:10118000FEAA06A9077B0112172E9001C0EEF0A35C
:10119000EFF09001BDE0FF7E02EF8EF0A4FFAEF015
:1011A000EF2400FFEE3444FEAA06A9077B0190015C
:1011B000BEE0FEA3E0FFAD07AC0612173D9001C0F4
:1011C000E0FEA3E0FF229001BDEFF09001BEECF045
:1011D000A3EDF09001BEE0FEA3E0FF7C007D1E12B7
:1011E0000581C3744C9FFF741D9EFE9001C0EEF0FC
:1011F000A3EFF09001BDE0FFEF4480FF9001C3EF4B
:10120000F09001C0E0FEA3E0FFEF7807CEA2E71365
:10121000CE13D8F8FFEF547FFF9001C4EFF0900198
:10122000C0E0FEA3E0FFEF547FFF9001C5EFF07B2D
:10123000017A0179C37D0312135B7F017E007D007B
:101240007C001212462290FFFC1207CD1207668521
:10125000158385168212074ED3EF9400EE948040DA
:101260002F9001E212074E12140085158385168215
:10127000C083C08212074EEF2400FFEE3480FEEDE3
:1012800034FFFDEC34FFFCD082D08312076680BFB0
:101290009001D812074E85158385168212075A12BF
:1012A00005B61214009000041207CD229001BDEF84
:1012B000F09001BEEDF09001BEE0FFEFD394075037
:1012C00003D38001C340057F001216BB9001BDE02F
:1012D000FFEFD3941F5003D38001C340057F00125A
:1012E00016BB9001BEE0FFEF5407FF7E00EF75F0E4
:1012F00020A4FFAEF09001BDE0FEEE541FFE74800E
:101300002EF582E43444F583EFF0224101E70041F9
:1013100001050041000200410004004101040041B8
:101320000003004100010041016D0041010700413F
:10133000016C004101F3004401DD016E36004401FF
:10134000D800005DC04101DC184401E22EE000003D
:101350004301EE0000004101F400009001CC1207AF
:10136000929001CFEDF09001D0E4F0900105E0FF04
:10137000EF602F9001CFE0FF9001D0E0FEEEC39F21
:1013800050209001CC1207729001D0E0FFE92FF9B4
:10139000E43AFA120529FF1215C29001D0E004F0D8
:1013A00080D1221216D09001BDEFF0906491E0FF41
:1013B000EF4420FFEFF0906492E0FFEF4410FFEF66
:1013C000F09044C07404F0906494E0FFEF4410FF88
:1013D000EFF012160C9001BDE0FF1215F4229001FF
:1013E000BDEEF0A3EFF012177D9001BDE0FEA3E08B
:0E13F000FF1215A47F07121651121776223233
:10140000EC4D4E700D78FCEF24E950032840FD228E
:1014100000007BF178DA0000EF28FF78FFEE38FE5D
:10142000ED38FDEC38FC50E7EF2BFFEE38FEED38E1
:10143000FDEC38FC40F222050203047B0C7A0179B2
:10144000CF1217579001B5EFF09001B5E0FFEF54C0
:1014500007FF90586EEFF09001B5E0FFEFC4540F16
:10146000FFEF540FFF90586FEFF09058767444F0F0
:1014700022758600EF4E6027EF60010E7593009095
:1014800001BAE0F595A3E0F585A3E0F5848B938A96
:10149000838982E0A30586F0A31586DFF6DEF4E4F7
:1014A000F593F595227C0E7D297F021211447D076C
:1014B0007F021212AC900002E4F09064817472F02A
:1014C0009064827420F09064237406F09064337406
:1014D00047F0906484E4F022ACEAADA08B938A8359
:1014E0008982E0F96017A3E0F5EAA3E0F5A0A3E0A4
:1014F00060F4FAA3E0F8A3E0F2DAF8D9E98DA08C61
:10150000EAE4F593221216D09001BDEFF0906495B5
:10151000E0FFEF4410FFEFF09044D87402F09044E5
:10152000C07402F01216239001BDE0FF1215F422E0
:101530001216D09001BDEFF0906496E0FFEF4420CA
:10154000FFEFF0906497E0FFEF4410FFEFF012160A
:101550003A9001BDE0FF1215F4221216D09001BDA1
:10156000EFF0906597E0FFEF4401FFEFF090659793
:10157000E0FFEF54FEFFEFF09001BDE0FF1215F425
:10158000227C107DB17F011211447D077F01121270
:10159000AC9064257406F09064357447F0906485CF
:1015A0007402F0229001BFEEF0A3EFF07B027A44C8
:1015B00079009001BFE0FEA3E0FFAD07AC06121773
:1015C0003D229001D1EFF0906464E0FFEF20E2F75C
:1015D0009001D1E0FF906444EFF022EC4D6011EDFA
:1015E00060010C8B938A838982E4F0A3DDFCDCFA32
:1015F00075930022EF54016004D2AF8002C2AFEFB6
:101600005402FF9044F4E054FD4FF0229043A2E0D6
:10161000FFEF4401FFEFF09043B2E0FFEF4401FF22
:10162000EFF0229043A2E0FFEF4404FFEFF090437D
:10163000B2E0FFEF4404FFEFF0229043A2E0FFEF9F
:101640004402FFEFF09043B2E0FFEF4402FFEFF0FF
:10165000229001BFEFF09001BFE0FFEFC43354E0F0
:10166000FF904480EFF022900105E0FFEF70091237
:1016700014A59001057401F01213A32290016DE0EE
:10168000FFEF700912158190016D7401F0121505BC
:10169000229001F3E0FFEF700912174A9001F374F2
:1016A00001F0121530221216E57E00EF7D00FC12CB
:1016B000171C7E00EC4EFEED4FFF2290FFFF12073D
:1016C000CDEFF09046EA7401F09000011207CD22B0
:1016D0009044F4E0F84402F0E85402FF10AF012215
:1016E00074014FFF22906467E0FFEF547FFF900189
:1016F000B4EFF09001B4E0FF229001BAEFF0900156
:10170000BAE0FF9001BAEFF080FE22121691121596
:101710005A7E0B7F441213DE12177622906547E043
:10172000FF9001B4EFF09001B4E0FF228B938A8325
:101730008982E0FFA3E0FE759300228B938A838960
:1017400082EDF0A3ECF0759300229064867472F041
:10175000906487742AF0228B938A838982E0759340
:1017600000FF228B938A838982EDF0759300227BA0
:10177000017A0179E8229044C07401F0229044C8B3
:101780007401F0220051000010005120002000518F
:101790006000100051C000100051F0001001000066
:1017A00000800101000F0001140008000140000A40
:1017B00000014C00020001500000200100800806DA
:0317C0003C00806A
:00000001FF
